:100000000C942A000C943F000C943F000C943F0089
:100010000C943F000C943F000C943F000C943F0064
:100020000C943F000C943F000C943F000C943F0054
:100030000C943F000C943F000C943F000C943F0044
:100040000C943F000C943F000C943F000C943F0034
:100050000C943F0011241FBECFE5D8E0DEBFCDBF1A
:1000600010E0A0E6B0E0EEECF8E202C005900D92E0
:10007000A83AB107D9F70E94D4120C9465140C94D5
:100080000000EF92FF920F931F937B018C0120E001
:1000900030E040E05FE40E94ED0388238CF0C8016B
:1000A000B70120E030E040E05FE40E94B9010E9427
:1000B0004D049B01AC01205030404040504806C0E8
:1000C000C801B7010E944D049B01AC01B901CA01EE
:1000D0001F910F91FF90EF900895A0E0B0E0E3E74B
:1000E000F0E00C942E14DC012B01FA019C9192306B
:1000F00008F439C1EB018881823008F433C19430AF
:1001000069F4843009F02FC111969C91119789816F
:10011000981709F428C1A0E6B0E025C1843009F49D
:1001200021C18230A9F4923009F01DC19A01AD01BC
:1001300088E0EA010990AE01E90109929E0181502F
:10014000C1F7E201898111969C918923818308C1BD
:10015000923009F407C112962D903C901397EB0151
:100160008A819B811496AD90BD90CD90DC901797BD
:10017000EC80FD800E811F819101281B390BB90194
:1001800037FF04C066277727621B730B6032710547
:100190000CF061C0121613066CF537014801062EEB
:1001A00004C096948794779467940A94D2F721E0D8
:1001B00030E040E050E004C0220F331F441F551FC1
:1001C0006A95D2F721503040404050402E213F21C7
:1001D00040235123211531054105510521F021E02E
:1001E00030E040E050E079018A01E628F72808294C
:1001F00019293CC0232BD1F1260E371E35014601AB
:10020000062E04C096948794779467940A94D2F744
:1002100021E030E040E050E004C0220F331F441FD3
:10022000551F6A95D2F721503040404050402A2156
:100230003B214C215D21211531054105510521F05E
:1002400021E030E040E050E059016A01A628B728DB
:10025000C828D9280BC0821593052CF01C01AA24AC
:10026000BB24650103C0EE24FF24870111969C91F5
:10027000D20111968C91981709F445C0992339F051
:10028000A80197012A193B094C095D0906C0A6017E
:1002900095012E193F09400B510B57FD08C01182E3
:1002A0003382228224833583468357831DC081E0B5
:1002B00081833382228288279927DC01821B930B5A
:1002C000A40BB50B84839583A683B7830DC0220F3F
:1002D000331F441F551F24833583468357838281F0
:1002E000938101979383828324813581468157814D
:1002F000DA01C9010197A109B1098F5F9F4FAF4F83
:10030000BF4328F30BC0918333822282EA0CFB1C8B
:100310000C1D1D1DE482F5820683178383E0808314
:10032000248135814681578157FF1AC0C901AA2708
:1003300097FDA095BA2F81709070A070B0705695FF
:10034000479537952795822B932BA42BB52B848328
:100350009583A683B7838281938101969383828359
:10036000DF0101C0D201CD01CDB7DEB7E2E10C94CF
:100370004A14A0E2B0E0EFEBF1E00C943A14698388
:100380007A838B839C832D833E834F835887E9E058
:10039000EE2EF12CEC0EFD1ECE010196B7010E944F
:1003A00076058E010F5E1F4FCE010596B8010E94A3
:1003B00076058A8991E089278A8BC701B801AE0149
:1003C000475E5F4F0E946D000E94A104A096E6E088
:1003D0000C945614A0E2B0E0E0EFF1E00C943A1473
:1003E00069837A838B839C832D833E834F835887D5
:1003F000F9E0EF2EF12CEC0EFD1ECE010196B701B7
:100400000E9476058E010F5E1F4FCE010596B80142
:100410000E947605C701B801AE01475E5F4F0E949A
:100420006D000E94A104A096E6E00C945614A0E290
:10043000B0E0EDE1F2E00C942E1469837A838B83B3
:100440009C832D833E834F835887CE010196BE0146
:10045000675F7F4F0E947605CE010596BE016F5EF5
:100460007F4F0E9476059985923088F08989823085
:10047000C8F0943019F4823051F404C0843029F467
:10048000923081F480E690E0C6C0923049F420E0DA
:100490009A858A89981321E02A87CE010996BBC0E4
:1004A000823049F420E09A858A89981321E02A8BCA
:1004B000CE014196B0C02D843E844F8458886D880B
:1004C0007E888F88988CEE24FF248701AA24BB2481
:1004D000650140E050E060E070E0E0E0F0E0C10184
:1004E00081709070892BE9F0E60CF71C081D191D2E
:1004F0009A01AB012A0D3B1D4C1D5D1D80E090E073
:10050000A0E0B0E0E614F7040805190520F481E046
:1005100090E0A0E0B0E0BA01A901480F591F6A1F9E
:100520007B1FAA0CBB1CCC1CDD1C97FE08C081E005
:1005300090E0A0E0B0E0A82AB92ACA2ADB2A3196C6
:10054000E032F10549F0660C771C881C991C569422
:10055000479437942794C3CFFA85EA892B893C893D
:100560008B859C85280F391F2E5F3F4F17C0CA010E
:1005700081709070892B61F016950795F794E79438
:1005800080E090E0A0E0B0E8E82AF92A0A2B1B2BD3
:1005900076956795579547952F5F3F4F77FDE7CF46
:1005A0000CC0440F551F661F771F17FD4160EE0CEE
:1005B000FF1C001F111F21503040403090E05907B0
:1005C00090E0690790E4790760F32B8F3C8FDB01A3
:1005D000CA018F779070A070B07080349105A1052A
:1005E000B10561F447FD0AC0E114F10401051105EC
:1005F00029F0405C5F4F6F4F7F4F40781A8EFE1797
:1006000011F081E08A8F4D8F5E8F6F8F78A383E02A
:10061000898FCE0149960E94A104A096E2E10C9434
:100620004A14A8E1B0E0E7E1F3E00C9436146983E2
:100630007A838B839C832D833E834F835887B9E0D5
:10064000EB2EF12CEC0EFD1ECE010196B7010E949F
:1006500076058E010F5E1F4FCE010596B8010E94F0
:1006600076052985223008F47EC03989323010F4AD
:10067000B8017CC08A859A8989278A87243011F03D
:10068000223031F4231709F06EC060E670E06EC0CE
:10069000343039F41D861E861F86188A1C861B86F8
:1006A00004C0323021F484E08987B7015FC02B8514
:1006B0003C858B899C89281B390B3C872B87ED84D3
:1006C000FE840F851889AD88BE88CF88D88CEA143F
:1006D000FB040C051D0540F4EE0CFF1C001F111F50
:1006E000215030403C872B8720E030E040E050E054
:1006F00080E090E0A0E0B0E460E070E0EA14FB0489
:100700000C051D0540F0282B392B4A2B5B2BEA18D2
:10071000FB080C091D09B695A79597958795EE0CD2
:10072000FF1C001F111F6F5F7F4F6F31710531F785
:10073000DA01C9018F779070A070B0708034910594
:10074000A105B10561F427FD0AC0E114F10401051A
:10075000110529F0205C3F4F4F4F5F4F20782D87C8
:100760003E874F87588BBE01675F7F4FCB010E944A
:10077000A1046896EAE00C945214A8E1B0E0E3EC1E
:10078000F3E00C943A1469837A838B839C832D83E2
:100790003E834F83588789E0E82EF12CEC0EFD1E36
:1007A000CE010196B7010E9476058E010F5E1F4FA4
:1007B000CE010596B8010E9476058985823040F009
:1007C0008989823028F0C701B8010E94EE0501C076
:1007D0008FEF6896E6E00C945614A8E1B0E0E3EFE2
:1007E000F3E00C943A1469837A838B839C832D8382
:1007F0003E834F83588789E0E82EF12CEC0EFD1ED6
:10080000CE010196B7010E9476058E010F5E1F4F43
:10081000CE010596B8010E9476058985823040F0A8
:100820008989823028F0C701B8010E94EE0501C015
:100830008FEF6896E6E00C945614A8E1B0E0E3E28E
:10084000F4E00C943A1469837A838B839C832D8320
:100850003E834F83588789E0E82EF12CEC0EFD1E75
:10086000CE010196B7010E9476058E010F5E1F4FE3
:10087000CE010596B8010E9476058985823040F048
:100880008989823028F0C701B8010E94EE0501C0B5
:1008900081E06896E6E00C945614ACE0B0E0E3E545
:1008A000F4E00C943E1469837A838B839C83CE019D
:1008B0000196BE016B5F7F4F0E9476058D8182306D
:1008C00061F1823050F1843021F48E81882351F11E
:1008D0002EC02F81388537FD20C06E812F31310524
:1008E0001CF06623F9F023C08EE190E0821B930B8D
:1008F00029853A854B855C8504C056954795379583
:1009000027958A95D2F76623B1F05095409530959A
:1009100021953F4F4F4F5F4F0EC020E030E040E049
:1009200050E009C02FEF3FEF4FEF5FE704C020E03A
:1009300030E040E050E8B901CA012C96E2E00C94A6
:100940005A14DF92EF92FF920F931F93FC01E48001
:10095000F58006811781D1808081823048F480E063
:1009600090E0A0E1B0E0E82AF92A0A2B1B2BA5C0F1
:10097000843009F49FC0823021F4EE24FF248701E3
:1009800005C0E114F1040105110519F4E0E0F0E0FF
:1009900096C0628173819FEF623879070CF05BC06B
:1009A00022E83FEF261B370B2A3131052CF020E0DF
:1009B00030E040E050E02AC0B801A701022E04C098
:1009C00076956795579547950A94D2F781E090E020
:1009D000A0E0B0E004C0880F991FAA1FBB1F2A9592
:1009E000D2F70197A109B1098E219F21A023B1233C
:1009F0000097A105B10521F081E090E0A0E0B0E012
:100A00009A01AB01282B392B4A2B5B2BDA01C90148
:100A10008F779070A070B07080349105A105B105FA
:100A200039F427FF09C0205C3F4F4F4F5F4F04C090
:100A3000215C3F4F4F4F5F4FE0E0F0E02030A0E0FF
:100A40003A07A0E04A07A0E45A0710F0E1E0F0E01E
:100A500079018A0127C06038710564F5FB01E1580E
:100A6000FF4FD801C7018F779070A070B0708034AD
:100A70009105A105B10539F4E7FE0DC080E490E0D1
:100A8000A0E0B0E004C08FE390E0A0E0B0E0E80EAA
:100A9000F91E0A1F1B1F17FF05C016950795F7942F
:100AA000E794319687E016950795F794E7948A9531
:100AB000D1F705C0EE24FF248701EFEFF0E06E2FA1
:100AC000679566276795902F9F77D794DD24D794F5
:100AD0008E2F8695492F462B582F5D29B701CA01C5
:100AE0001F910F91FF90EF90DF900895FC01DB01C3
:100AF000408151812281622F6F7770E0221F22276F
:100B0000221F9381892F880F822B282F30E0991F75
:100B10009927991F11969C93119721153105A9F5D5
:100B2000411551056105710511F482E037C082E875
:100B30009FEF13969C938E9312979A01AB0167E0F7
:100B4000220F331F441F551F6A95D1F783E08C9302
:100B50000DC0220F331F441F551F12968D919C917B
:100B60001397019713969C938E931297203080E0F1
:100B7000380780E0480780E4580758F314962D930F
:100B80003D934D935C93179708952F3F310579F46A
:100B9000411551056105710519F484E08C930895A0
:100BA00064FF03C081E08C9312C01C9210C02F57C9
:100BB000304013963C932E93129783E08C9387E0FA
:100BC000440F551F661F771F8A95D1F770641496DE
:100BD0004D935D936D937C93179708951F93DC015C
:100BE000FB019C91923008F447C08081823008F468
:100BF00043C0943051F411961C91843099F5818151
:100C0000682F70E0611B71093FC0843021F0923081
:100C100031F48230B9F18181882389F12DC0119698
:100C20001C9111978230F1F081811817D9F4129636
:100C30002D913C911397828193818217930794F0B1
:100C400028173907BCF014968D919D910D90BC9199
:100C5000A02D2481358146815781281739074A07FD
:100C60005B0718F4112341F00AC082179307A40709
:100C7000B50740F4112319F061E070E005C06FEF93
:100C80007FEF02C060E070E0CB011F910895DF9319
:100C9000CF9300D000D00F92CDB7DEB789836A839F
:100CA0004B838981282F30E03D832C838C819D816B
:100CB0008130910509F443C02C813D8122303105FA
:100CC0002CF48C819D81009771F0BCC02C813D81FA
:100CD0002230310509F45FC08C819D8183309105FC
:100CE00009F485C0AFC08B818130A1F4AAE3B0E0E4
:100CF000EAE3F0E08081482F8A81282F30E081E00C
:100D000090E0022E02C0880F991F0A94E2F7842B0C
:100D10008C9398C0AAE3B0E0EAE3F0E08081482F2A
:100D20008A81282F30E081E090E0022E02C0880FF7
:100D3000991F0A94E2F7809584238C9383C08B815A
:100D40008130A1F4A7E3B0E0E7E3F0E08081482F31
:100D50008A81282F30E081E090E0022E02C0880FC7
:100D6000991F0A94E2F7842B8C936CC0A7E3B0E040
:100D7000E7E3F0E08081482F8A81282F30E081E08E
:100D800090E0022E02C0880F991F0A94E2F7809526
:100D900084238C9357C08B818130A1F4A4E3B0E00D
:100DA000E4E3F0E08081482F8A81282F30E081E061
:100DB00090E0022E02C0880F991F0A94E2F7842B5C
:100DC0008C9340C0A4E3B0E0E4E3F0E08081482FDE
:100DD0008A81282F30E081E090E0022E02C0880F47
:100DE000991F0A94E2F7809584238C932BC08B8102
:100DF0008130A1F4A1E3B0E0E1E3F0E08081482F8D
:100E00008A81282F30E081E090E0022E02C0880F16
:100E1000991F0A94E2F7842B8C9314C0A1E3B0E0ED
:100E2000E1E3F0E08081482F8A81282F30E081E0E3
:100E300090E0022E02C0880F991F0A94E2F7809575
:100E400084238C930F900F900F900F900F90CF9161
:100E5000DF910895DF93CF9300D000D00F92CDB7EC
:100E6000DEB789836A834B838981282F30E03D83F5
:100E70002C838C819D818130910509F443C02C81A4
:100E80003D81223031052CF48C819D81009771F0D9
:100E9000BCC02C813D812230310509F45FC08C81BA
:100EA0009D818330910509F485C0AFC08B81882373
:100EB000A9F4ABE3B0E0EBE3F0E08081482F8A8156
:100EC000282F30E081E090E0022E02C0880F991FA9
:100ED0000A94E2F7809584238C9397C0ABE3B0E04B
:100EE000EBE3F0E08081482F8A81282F30E081E019
:100EF00090E0022E02C0880F991F0A94E2F7842B1B
:100F00008C9383C08B818823A9F4A8E3B0E0E8E345
:100F1000F0E08081482F8A81282F30E081E090E046
:100F2000022E02C0880F991F0A94E2F7809584234D
:100F30008C936BC0A8E3B0E0E8E3F0E08081482F39
:100F40008A81282F30E081E090E0022E02C0880FD5
:100F5000991F0A94E2F7842B8C9357C08B818823C6
:100F6000A9F4A5E3B0E0E5E3F0E08081482F8A81B1
:100F7000282F30E081E090E0022E02C0880F991FF8
:100F80000A94E2F7809584238C933FC0A5E3B0E0F8
:100F9000E5E3F0E08081482F8A81282F30E081E06E
:100FA00090E0022E02C0880F991F0A94E2F7842B6A
:100FB0008C932BC08B818823A9F4A2E3B0E0E2E3F9
:100FC000F0E08081482F8A81282F30E081E090E096
:100FD000022E02C0880F991F0A94E2F7809584239D
:100FE0008C9313C0A2E3B0E0E2E3F0E08081482FED
:100FF0008A81282F30E081E090E0022E02C0880F25
:10100000991F0A94E2F7842B8C930F900F900F9006
:101010000F900F90CF91DF910895DF93CF9300D081
:101020000F92CDB7DEB789836A834B830F900F9001
:101030000F90CF91DF910895DF93CF9300D000D030
:10104000CDB7DEB789836A838981282F30E03C835E
:101050002B838B819C818130910549F12B813C81CF
:10106000223031052CF48B819C81009761F05AC0AD
:101070002B813C812230310571F18B819C81833041
:101080009105E9F14FC0ABE3B0E0EBE3F0E0808124
:10109000482F8A81282F30E081E090E0022E02C0A4
:1010A000880F991F0A94E2F784278C933BC0A8E32A
:1010B000B0E0E8E3F0E08081482F8A81282F30E01B
:1010C00081E090E0022E02C0880F991F0A94E2F797
:1010D00084278C9327C0A5E3B0E0E5E3F0E08081AE
:1010E000482F8A81282F30E081E090E0022E02C054
:1010F000880F991F0A94E2F784278C9313C0A2E308
:10110000B0E0E2E3F0E08081482F8A81282F30E0D0
:1011100081E090E0022E02C0880F991F0A94E2F746
:1011200084278C930F900F900F900F90CF91DF91A9
:101130000895DF93CF9300D000D00F92CDB7DEB7E4
:101140008A836B8319828A81282F30E03D832C8328
:101150004C815D814130510541F18C819D8182300E
:10116000910534F42C813D812115310561F052C087
:101170004C815D814230510551F18C819D818330DC
:101180009105B9F147C0E9E3F0E08081282F30E014
:101190008B81882F90E0A90102C0559547958A95CB
:1011A000E2F7CA018170898335C0E6E3F0E080810F
:1011B000282F30E08B81882F90E0A90102C055953F
:1011C00047958A95E2F7CA018170898323C0E3E3DA
:1011D000F0E08081282F30E08B81882F90E0A901FA
:1011E00002C0559547958A95E2F7CA0181708983B7
:1011F00011C0E0E3F0E08081282F30E08B81882F60
:1012000090E0A90102C0559547958A95E2F7CA0179
:101210008170898389810F900F900F900F900F90AC
:10122000CF91DF910895DF93CF9300D000D0CDB759
:10123000DEB789836A838981282F30E03C832B8342
:101240008B819C818130910549F12B813C81223039
:1012500031052CF48B819C81009761F05AC02B8161
:101260003C812230310571F18B819C818330910565
:10127000E9F14FC0ABE3B0E0EBE3F0E08081482F51
:101280008A81282F30E081E090E0022E02C0880F92
:10129000991F0A94E2F7842B8C933BC0A8E3B0E03B
:1012A000E8E3F0E08081482F8A81282F30E081E058
:1012B00090E0022E02C0880F991F0A94E2F7842B57
:1012C0008C9327C0A5E3B0E0E5E3F0E08081482FF0
:1012D0008A81282F30E081E090E0022E02C0880F42
:1012E000991F0A94E2F7842B8C9313C0A2E3B0E019
:1012F000E2E3F0E08081482F8A81282F30E081E00E
:1013000090E0022E02C0880F991F0A94E2F7842B06
:101310008C930F900F900F900F90CF91DF910895C5
:10132000DF93CF93CDB7DEB7A6970FB6F894DEBFA5
:101330000FBECDBF80E062E041E00E942A0780E05E
:1013400090E0A0E8BFE38BA39CA3ADA3BEA36BA1D9
:101350007CA18DA19EA12BEA3AEA4AEA50E40E94C0
:101360001702DC01CB018F8F98A3A9A3BAA36F8DBD
:1013700078A189A19AA120E030E040E85FE30E94D3
:101380001D0488231CF481E08E8F91C06F8D78A19D
:1013900089A19AA120E030E04FE753E40E94BD0309
:1013A00018160CF07BC06BA17CA18DA19EA120E042
:1013B00030E04AE754E40E941103DC01CB018A8F3C
:1013C0009B8FAC8FBD8F6A8D7B8D8C8D9D8D20E02A
:1013D00030E04AE755E40E941702DC01CB018E8B16
:1013E0009F8BA88FB98F6E897F89888D998D20E01A
:1013F00030E040E85FE30E941D0488232CF481E084
:1014000090E09D8B8C8B3FC06E897F89888D998DF4
:1014100020E03FEF4FE757E40E94BD0318164CF55C
:101420006A8D7B8D8C8D9D8D20E030E040E251E413
:101430000E941702DC01CB01BC01CD010E944100DA
:10144000DC01CB019D8B8C8B0FC080E991E09B8BE5
:101450008A8B8A899B890197F1F79B8B8A8B8C8970
:101460009D8901979D8B8C8B8C899D89009769F74D
:1014700024C06E897F89888D998D0E944100DC018E
:10148000CB019D8B8C8B8C899D89998B888B8889CE
:1014900099890197F1F7998B888B0FC06F8D78A18F
:1014A00089A19AA10E944100DC01CB018E8F8E8D13
:1014B0008F878F858A95F1F78F8780E062E040E023
:1014C0000E942A0780E090E0A0E0B0E48B879C8730
:1014D000AD87BE876B857C858D859E8520E030E05D
:1014E0004AE755E40E941702DC01CB018F839887FD
:1014F000A987BA876F81788589859A8520E030E051
:1015000040E85FE30E941D0488232CF481E090E012
:101510009E838D833FC06F81788589859A8520E081
:101520003FEF4FE757E40E94BD0318164CF56B855B
:101530007C858D859E8520E030E040E251E40E946C
:101540001702DC01CB01BC01CD010E944100DC018E
:10155000CB019E838D830FC080E991E09C838B83B8
:101560008B819C810197F1F79C838B838D819E8178
:1015700001979E838D838D819E81009769F714C0AA
:101580006F81788589859A850E944100DC01CB01B5
:101590009E838D838D819E819A83898389819A819F
:1015A0000197F1F79A838983A6960FB6F894DEBF68
:1015B0000FBECDBFCF91DF910895DF93CF93CDB70D
:1015C000DEB7E4970FB6F894DEBF0FBECDBF80E064
:1015D00063E041E00E94470680E062E041E00E9453
:1015E000470681E060E041E00E94470681E061E05B
:1015F00041E00E94470681E062E041E00E94470628
:1016000081E064E041E00E94470680E090E0A0EACB
:10161000B1E489AB9AABABABBCAB69A97AA98BA996
:101620009CA920E030E04AE755E40E941702DC0163
:10163000CB018DA79EA7AFA7B8AB6DA57EA58FA543
:1016400098A920E030E040E85FE30E941D04882371
:101650002CF481E090E09CA78BA73FC06DA57EA5F0
:101660008FA598A920E03FEF4FE757E40E94BD0304
:1016700018164CF569A97AA98BA99CA920E030E03D
:1016800040E251E40E941702DC01CB01BC01CD0114
:101690000E944100DC01CB019CA78BA70FC080E911
:1016A00091E09AA789A789A59AA50197F1F79AA72A
:1016B00089A78BA59CA501979CA78BA78BA59CA50B
:1016C000009769F714C06DA57EA58FA598A90E9403
:1016D0004100DC01CB019CA78BA78BA59CA598A7FB
:1016E0008FA38FA198A50197F1F798A78FA383E007
:1016F0000E94CA0C80E090E0A0EAB0E48BA39CA317
:10170000ADA3BEA36BA17CA18DA19EA120E030E082
:101710004AE755E40E941702DC01CB018F8F98A3A2
:10172000A9A3BAA36F8D78A189A19AA120E030E086
:1017300040E85FE30E941D0488232CF481E090E0E0
:101740009E8F8D8F3FC06F8D78A189A19AA120E0D7
:101750003FEF4FE757E40E94BD0318164CF56BA10D
:101760007CA18DA19EA120E030E040E251E40E94E6
:101770001702DC01CB01BC01CD010E944100DC015C
:10178000CB019E8F8D8F0FC080E991E09C8F8B8F56
:101790008B8D9C8D0197F1F79C8F8B8F8D8D9E8DFE
:1017A00001979E8F8D8F8D8D9E8D009769F714C048
:1017B0006F8D78A189A19AA10E944100DC01CB0123
:1017C0009E8F8D8F8D8D9E8D9A8F898F898D9A8D0D
:1017D0000197F1F79A8F898F83E00E94CA0C80E00D
:1017E00090E0A8ECB2E48D8B9E8BAF8BB88F6D89A7
:1017F0007E898F89988D2BEA3AEA4AEA50E40E9462
:101800001702DC01CB01898B9A8BAB8BBC8B69896E
:101810007A898B899C8920E030E040E85FE30E9470
:101820001D0488231CF481E0888B91C069897A8922
:101830008B899C8920E030E04FE753E40E94BD0390
:1018400018160CF07BC06D897E898F89988D20E0F9
:1018500030E04AE754E40E941103DC01CB018C879D
:101860009D87AE87BF876C857D858E859F8520E0AF
:1018700030E04AE755E40E941702DC01CB0188877B
:101880009987AA87BB87688579858A859B8520E0AB
:1018900030E040E85FE30E941D0488232CF481E0DF
:1018A00090E09F838E833FC0688579858A859B857C
:1018B00020E03FEF4FE757E40E94BD0318164CF5B8
:1018C0006C857D858E859F8520E030E040E251E487
:1018D0000E941702DC01CB01BC01CD010E94410036
:1018E000DC01CB019F838E830FC080E991E09D8353
:1018F0008C838C819D810197F1F79D838C838E81F0
:101900009F8101979F838E838E819F81009769F7C6
:1019100024C0688579858A859B850E944100DC0109
:10192000CB019F838E838E819F819B838A838A8153
:101930009B810197F1F79B838A830FC069897A891C
:101940008B899C890E944100DC01CB01888B8889AE
:10195000898389818A95F1F7898383E00E94CA0C83
:1019600082E00E94CA0C88E20E94CA0C8CE00E94AD
:10197000CA0C0E94780E0E94B50E80E060E00E94C2
:101980000E0EE4960FB6F894DEBF0FBECDBFCF911A
:10199000DF910895DF93CF93CDB7DEB72F970FB6C2
:1019A000F894DEBF0FBECDBF8F8780E090E0A0E847
:1019B000BFE38B879C87AD87BE876B857C858D85D4
:1019C0009E8520E030E04AE755E40E941702DC01E2
:1019D000CB018F839887A987BA876F81788589859E
:1019E0009A8520E030E040E85FE30E941D048823F0
:1019F0002CF481E090E09E838D833FC06F817885D9
:101A000089859A8520E03FEF4FE757E40E94BD03A8
:101A100018164CF56B857C858D859E8520E030E021
:101A200040E251E40E941702DC01CB01BC01CD0170
:101A30000E944100DC01CB019E838D830FC080E9B1
:101A400091E09C838B838B819C810197F1F79C8330
:101A50008B838D819E8101979E838D838D819E8155
:101A6000009769F714C06F81788589859A850E94EF
:101A70004100DC01CB019E838D838D819E819A8301
:101A8000898389819A810197F1F79A83898380E01C
:101A900063E040E00E942A078F8582958F70982F1F
:101AA000917081E060E0492F0E942A078F8582951E
:101AB00086958770982F917081E061E0492F0E9490
:101AC0002A078F858295869586958370982F9170C9
:101AD00081E062E0492F0E942A078F85982F991F85
:101AE0009927991F81E064E0492F0E942A070E94EC
:101AF00090098F85982F917081E060E0492F0E94B6
:101B00002A078F858695982F917081E061E0492F93
:101B10000E942A078F8586958695982F917081E07F
:101B200062E0492F0E942A078F85869586958695C3
:101B3000982F917081E064E0492F0E942A070E944B
:101B400090092F960FB6F894DEBF0FBECDBFCF9190
:101B5000DF910895DF93CF930F92CDB7DEB78983DE
:101B600080E063E041E00E942A07898182958F70BE
:101B7000982F917081E060E0492F0E942A078981A7
:101B8000829586958770982F917081E061E0492F4A
:101B90000E942A0789818295869586958370982F61
:101BA000917081E062E0492F0E942A078981982F75
:101BB000991F9927991F81E064E0492F0E942A0705
:101BC0000E9490098981982F917081E060E0492FEF
:101BD0000E942A0789818695982F917081E061E0A3
:101BE000492F0E942A07898186958695982F9170A2
:101BF00081E062E0492F0E942A07898186958695B7
:101C00008695982F917081E064E0492F0E942A0701
:101C10000E9490090F90CF91DF910895DF93CF93A9
:101C200000D000D0CDB7DEB789836A838981282FA1
:101C300030E03C832B838B819C8181309105D1F0F6
:101C40002B813C81223031052CF48B819C810097C3
:101C500061F01EC02B813C812230310581F08B81E7
:101C60009C818330910581F013C08A8180580E9445
:101C7000CA0C0EC08A8180540E94CA0C09C08A8195
:101C80008C560E94CA0C04C08A818C520E94CA0CD5
:101C90000F900F900F900F90CF91DF910895DF93E9
:101CA000CF930F92CDB7DEB7898389810E94AA0DA9
:101CB0000F90CF91DF910895DF93CF9300D0CDB7F0
:101CC000DEB79A8389830AC0E981FA8180810E9404
:101CD0004F0E89819A8101969A838983E981FA81DD
:101CE0008081882389F70F900F90CF91DF9108951D
:101CF000DF93CF9300D0CDB7DEB71A821982198255
:101D00002CC08981882F90E00896880F991F880F32
:101D1000991F880F991F0E94CA0C1A8218C08981C6
:101D2000482F50E08A81282F30E0CA01880F991F80
:101D3000880F991F880F991F820F931FFC01E85984
:101D4000FF4F80810E944F0E8A818F5F8A838A8134
:101D5000883028F389818F5F89838981883088F270
:101D60000F900F90CF91DF910895DF93CF93CDB770
:101D7000DEB72E970FB6F894DEBF0FBECDBF81E061
:101D80000E94CA0C80E090E0A0EAB0E48B879C87B8
:101D9000AD87BE876B857C858D859E8520E030E094
:101DA0004AE755E40E941702DC01CB018F83988734
:101DB000A987BA876F81788589859A8520E030E088
:101DC00040E85FE30E941D0488232CF481E090E04A
:101DD0009E838D833FC06F81788589859A8520E0B9
:101DE0003FEF4FE757E40E94BD0318164CF56B8593
:101DF0007C858D859E8520E030E040E251E40E94A4
:101E00001702DC01CB01BC01CD010E944100DC01C5
:101E1000CB019E838D830FC080E991E09C838B83EF
:101E20008B819C810197F1F79C838B838D819E81AF
:101E300001979E838D838D819E81009769F714C0E1
:101E40006F81788589859A850E944100DC01CB01EC
:101E50009E838D838D819E819A83898389819A81D6
:101E60000197F1F79A8389832E960FB6F894DEBF17
:101E70000FBECDBFCF91DF910895DF93CF9300D0F8
:101E80000F92CDB7DEB789838981282F30E03B835D
:101E90002A838A819B8181309105D9F02A813B81F7
:101EA000223031052CF48A819B81009761F022C099
:101EB0002A813B8122303105C1F08A819B818330A8
:101EC000910569F017C081E067E041E00E94470694
:101ED00011C080E066E041E00E9447060BC080E050
:101EE00064E041E00E94470605C080E065E041E013
:101EF0000E9447060F900F900F90CF91DF910895A9
:101F0000DF93CF9300D00F92CDB7DEB7898389815D
:101F1000282F30E03B832A838A819B818130910581
:101F2000D9F02A813B81223031052CF48A819B81B2
:101F3000009761F022C02A813B8122303105C1F037
:101F40008A819B818330910569F017C081E067E049
:101F500041E00E942A0711C080E066E041E00E9453
:101F60002A070BC080E064E041E00E942A0705C018
:101F700080E065E041E00E942A070F900F900F90EB
:101F8000CF91DF910895DF93CF9300D00F92CDB71B
:101F9000DEB789838981282F30E03B832A838A81B9
:101FA0009B8181309105D9F02A813B812230310516
:101FB0002CF48A819B81009761F022C02A813B81A9
:101FC00022303105C1F08A819B818330910569F00F
:101FD00017C081E067E040E00E942A0711C080E05E
:101FE00066E040E00E942A070BC080E064E040E029
:101FF0000E942A0705C080E065E040E00E942A07B1
:102000000F900F900F90CF91DF910895DF93CF93B2
:1020100000D00F92CDB7DEB789838981282F30E0B9
:102020003B832A838A819B8181309105D1F02A816B
:102030003B81223031052CF48A819B81009761F02D
:102040001EC02A813B8122303105A9F08A819B8103
:102050008330910559F013C081E067E00E941C08AD
:102060000EC080E066E00E941C0809C080E064E0C9
:102070000E941C0804C080E065E00E941C080F90CC
:102080000F900F90CF91DF910895DF93CF9300D001
:102090000F92CDB7DEB789838981282F30E03B834B
:1020A0002A838A819B8181309105F9F02A813B81C5
:1020B000223031052CF48A819B81009761F032C077
:1020C0002A813B8122303105D1F08A819B81833086
:1020D0009105F9F027C083E063E040E00E944706E5
:1020E00083E063E00E9413091DC083E065E040E0E7
:1020F0000E94470683E065E00E94130913C083E055
:1021000066E040E00E94470683E066E00E94130913
:1021100009C083E067E040E00E94470683E067E093
:102120000E9413090F900F900F90CF91DF910895A7
:10213000DF93CF93CDB7DEB7EC970FB6F894DEBF41
:102140000FBECDBF8AAF81E089AF8AAD282F30E0C6
:102150003CAF2BAF8BAD9CAD8130910509F498C09D
:102160002BAD3CAD223031052CF48BAD9CAD0097EE
:1021700071F010C22BAD3CAD2230310509F409C11C
:102180008BAD9CAD8330910509F484C103C283E01B
:1021900063E00E94990889AF89AD882309F0FAC1EC
:1021A00080E090E0A8ECB2E48DAB9EABAFABB8AFF3
:1021B0006DA97EA98FA998AD20E030E04AE755E4EB
:1021C0000E941702DC01CB0189AB9AABABABBCAB75
:1021D00069A97AA98BA99CA920E030E040E85FE3D7
:1021E0000E941D0488232CF481E090E098AB8FA717
:1021F0003FC069A97AA98BA99CA920E03FEF4FE7CE
:1022000057E40E94BD0318164CF56DA97EA98FA94D
:1022100098AD20E030E040E251E40E941702DC017A
:10222000CB01BC01CD010E944100DC01CB0198AB88
:102230008FA70FC080E991E09EA78DA78DA59EA5D1
:102240000197F1F79EA78DA78FA598A9019798AB45
:102250008FA78FA598A9009769F714C069A97AA9D3
:102260008BA99CA90E944100DC01CB0198AB8FA7F0
:102270008FA598A99CA78BA78BA59CA50197F1F783
:102280009CA78BA783E063E00E94990889AF82C175
:1022900083E065E00E94990889AF89AD882309F041
:1022A00079C180E090E0A8ECB2E48FA398A7A9A739
:1022B000BAA76FA178A589A59AA520E030E04AE7E2
:1022C00055E40E941702DC01CB018BA39CA3ADA3B4
:1022D000BEA36BA17CA18DA19EA120E030E040E8CF
:1022E0005FE30E941D0488232CF481E090E09AA310
:1022F00089A33FC06BA17CA18DA19EA120E03FEFEF
:102300004FE757E40E94BD0318164CF56FA178A55E
:1023100089A59AA520E030E040E251E40E9417022E
:10232000DC01CB01BC01CD010E944100DC01CB01ED
:102330009AA389A30FC080E991E098A38F8F8F8D16
:1023400098A10197F1F798A38F8F89A19AA101977E
:102350009AA389A389A19AA1009769F714C06BA1D8
:102360007CA18DA19EA10E944100DC01CB019AA31A
:1023700089A389A19AA19E8F8D8F8D8D9E8D0197A6
:10238000F1F79E8F8D8F83E065E00E94990889AFF9
:1023900001C183E066E00E94990889AF89AD882376
:1023A00009F0F8C080E090E0A8ECB2E4898F9A8F41
:1023B000AB8FBC8F698D7A8D8B8D9C8D20E030E04A
:1023C0004AE755E40E941702DC01CB018D8B9E8BFE
:1023D000AF8BB88F6D897E898F89988D20E030E032
:1023E00040E85FE30E941D0488232CF481E090E024
:1023F0009C8B8B8B3FC06D897E898F89988D20E067
:102400003FEF4FE757E40E94BD0318164CF5698D66
:102410007A8D8B8D9C8D20E030E040E251E40E946B
:102420001702DC01CB01BC01CD010E944100DC019F
:10243000CB019C8B8B8B0FC080E991E09A8B898BB1
:1024400089899A890197F1F79A8B898B8B899C8965
:1024500001979C8B8B8B8B899C89009769F714C0A3
:102460006D897E898F89988D0E944100DC01CB01A6
:102470009C8B8B8B8B899C89988B8F878F85988978
:102480000197F1F7988B8F8783E066E00E949908A7
:1024900089AF80C083E067E00E94990889AF89AD69
:1024A000882309F077C080E090E0A8ECB2E48B8745
:1024B0009C87AD87BE876B857C858D859E8520E05A
:1024C00030E04AE755E40E941702DC01CB018F831C
:1024D0009887A987BA876F81788589859A8520E052
:1024E00030E040E85FE30E941D0488232CF481E083
:1024F00090E09E838D833FC06F81788589859A8522
:1025000020E03FEF4FE757E40E94BD0318164CF55B
:102510006B857C858D859E8520E030E040E251E42E
:102520000E941702DC01CB01BC01CD010E944100D9
:10253000DC01CB019E838D830FC080E991E09C83F9
:102540008B838B819C810197F1F79C838B838D8199
:102550009E8101979E838D838D819E81009769F76F
:1025600014C06F81788589859A850E944100DC01BD
:10257000CB019E838D838D819E819A8389838981FE
:102580009A810197F1F79A83898383E067E00E943B
:10259000990889AF89ADEC960FB6F894DEBF0FBEEF
:1025A000CDBFCF91DF910895DF93CF93CDB7DEB745
:1025B000A3970FB6F894DEBF0FBECDBF80E00E9498
:1025C0003D0F82E066E041E00E94470680E00E9405
:1025D000451081E00E94451082E00E9445101BA238
:1025E0001AA219A218A281E08F8F81E08E8F81E05C
:1025F0008D8F80E00E9498108F8F81E00E9498104C
:102600008E8F82E00E9498108D8F8F8D882339F4F1
:102610008BA18F5F8BA388A18F5F88A31AC18E8D3A
:10262000882339F48AA18F5F8AA388A18F5F88A34A
:1026300010C18D8D882309F00CC189A18F5F89A3FA
:1026400088A18F5F88A305C18BA1823009F081C06A
:102650008AA1813009F07DC089A1833009F079C059
:1026600080E00E94800F80E090E0AAEFB3E4898FC1
:102670009A8FAB8FBC8F698D7A8D8B8D9C8D20E06E
:1026800030E04AE755E40E941702DC01CB018D8B54
:102690009E8BAF8BB88F6D897E898F89988D20E056
:1026A00030E040E85FE30E941D0488232CF481E0C1
:1026B00090E09C8B8B8B3FC06D897E898F89988D34
:1026C00020E03FEF4FE757E40E94BD0318164CF59A
:1026D000698D7A8D8B8D9C8D20E030E040E251E455
:1026E0000E941702DC01CB01BC01CD010E94410018
:1026F000DC01CB019C8B8B8B0FC080E991E09A8B26
:10270000898B89899A890197F1F79A8B898B8B89B3
:102710009C8901979C8B8B8B8B899C89009769F78F
:1027200014C06D897E898F89988D0E944100DC01DB
:10273000CB019C8B8B8B8B899C89988B8F878F850A
:1027400098890197F1F7988B8F8780E00E94C30FDB
:102750007CC082E066E041E00E942A0780E090E0D1
:10276000AAEFB3E48B879C87AD87BE876B857C859A
:102770008D859E8520E030E04AE755E40E941702EF
:10278000DC01CB018F839887A987BA876F81788511
:1027900089859A8520E030E040E85FE30E941D04CF
:1027A00088232CF481E090E09E838D833FC06F816D
:1027B000788589859A8520E03FEF4FE757E40E94AE
:1027C000BD0318164CF56B857C858D859E8520E0B4
:1027D00030E040E251E40E941702DC01CB01BC0171
:1027E000CD010E944100DC01CB019E838D830FC08F
:1027F00080E991E09C838B838B819C810197F1F729
:102800009C838B838D819E8101979E838D838D8197
:102810009E81009769F714C06F81788589859A85B4
:102820000E944100DC01CB019E838D838D819E81BE
:102830009A83898389819A810197F1F79A838983A1
:1028400082E066E040E00E942A071BA21AA219A2B9
:1028500018A288A1863009F4F7CECBCE2F923F92F2
:102860004F925F926F927F928F929F92AF92BF92A0
:10287000CF92DF92EF92FF920F931F93CF93DF934C
:10288000CDB7DEB7CA1BDB0B0FB6F894DEBF0FBEA9
:10289000CDBF09942A88398848885F846E847D84F6
:1028A0008C849B84AA84B984C884DF80EE80FD80F8
:1028B0000C811B81AA81B981CE0FD11D0FB6F8946E
:0E28C000DEBF0FBECDBFED010895F894FFCF2F
:1028CE0000000000000000000A1F1F1F1F0E040062
:1028DE00041F11111111111F041F111111111F1FAE
:1028EE00041F1111111F1F1F041F11111F1F1F1F66
:1028FE00041F111F1F1F1F1F041F1F1F1F1F1F1F1E
:08290E0000000101050515158B
:00000001FF
