:100000000C942A000C9491090C94C4090C94F709DF
:100010000C9447000C9447000C9447000C94470044
:100020000C9447000C9447000C9447000C94470034
:100030000C9447000C94B6070C9447000C9480076E
:100040000C9447000C9447000C9447000C94470014
:100050000C94470011241FBECFE5D8E0DEBFCDBF12
:1000600010E0A0E6B0E0E8E8FDE202C005900D92E5
:10007000A83AB107D9F710E0A8EAB0E001C01D9294
:10008000A43EB107E1F70E94BE140C94C2160C9472
:100090000000EF92FF920F931F937B018C0120E0F1
:1000A00030E040E05FE40E94F50388238CF0C80153
:1000B000B70120E030E040E05FE40E94C1010E940F
:1000C00055049B01AC01205030404040504806C0D0
:1000D000C801B7010E9455049B01AC01B901CA01D6
:1000E0001F910F91FF90EF900895A0E0B0E0EBE733
:1000F000F0E00C948B16DC012B01FA019C919230FC
:1001000008F439C1EB018881823008F433C194309E
:1001100069F4843009F02FC111969C91119789815F
:10012000981709F428C1A0E6B0E025C1843009F48D
:1001300021C18230A9F4923009F01DC19A01AD01AC
:1001400088E0EA010990AE01E90109929E0181501F
:10015000C1F7E201898111969C918923818308C1AD
:10016000923009F407C112962D903C901397EB0141
:100170008A819B811496AD90BD90CD90DC901797AD
:10018000EC80FD800E811F819101281B390BB90184
:1001900037FF04C066277727621B730B6032710537
:1001A0000CF061C0121613066CF537014801062EDB
:1001B00004C096948794779467940A94D2F721E0C8
:1001C00030E040E050E004C0220F331F441F551FB1
:1001D0006A95D2F721503040404050402E213F21B7
:1001E00040235123211531054105510521F021E01E
:1001F00030E040E050E079018A01E628F72808293C
:1002000019293CC0232BD1F1260E371E350146019A
:10021000062E04C096948794779467940A94D2F734
:1002200021E030E040E050E004C0220F331F441FC3
:10023000551F6A95D2F721503040404050402A2146
:100240003B214C215D21211531054105510521F04E
:1002500021E030E040E050E059016A01A628B728CB
:10026000C828D9280BC0821593052CF01C01AA249C
:10027000BB24650103C0EE24FF24870111969C91E5
:10028000D20111968C91981709F445C0992339F041
:10029000A80197012A193B094C095D0906C0A6016E
:1002A00095012E193F09400B510B57FD08C01182D3
:1002B0003382228224833583468357831DC081E0A5
:1002C00081833382228288279927DC01821B930B4A
:1002D000A40BB50B84839583A683B7830DC0220F2F
:1002E000331F441F551F24833583468357838281E0
:1002F000938101979383828324813581468157813D
:10030000DA01C9010197A109B1098F5F9F4FAF4F72
:10031000BF4328F30BC0918333822282EA0CFB1C7B
:100320000C1D1D1DE482F5820683178383E0808304
:10033000248135814681578157FF1AC0C901AA27F8
:1003400097FDA095BA2F81709070A070B0705695EF
:10035000479537952795822B932BA42BB52B848318
:100360009583A683B7838281938101969383828349
:10037000DF0101C0D201CD01CDB7DEB7E2E10C94BF
:10038000A716A0E2B0E0E7ECF1E00C9497166983C1
:100390007A838B839C832D833E834F835887E9E048
:1003A000EE2EF12CEC0EFD1ECE010196B7010E943F
:1003B0007E058E010F5E1F4FCE010596B8010E948B
:1003C0007E058A8991E089278A8BC701B801AE0131
:1003D000475E5F4F0E9475000E94A904A096E6E068
:1003E0000C94B316A0E2B0E0E8EFF1E00C9497169D
:1003F00069837A838B839C832D833E834F835887C5
:10040000F9E0EF2EF12CEC0EFD1ECE010196B701A6
:100410000E947E058E010F5E1F4FCE010596B8012A
:100420000E947E05C701B801AE01475E5F4F0E9482
:1004300075000E94A904A096E6E00C94B316A0E211
:10044000B0E0E5E2F2E00C948B1669837A838B834B
:100450009C832D833E834F835887CE010196BE0136
:10046000675F7F4F0E947E05CE010596BE016F5EDD
:100470007F4F0E947E059985923088F0898982306D
:10048000C8F0943019F4823051F404C0843029F457
:10049000923081F480E690E0C6C0923049F420E0CA
:1004A0009A858A89981321E02A87CE010996BBC0D4
:1004B000823049F420E09A858A89981321E02A8BBA
:1004C000CE014196B0C02D843E844F8458886D88FB
:1004D0007E888F88988CEE24FF248701AA24BB2471
:1004E000650140E050E060E070E0E0E0F0E0C10174
:1004F00081709070892BE9F0E60CF71C081D191D1E
:100500009A01AB012A0D3B1D4C1D5D1D80E090E062
:10051000A0E0B0E0E614F7040805190520F481E036
:1005200090E0A0E0B0E0BA01A901480F591F6A1F8E
:100530007B1FAA0CBB1CCC1CDD1C97FE08C081E0F5
:1005400090E0A0E0B0E0A82AB92ACA2ADB2A3196B6
:10055000E032F10549F0660C771C881C991C569412
:10056000479437942794C3CFFA85EA892B893C892D
:100570008B859C85280F391F2E5F3F4F17C0CA01FE
:1005800081709070892B61F016950795F794E79428
:1005900080E090E0A0E0B0E8E82AF92A0A2B1B2BC3
:1005A00076956795579547952F5F3F4F77FDE7CF36
:1005B0000CC0440F551F661F771F17FD4160EE0CDE
:1005C000FF1C001F111F21503040403090E05907A0
:1005D00090E0690790E4790760F32B8F3C8FDB0193
:1005E000CA018F779070A070B07080349105A1051A
:1005F000B10561F447FD0AC0E114F10401051105DC
:1006000029F0405C5F4F6F4F7F4F40781A8EFE1786
:1006100011F081E08A8F4D8F5E8F6F8F78A383E01A
:10062000898FCE0149960E94A904A096E2E10C941C
:10063000A716A8E1B0E0EFE1F3E00C94931669830C
:100640007A838B839C832D833E834F835887B9E0C5
:10065000EB2EF12CEC0EFD1ECE010196B7010E948F
:100660007E058E010F5E1F4FCE010596B8010E94D8
:100670007E052985223008F47EC03989323010F495
:10068000B8017CC08A859A8989278A87243011F02D
:10069000223031F4231709F06EC060E670E06EC0BE
:1006A000343039F41D861E861F86188A1C861B86E8
:1006B00004C0323021F484E08987B7015FC02B8504
:1006C0003C858B899C89281B390B3C872B87ED84C3
:1006D000FE840F851889AD88BE88CF88D88CEA142F
:1006E000FB040C051D0540F4EE0CFF1C001F111F40
:1006F000215030403C872B8720E030E040E050E044
:1007000080E090E0A0E0B0E460E070E0EA14FB0478
:100710000C051D0540F0282B392B4A2B5B2BEA18C2
:10072000FB080C091D09B695A79597958795EE0CC2
:10073000FF1C001F111F6F5F7F4F6F31710531F775
:10074000DA01C9018F779070A070B0708034910584
:10075000A105B10561F427FD0AC0E114F10401050A
:10076000110529F0205C3F4F4F4F5F4F20782D87B8
:100770003E874F87588BBE01675F7F4FCB010E943A
:10078000A9046896EAE00C94AF16A8E1B0E0EBEC9F
:10079000F3E00C94971669837A838B839C832D8373
:1007A0003E834F83588789E0E82EF12CEC0EFD1E26
:1007B000CE010196B7010E947E058E010F5E1F4F8C
:1007C000CE010596B8010E947E058985823040F0F1
:1007D0008989823028F0C701B8010E94F60501C05E
:1007E0008FEF6896E6E00C94B316A8E1B0E0EBEF6B
:1007F000F3E00C94971669837A838B839C832D8313
:100800003E834F83588789E0E82EF12CEC0EFD1EC5
:10081000CE010196B7010E947E058E010F5E1F4F2B
:10082000CE010596B8010E947E058985823040F090
:100830008989823028F0C701B8010E94F60501C0FD
:100840008FEF6896E6E00C94B316A8E1B0E0EBE217
:10085000F4E00C94971669837A838B839C832D83B1
:100860003E834F83588789E0E82EF12CEC0EFD1E65
:10087000CE010196B7010E947E058E010F5E1F4FCB
:10088000CE010596B8010E947E058985823040F030
:100890008989823028F0C701B8010E94F60501C09D
:1008A00081E06896E6E00C94B316ACE0B0E0EBE5CE
:1008B000F4E00C949B1669837A838B839C83CE012E
:1008C0000196BE016B5F7F4F0E947E058D81823055
:1008D00061F1823050F1843021F48E81882351F10E
:1008E0002EC02F81388537FD20C06E812F31310514
:1008F0001CF06623F9F023C08EE190E0821B930B7D
:1009000029853A854B855C8504C056954795379572
:1009100027958A95D2F76623B1F05095409530958A
:1009200021953F4F4F4F5F4F0EC020E030E040E039
:1009300050E009C02FEF3FEF4FEF5FE704C020E02A
:1009400030E040E050E8B901CA012C96E2E00C9496
:10095000B716DF92EF92FF920F931F93FC01E48092
:10096000F58006811781D1808081823048F480E053
:1009700090E0A0E1B0E0E82AF92A0A2B1B2BA5C0E1
:10098000843009F49FC0823021F4EE24FF248701D3
:1009900005C0E114F1040105110519F4E0E0F0E0EF
:1009A00096C0628173819FEF623879070CF05BC05B
:1009B00022E83FEF261B370B2A3131052CF020E0CF
:1009C00030E040E050E02AC0B801A701022E04C088
:1009D00076956795579547950A94D2F781E090E010
:1009E000A0E0B0E004C0880F991FAA1FBB1F2A9582
:1009F000D2F70197A109B1098E219F21A023B1232C
:100A00000097A105B10521F081E090E0A0E0B0E001
:100A10009A01AB01282B392B4A2B5B2BDA01C90138
:100A20008F779070A070B07080349105A105B105EA
:100A300039F427FF09C0205C3F4F4F4F5F4F04C080
:100A4000215C3F4F4F4F5F4FE0E0F0E02030A0E0EF
:100A50003A07A0E04A07A0E45A0710F0E1E0F0E00E
:100A600079018A0127C06038710564F5FB01E158FE
:100A7000FF4FD801C7018F779070A070B07080349D
:100A80009105A105B10539F4E7FE0DC080E490E0C1
:100A9000A0E0B0E004C08FE390E0A0E0B0E0E80E9A
:100AA000F91E0A1F1B1F17FF05C016950795F7941F
:100AB000E794319687E016950795F794E7948A9521
:100AC000D1F705C0EE24FF248701EFEFF0E06E2F91
:100AD000679566276795902F9F77D794DD24D794E5
:100AE0008E2F8695492F462B582F5D29B701CA01B5
:100AF0001F910F91FF90EF90DF900895FC01DB01B3
:100B0000408151812281622F6F7770E0221F22275E
:100B1000221F9381892F880F822B282F30E0991F65
:100B20009927991F11969C93119721153105A9F5C5
:100B3000411551056105710511F482E037C082E865
:100B40009FEF13969C938E9312979A01AB0167E0E7
:100B5000220F331F441F551F6A95D1F783E08C93F2
:100B60000DC0220F331F441F551F12968D919C916B
:100B70001397019713969C938E931297203080E0E1
:100B8000380780E0480780E4580758F314962D93FF
:100B90003D934D935C93179708952F3F310579F45A
:100BA000411551056105710519F484E08C93089590
:100BB00064FF03C081E08C9312C01C9210C02F57B9
:100BC000304013963C932E93129783E08C9387E0EA
:100BD000440F551F661F771F8A95D1F770641496CE
:100BE0004D935D936D937C93179708951F93DC014C
:100BF000FB019C91923008F447C08081823008F458
:100C000043C0943051F411961C91843099F5818140
:100C1000682F70E0611B71093FC0843021F0923071
:100C200031F48230B9F18181882389F12DC0119688
:100C30001C9111978230F1F081811817D9F4129626
:100C40002D913C911397828193818217930794F0A1
:100C500028173907BCF014968D919D910D90BC9189
:100C6000A02D2481358146815781281739074A07ED
:100C70005B0718F4112341F00AC082179307A407F9
:100C8000B50740F4112319F061E070E005C06FEF83
:100C90007FEF02C060E070E0CB011F910895DF9309
:100CA000CF9300D0CDB7DEB79A838983E0E4F0E03C
:100CB00089819A81892F99278083E9E2F0E08981EF
:100CC0008083AAE2B0E0EAE2F0E0808180618C9368
:100CD000AAE2B0E0EAE2F0E0808188608C93A0E4D0
:100CE000B0E0E0E4F0E08081866A8C93AAE2B0E0B4
:100CF000EAE2F0E0808180688C93AAE2B0E0EAE268
:100D0000F0E0808180648C930F900F90CF91DF9101
:100D10000895DF93CF930F92CDB7DEB78983EBE2CF
:100D2000F0E080818295869587708130C1F7ECE292
:100D3000F0E0898180830F90CF91DF910895DF9358
:100D4000CF93CDB7DEB7EBE2F0E080818823DCF70C
:100D5000ECE2F0E08081CF91DF910895DF93CF93B3
:100D600000D0CDB7DEB79A8389830AC0E981FA81C2
:100D700080810E94890689819A8101969A8389835C
:100D8000E981FA818081882389F70F900F90CF91B4
:100D9000DF9108950F931F93DF93CF9300D00F92AD
:100DA000CDB7DEB79B838A8319828981282F30E0F3
:100DB0008A819B818C01020F131F0E949F06F801FC
:100DC00080838981282F30E08A819B81FC01E20F9A
:100DD000F31F8081833221F089818F5F8983E5CF82
:100DE0000F900F900F90CF91DF911F910F91089569
:100DF000DF93CF930F92CDB7DEB78983ECE2F0E0BB
:100E0000898180830F90CF91DF910895DF93CF93F5
:100E100000D00F92CDB7DEB79B838A831092A800D3
:100E200019821EC08981482F50E08981282F30E027
:100E30008A819B81FC01E20FF31F8081FA01EF544C
:100E4000FF4F80838981282F30E08A819B81FC01BC
:100E5000E20FF31F8081882331F089818F5F8983BE
:100E600089818931F8F2ACE2B0E08091A800882F46
:100E700090E0FC01EF54FF4F80818C930F900F9016
:100E80000F90CF91DF910895DF93CF93CDB7DEB769
:100E90008091CA00CF91DF910895DF93CF9300D066
:100EA0000F92CDB7DEB79B838A831092A900198277
:100EB0001CC08981282F30E08A819B81DC01A20F30
:100EC000B31F8981882F90E0FC01E553FF4F80819B
:100ED0008C938981882F90E0FC01E553FF4F80813E
:100EE000882331F089818F5F89838981893108F373
:100EF0001092CA000F900F900F90CF91DF9108953C
:100F00001F920F920FB60F9211248F939F93AF935E
:100F1000BF93EF93FF93DF93CF93CDB7DEB780916D
:100F2000A8008F5F8093A8008091A800882F90E090
:100F3000FC01EF54FF4F8081882359F0ACE2B0E010
:100F40008091A800882F90E0FC01EF54FF4F808132
:100F50008C93CF91DF91FF91EF91BF91AF919F91D2
:100F60008F910F900FBE0F901F9018951F920F92A8
:100F70000FB60F9211242F938F939F93EF93FF93AC
:100F8000DF93CF93CDB7DEB78091A900882F90E093
:100F9000ECE2F0E02081FC01E553FF4F20838091DB
:100FA000A900882F90E0FC01E553FF4F8081833238
:100FB00071F48091A900882F90E0FC01E553FF4F68
:100FC00010821092A90081E08093CA0005C0809130
:100FD000A9008F5F8093A900CF91DF91FF91EF91DE
:100FE0009F918F912F910F900FBE0F901F9018958A
:100FF000DF93CF93CDB7DEB781E065E041E00E949B
:101000002A0A81E064E041E00E942A0A81E067E068
:1010100041E00E942A0A81E066E040E00E942A0A3C
:1010200081E064E041E00E940D0BADE2B0E0EDE252
:10103000F0E0808180648C93ADE2B0E0EDE2F0E01E
:10104000808180618C93ADE2B0E0EDE2F0E08081E0
:101050008C93CF91DF910895DF93CF93CDB7DEB717
:1010600081E065E040E00E942A0A81E064E040E01F
:101070000E942A0A81E067E040E00E942A0A81E09B
:1010800066E041E00E942A0AADE2B0E0EDE2F0E065
:10109000808180648C93ADE2B0E0EDE2F0E080818D
:1010A0008F7E8C93CF91DF910895DF93CF9300D003
:1010B000CDB7DEB78A83EFE2F0E08A818083EEE28B
:1010C000F0E080818823DCF7EFE2F0E08081898323
:1010D0000F900F90CF91DF910895DF93CF930F92F0
:1010E000CDB7DEB78FEF8983EFE2F0E089818083AF
:1010F000EEE2F0E080818823DCF7EFE2F0E080812F
:101100000F90CF91DF910895DF93CF930F92CDB7DA
:10111000DEB78983EFE2F0E089818083EEE2F0E0E0
:1011200080818823DCF7EFE2F0E080810F90CF919F
:10113000DF910895DF93CF93CDB7DEB7EEE2F0E015
:1011400080818823DCF7EFE2F0E08081CF91DF91AE
:101150000895DF93CF930F92CDB7DEB78983EFE287
:10116000F0E0898180830F90CF91DF910895DF9324
:10117000CF9300D000D0CDB7DEB789836A83898151
:10118000282F30E03C832B838B819C818630910516
:1011900059F02B813C8127303105B1F08B819C8146
:1011A0008530910541F144C0A5E5B0E0E5E5F0E00A
:1011B00080818C7F8C93A5E5B0E0E5E5F0E090813F
:1011C0008A81892B8C9334C0A5E5B0E0E5E5F0E099
:1011D0008081837F8C93A5E5B0E0E5E5F0E0808138
:1011E000282F8A81882F90E0880F991F880F991FD8
:1011F000822B8C931DC0A4E5B0E0E4E5F0E0808193
:101200008F7B8C93A4E5B0E0E4E5F0E08081282FAB
:101210008A81882F90E08170907000249695879540
:101220000794969587950794982F802D822B8C9301
:10123000ABE5B0E0EBE5F0E08081482F8981282F15
:1012400030E081E090E0022E02C0880F991F0A94DE
:10125000E2F7842B8C930F900F900F900F90CF910B
:10126000DF910895DF93CF930F92CDB7DEB78983D7
:1012700089818530B8F089818830A0F4ABE5B0E091
:10128000EBE5F0E08081482F8981282F30E081E074
:1012900090E0022E02C0880F991F0A94E2F7809511
:1012A00084238C930F90CF91DF910895DF93CF9398
:1012B00000D000D00F92CDB7DEB789837B836A83DD
:1012C0008981282F30E03D832C838C819D8186305D
:1012D000910559F02C813D812730310569F08C81D1
:1012E0009D818530910579F014C08A819B8190930E
:1012F000AB008093AA000DC08A819B819093AD00C2
:101300008093AC0006C08A819B819093AF0080934C
:10131000AE000F900F900F900F900F90CF91DF9134
:1013200008951F920F920FB60F9211242F933F939F
:101330004F935F936F937F938F939F93AF93BF93DD
:10134000EF93FF93DF93CF93CDB7DEB78091AA00E1
:101350009091AB00009729F0E091AA00F091AB00CA
:101360000995CF91DF91FF91EF91BF91AF919F913F
:101370008F917F916F915F914F913F912F910F903E
:101380000FBE0F901F9018951F920F920FB60F92DD
:1013900011242F933F934F935F936F937F938F937A
:1013A0009F93AF93BF93EF93FF93DF93CF93CDB70B
:1013B000DEB78091AC009091AD00009729F0E091EC
:1013C000AC00F091AD000995CF91DF91FF91EF91C5
:1013D000BF91AF919F918F917F916F915F914F914D
:1013E0003F912F910F900FBE0F901F9018951F9255
:1013F0000F920FB60F9211242F933F934F935F9349
:101400006F937F938F939F93AF93BF93EF93FF93CC
:10141000DF93CF93CDB7DEB78091AE009091AF0050
:10142000009729F0E091AE00F091AF000995CF91BF
:10143000DF91FF91EF91BF91AF919F918F917F913C
:101440006F915F914F913F912F910F900FBE0F9031
:101450001F901895DF93CF9300D000D00F92CDB797
:10146000DEB789836A834B838981282F30E03D83EF
:101470002C838C819D818130910509F443C02C819E
:101480003D81223031052CF48C819D81009771F0D3
:10149000BCC02C813D812230310509F45FC08C81B4
:1014A0009D818330910509F485C0AFC08B81813067
:1014B000A1F4AAE3B0E0EAE3F0E08081482F8A815A
:1014C000282F30E081E090E0022E02C0880F991FA3
:1014D0000A94E2F7842B8C9398C0AAE3B0E0EAE385
:1014E000F0E08081482F8A81282F30E081E090E071
:1014F000022E02C0880F991F0A94E2F78095842378
:101500008C9383C08B818130A1F4A7E3B0E0E7E343
:10151000F0E08081482F8A81282F30E081E090E040
:10152000022E02C0880F991F0A94E2F7842B8C9335
:101530006CC0A7E3B0E0E7E3F0E08081482F8A8148
:10154000282F30E081E090E0022E02C0880F991F22
:101550000A94E2F7809584238C9357C08B81813065
:10156000A1F4A4E3B0E0E4E3F0E08081482F8A81B5
:10157000282F30E081E090E0022E02C0880F991FF2
:101580000A94E2F7842B8C9340C0A4E3B0E0E4E338
:10159000F0E08081482F8A81282F30E081E090E0C0
:1015A000022E02C0880F991F0A94E2F780958423C7
:1015B0008C932BC08B818130A1F4A1E3B0E0E1E3F7
:1015C000F0E08081482F8A81282F30E081E090E090
:1015D000022E02C0880F991F0A94E2F7842B8C9385
:1015E00014C0A1E3B0E0E1E3F0E08081482F8A81FC
:1015F000282F30E081E090E0022E02C0880F991F72
:101600000A94E2F7809584238C930F900F900F90AB
:101610000F900F90CF91DF910895DF93CF9300D07B
:1016200000D00F92CDB7DEB789836A834B8389815F
:10163000282F30E03D832C838C819D818130910562
:1016400009F443C02C813D81223031052CF48C817A
:101650009D81009771F0BCC02C813D812230310505
:1016600009F45FC08C819D818330910509F485C0A8
:10167000AFC08B818823A9F4ABE3B0E0EBE3F0E0EB
:101680008081482F8A81282F30E081E090E0022E6F
:1016900002C0880F991F0A94E2F7809584238C93E7
:1016A00097C0ABE3B0E0EBE3F0E08081482F8A81A4
:1016B000282F30E081E090E0022E02C0880F991FB1
:1016C0000A94E2F7842B8C9383C08B818823A9F43E
:1016D000A8E3B0E0E8E3F0E08081482F8A81282F7A
:1016E00030E081E090E0022E02C0880F991F0A943A
:1016F000E2F7809584238C936BC0A8E3B0E0E8E325
:10170000F0E08081482F8A81282F30E081E090E04E
:10171000022E02C0880F991F0A94E2F7842B8C9343
:1017200057C08B818823A9F4A5E3B0E0E5E3F0E09E
:101730008081482F8A81282F30E081E090E0022EBE
:1017400002C0880F991F0A94E2F7809584238C9336
:101750003FC0A5E3B0E0E5E3F0E08081482F8A8157
:10176000282F30E081E090E0022E02C0880F991F00
:101770000A94E2F7842B8C932BC08B818823A9F4E5
:10178000A2E3B0E0E2E3F0E08081482F8A81282FD5
:1017900030E081E090E0022E02C0880F991F0A9489
:1017A000E2F7809584238C9313C0A2E3B0E0E2E3D8
:1017B000F0E08081482F8A81282F30E081E090E09E
:1017C000022E02C0880F991F0A94E2F7842B8C9393
:1017D0000F900F900F900F900F90CF91DF91089581
:1017E000DF93CF9300D00F92CDB7DEB789836A83A2
:1017F0004B830F900F900F90CF91DF910895DF935F
:10180000CF9300D000D0CDB7DEB789836A838981BA
:10181000282F30E03C832B838B819C818130910584
:1018200049F12B813C81223031052CF48B819C8144
:10183000009761F05AC02B813C812230310571F153
:101840008B819C8183309105E9F14FC0ABE3B0E01F
:10185000EBE3F0E08081482F8A81282F30E081E09F
:1018600090E0022E02C0880F991F0A94E2F78427A5
:101870008C933BC0A8E3B0E0E8E3F0E08081482F20
:101880008A81282F30E081E090E0022E02C0880F8C
:10189000991F0A94E2F784278C9327C0A5E3B0E050
:1018A000E5E3F0E08081482F8A81282F30E081E055
:1018B00090E0022E02C0880F991F0A94E2F7842755
:1018C0008C9313C0A2E3B0E0E2E3F0E08081482F04
:1018D0008A81282F30E081E090E0022E02C0880F3C
:1018E000991F0A94E2F784278C930F900F900F9022
:1018F0000F90CF91DF910895DF93CF9300D000D068
:101900000F92CDB7DEB78A836B8319828A81282F25
:1019100030E03D832C834C815D814130510541F1A4
:101920008C819D818230910534F42C813D8121157B
:10193000310561F052C04C815D814230510551F159
:101940008C819D8183309105B9F147C0E9E3F0E0D6
:101950008081282F30E08B81882F90E0A90102C080
:10196000559547958A95E2F7CA018170898335C0FC
:10197000E6E3F0E08081282F30E08B81882F90E033
:10198000A90102C0559547958A95E2F7CA01817071
:10199000898323C0E3E3F0E08081282F30E08B814E
:1019A000882F90E0A90102C0559547958A95E2F7E6
:1019B000CA018170898311C0E0E3F0E08081282FA3
:1019C00030E08B81882F90E0A90102C055954795A2
:1019D0008A95E2F7CA018170898389810F900F90FF
:1019E0000F900F900F90CF91DF910895DF93CF93D9
:1019F00000D000D0CDB7DEB789836A838981282FD4
:101A000030E03C832B838B819C818130910549F1AF
:101A10002B813C81223031052CF48B819C810097F5
:101A200061F05AC02B813C812230310571F18B81EC
:101A30009C8183309105E9F14FC0ABE3B0E0EBE36B
:101A4000F0E08081482F8A81282F30E081E090E00B
:101A5000022E02C0880F991F0A94E2F7842B8C9300
:101A60003BC0A8E3B0E0E8E3F0E08081482F8A8142
:101A7000282F30E081E090E0022E02C0880F991FED
:101A80000A94E2F7842B8C9327C0A5E3B0E0E5E34A
:101A9000F0E08081482F8A81282F30E081E090E0BB
:101AA000022E02C0880F991F0A94E2F7842B8C93B0
:101AB00013C0A2E3B0E0E2E3F0E08081482F8A8126
:101AC000282F30E081E090E0022E02C0880F991F9D
:101AD0000A94E2F7842B8C930F900F900F900F9045
:101AE000CF91DF910895DF93CF93CDB7DEB7A6975F
:101AF0000FB6F894DEBF0FBECDBF80E062E041E0DC
:101B00000E940D0B80E090E0A0E8BFE38BA39CA3B4
:101B1000ADA3BEA36BA17CA18DA19EA12BEA3AEA45
:101B20004AEA50E40E941F02DC01CB018F8F98A388
:101B3000A9A3BAA36F8D78A189A19AA120E030E072
:101B400040E85FE30E94250488231CF481E08E8F27
:101B500091C06F8D78A189A19AA120E030E04FE774
:101B600053E40E94C50318160CF07BC06BA17CA146
:101B70008DA19EA120E030E04AE754E40E941903C1
:101B8000DC01CB018A8F9B8FAC8FBD8F6A8D7B8DE3
:101B90008C8D9D8D20E030E04AE755E40E941F02C5
:101BA000DC01CB018E8B9F8BA88FB98F6E897F89CB
:101BB000888D998D20E030E040E85FE30E942504A5
:101BC00088232CF481E090E09D8B8C8B3FC06E8944
:101BD0007F89888D998D20E03FEF4FE757E40E9481
:101BE000C50318164CF56A8D7B8D8C8D9D8D20E07C
:101BF00030E040E251E40E941F02DC01CB01BC0155
:101C0000CD010E944900DC01CB019D8B8C8B0FC064
:101C100080E991E09B8B8A8B8A899B890197F1F7F8
:101C20009B8B8A8B8C899D8901979D8B8C8B8C8952
:101C30009D89009769F724C06E897F89888D998D69
:101C40000E944900DC01CB019D8B8C8B8C899D8986
:101C5000998B888B888999890197F1F7998B888B63
:101C60000FC06F8D78A189A19AA10E944900DC0163
:101C7000CB018E8F8E8D8F878F858A95F1F78F8719
:101C800080E062E040E00E940D0B80E090E0A0E088
:101C9000B0E48B879C87AD87BE876B857C858D85FF
:101CA0009E8520E030E04AE755E40E941F02DC01F7
:101CB000CB018F839887A987BA876F8178858985BB
:101CC0009A8520E030E040E85FE30E942504882305
:101CD0002CF481E090E09E838D833FC06F817885F6
:101CE00089859A8520E03FEF4FE757E40E94C503BE
:101CF00018164CF56B857C858D859E8520E030E03F
:101D000040E251E40E941F02DC01CB01BC01CD0185
:101D10000E944900DC01CB019E838D830FC080E9C6
:101D200091E09C838B838B819C810197F1F79C834D
:101D30008B838D819E8101979E838D838D819E8172
:101D4000009769F714C06F81788589859A850E940C
:101D50004900DC01CB019E838D838D819E819A8316
:101D6000898389819A810197F1F79A838983A6965D
:101D70000FB6F894DEBF0FBECDBFCF91DF910895AF
:101D8000DF93CF93CDB7DEB7E4970FB6F894DEBFFD
:101D90000FBECDBF80E063E041E00E942A0A80E0F0
:101DA00062E041E00E942A0A81E060E041E00E9496
:101DB0002A0A81E061E041E00E942A0A81E062E0B3
:101DC00041E00E942A0A81E063E041E00E942A0A81
:101DD00080E090E0A0EAB1E489AB9AABABABBCABDE
:101DE00069A97AA98BA99CA920E030E04AE755E4CB
:101DF0000E941F02DC01CB018DA79EA7AFA7B8AB45
:101E00006DA57EA58FA598A920E030E040E85FE3AE
:101E10000E94250488232CF481E090E09CA78BA7E6
:101E20003FC06DA57EA58FA598A920E03FEF4FE7A5
:101E300057E40E94C50318164CF569A97AA98BA925
:101E40009CA920E030E040E251E40E941F02DC0146
:101E5000CB01BC01CD010E944900DC01CB019CA754
:101E60008BA70FC080E991E09AA789A789A59AA5B9
:101E70000197F1F79AA789A78BA59CA501979CA725
:101E80008BA78BA59CA5009769F714C06DA57EA5AF
:101E90008FA598A90E944900DC01CB019CA78BA7C4
:101EA0008BA59CA598A78FA38FA198A50197F1F763
:101EB00098A78FA383E00E94AD1080E090E0A0EA95
:101EC000B0E48BA39CA3ADA3BEA36BA17CA18DA109
:101ED0009EA120E030E04AE755E40E941F02DC01A9
:101EE000CB018F8F98A3A9A3BAA36F8D78A189A1E5
:101EF0009AA120E030E040E85FE30E9425048823B7
:101F00002CF481E090E09E8F8D8F3FC06F8D78A183
:101F100089A19AA120E03FEF4FE757E40E94C50353
:101F200018164CF56BA17CA18DA19EA120E030E09C
:101F300040E251E40E941F02DC01CB01BC01CD0153
:101F40000E944900DC01CB019E8F8D8F0FC080E97C
:101F500091E09C8F8B8F8B8D9C8D0197F1F79C8FDF
:101F60008B8F8D8D9E8D01979E8F8D8F8D8D9E8DEC
:101F7000009769F714C06F8D78A189A19AA10E947A
:101F80004900DC01CB019E8F8D8F8D8D9E8D9A8FA8
:101F9000898F898D9A8D0197F1F79A8F898F83E0C8
:101FA0000E94AD1080E090E0A8ECB2E48D8B9E8B97
:101FB000AF8BB88F6D897E898F89988D2BEA3AEA2D
:101FC0004AEA50E40E941F02DC01CB01898B9A8B04
:101FD000AB8BBC8B69897A898B899C8920E030E046
:101FE00040E85FE30E94250488231CF481E0888B8D
:101FF00091C069897A898B899C8920E030E04FE71C
:1020000053E40E94C50318160CF07BC06D897E89CD
:102010008F89988D20E030E04AE754E40E9419034C
:10202000DC01CB018C879D87AE87BF876C857D8562
:102030008E859F8520E030E04AE755E40E941F022C
:10204000DC01CB0188879987AA87BB87688579855A
:102050008A859B8520E030E040E85FE30E9425040C
:1020600088232CF481E090E09F838E833FC06885B5
:1020700079858A859B8520E03FEF4FE757E40E94F2
:10208000C50318164CF56C857D858E859F8520E0EF
:1020900030E040E251E40E941F02DC01CB01BC01B0
:1020A000CD010E944900DC01CB019F838E830FC0CC
:1020B00080E991E09D838C838C819D810197F1F76C
:1020C0009D838C838E819F8101979F838E838E81D8
:1020D0009F81009769F724C0688579858A859B85EB
:1020E0000E944900DC01CB019F838E838E819F81FA
:1020F0009B838A838A819B810197F1F79B838A83E3
:102100000FC069897A898B899C890E944900DC010A
:10211000CB01888B8889898389818A95F1F78983A6
:1021200083E00E94AD1082E00E94AD1088E20E9420
:10213000AD108CE00E94AD100E945B120E942E1325
:1021400080E060E00E94F111E4960FB6F894DEBFE3
:102150000FBECDBFCF91DF910895DF93CF93CDB761
:10216000DEB72F970FB6F894DEBF0FBECDBF8F87B7
:1021700080E090E0A0E8BFE38B879C87AD87BE87B7
:102180006B857C858D859E8520E030E04AE755E4AF
:102190000E941F02DC01CB018F839887A987BA8731
:1021A0006F81788589859A8520E030E040E85FE39B
:1021B0000E94250488232CF481E090E09E838D8387
:1021C0003FC06F81788589859A8520E03FEF4FE792
:1021D00057E40E94C50318164CF56B857C858D85E8
:1021E0009E8520E030E040E251E40E941F02DC01C5
:1021F000CB01BC01CD010E944900DC01CB019E83D3
:102200008D830FC080E991E09C838B838B819C81BF
:102210000197F1F79C838B838D819E8101979E832B
:102220008D838D819E81009769F714C06F817885B9
:1022300089859A850E944900DC01CB019E838D83AC
:102240008D819E819A83898389819A810197F1F793
:102250009A83898380E063E040E00E940D0B8F85C4
:1022600082958F70982F917081E060E0492F0E94D5
:102270000D0B8F85829586958770982F917081E0E0
:1022800061E0492F0E940D0B8F858295869586957A
:102290008370982F917081E062E0492F0E940D0BAE
:1022A0008F85982F991F9927991F81E063E0492F07
:1022B0000E940D0B0E94730D8F85982F917081E005
:1022C00060E0492F0E940D0B8F858695982F9170A5
:1022D00081E061E0492F0E940D0B8F8586958695E0
:1022E000982F917081E062E0492F0E940D0B8F853D
:1022F000869586958695982F917081E063E0492FA9
:102300000E940D0B0E94730D2F960FB6F894DEBF3E
:102310000FBECDBFCF91DF910895DF93CF930F9282
:10232000CDB7DEB7898380E063E041E00E940D0B0A
:10233000898182958F70982F917081E060E0492F9C
:102340000E940D0B8981829586958770982F9170D8
:1023500081E061E0492F0E940D0B8981829586956D
:1023600086958370982F917081E062E0492F0E94DA
:102370000D0B8981982F991F9927991F81E063E0A0
:10238000492F0E940D0B0E94730D8981982F917027
:1023900081E060E0492F0E940D0B89818695982F7E
:1023A000917081E061E0492F0E940D0B8981869533
:1023B0008695982F917081E062E0492F0E940D0B65
:1023C0008981869586958695982F917081E063E046
:1023D000492F0E940D0B0E94730D0F90CF91DF913A
:1023E0000895DF93CF9300D000D0CDB7DEB78983B7
:1023F0006A838981282F30E03C832B838B819C81E9
:1024000081309105D1F02B813C81223031052CF4B3
:102410008B819C81009761F01EC02B813C81223012
:10242000310581F08B819C818330910581F013C04F
:102430008A8180580E94AD100EC08A8180540E940B
:10244000AD1009C08A818C560E94AD1004C08A81EB
:102450008C520E94AD100F900F900F900F90CF9163
:10246000DF910895DF93CF930F92CDB7DEB78983C5
:1024700089810E948D110F90CF91DF910895DF9394
:10248000CF9300D0CDB7DEB79A8389830AC0E981A4
:10249000FA8180810E94321289819A8101969A8301
:1024A0008983E981FA818081882389F70F900F90D1
:1024B000CF91DF910895DF93CF9300D0CDB7DEB7F2
:1024C0001A82198219822CC08981882F90E008967F
:1024D000880F991F880F991F880F991F0E94AD10B0
:1024E0001A8218C08981482F50E08A81282F30E055
:1024F000CA01880F991F880F991F880F991F820F93
:10250000931FFC01E859FF4F80810E9432128A819B
:102510008F5F8A838A81883028F389818F5F8983DE
:102520008981883088F20F900F90CF91DF910895C4
:102530000F931F93DF93CF93CDB7DEB72F970FB6CF
:10254000F894DEBF0FBECDBF6C877D878E879F87D7
:102550008AE0FE013296DF01982F1D929A95E9F7E5
:1025600019828C859D85AE85BF850097A105B10533
:1025700021F480E30E948D1166C08C859D85AE8517
:10258000BF85BB230CF040C08DE20E948D118C856D
:102590009D85AE85BF85B095A095909581959F4FFF
:1025A000AF4FBF4F8C879D87AE87BF872DC0898176
:1025B000082F10E08C859D85AE85BF852AE030E030
:1025C00040E050E0BC01CD010E944E16DC01CB0181
:1025D000282FCE010296FC01E00FF11F20838C858D
:1025E0009D85AE85BF852AE030E040E050E0BC012B
:1025F000CD010E944E16DA01C9018C879D87AE87F6
:10260000BF8789818F5F89838C859D85AE85BF85D6
:10261000181619061A061B0654F212C08981882F53
:1026200090E09C0121503040CE010296FC01E20F67
:10263000F31F8081805D0E948D1189818150898383
:102640008981882359F72F960FB6F894DEBF0FBE05
:10265000CDBFCF91DF911F910F910895DF93CF935D
:10266000CDB7DEB72E970FB6F894DEBF0FBECDBF45
:1026700081E00E94AD1080E090E0A0EAB0E48B879A
:102680009C87AD87BE876B857C858D859E8520E088
:1026900030E04AE755E40E941F02DC01CB018F8342
:1026A0009887A987BA876F81788589859A8520E080
:1026B00030E040E85FE30E94250488232CF481E0A9
:1026C00090E09E838D833FC06F81788589859A8550
:1026D00020E03FEF4FE757E40E94C50318164CF582
:1026E0006B857C858D859E8520E030E040E251E45D
:1026F0000E941F02DC01CB01BC01CD010E944900F8
:10270000DC01CB019E838D830FC080E991E09C8327
:102710008B838B819C810197F1F79C838B838D81C7
:102720009E8101979E838D838D819E81009769F79D
:1027300014C06F81788589859A850E944900DC01E3
:10274000CB019E838D838D819E819A83898389812C
:102750009A810197F1F79A8389832E960FB6F894A0
:10276000DEBF0FBECDBFCF91DF910895DF93CF9332
:1027700000D00F92CDB7DEB789838981282F30E052
:102780003B832A838A819B8181309105D9F02A81FC
:102790003B81223031052CF48A819B81009761F0C6
:1027A00022C02A813B8122303105C1F08A819B8180
:1027B0008330910569F017C081E067E041E00E9435
:1027C0002A0A11C080E066E041E00E942A0A0BC09C
:1027D00080E064E041E00E942A0A05C080E065E0F4
:1027E00041E00E942A0A0F900F900F90CF91DF9145
:1027F0000895DF93CF9300D00F92CDB7DEB78983D2
:102800008981282F30E03B832A838A819B81813014
:102810009105D9F02A813B81223031052CF48A813F
:102820009B81009761F022C02A813B8122303105D3
:10283000C1F08A819B818330910569F017C081E0E6
:1028400067E041E00E940D0B11C080E066E041E0CE
:102850000E940D0B0BC080E064E041E00E940D0B74
:1028600005C080E065E041E00E940D0B0F900F90E5
:102870000F90CF91DF910895DF93CF9300D00F9207
:10288000CDB7DEB789838981282F30E03B832A8347
:102890008A819B8181309105D9F02A813B81223048
:1028A00031052CF48A819B81009761F022C02A8136
:1028B0003B8122303105C1F08A819B8183309105B3
:1028C00069F017C081E067E040E00E940D0B11C085
:1028D00080E066E040E00E940D0B0BC080E064E009
:1028E00040E00E940D0B05C080E065E040E00E94E2
:1028F0000D0B0F900F900F90CF91DF910895DF9304
:10290000CF9300D00F92CDB7DEB789838981282F6E
:1029100030E03B832A838A819B8181309105D1F00D
:102920002A813B81223031052CF48A819B810097DA
:1029300061F01EC02A813B8122303105A9F08A81D5
:102940009B818330910559F013C081E067E00E94BC
:10295000FF0B0EC080E066E00E94FF0B09C080E024
:1029600064E00E94FF0B04C080E065E00E94FF0B62
:102970000F900F900F90CF91DF9108950F931F93B9
:10298000DF93CF93CDB7DEB7E6970FB6F894DEBFEF
:102990000FBECDBF81E00E94B61380E064E041E04D
:1029A0000E942A0A0E94C00E89E1FE017E96DF0184
:1029B000982F1D929A95E9F71D8E87E690E00E9468
:1029C0004F0622E436E187E0B9010E94560987E00C
:1029D00062E00E94B70878940E942C0881E00E946F
:1029E0003C1480E064E00E947C0C8093B0001D8E5B
:1029F0008091B000882309F0A5C080E064E00E94C7
:102A00007C0C8093B0008091B000813039F38D8DC3
:102A1000082F10E00E949A08282FCE014E96FC0144
:102A2000E00FF11F208380E090E0A0EAB1E4898FFD
:102A30009A8FAB8FBC8F698D7A8D8B8D9C8D20E0AA
:102A400030E04AE755E40E941F02DC01CB018D8B88
:102A50009E8BAF8BB88F6D897E898F89988D20E092
:102A600030E040E85FE30E94250488232CF481E0F5
:102A700090E09C8B8B8B3FC06D897E898F89988D70
:102A800020E03FEF4FE757E40E94C50318164CF5CE
:102A9000698D7A8D8B8D9C8D20E030E040E251E491
:102AA0000E941F02DC01CB01BC01CD010E94490044
:102AB000DC01CB019C8B8B8B0FC080E991E09A8B62
:102AC000898B89899A890197F1F79A8B898B8B89F0
:102AD0009C8901979C8B8B8B8B899C89009769F7CC
:102AE00014C06D897E898F89988D0E944900DC0110
:102AF000CB019C8B8B8B8B899C89988B8F878F8547
:102B000098890197F1F7988B8F878D8D282F30E06A
:102B1000CE014E96FC01E20FF31F8081882371F4F1
:102B200081E00E94F9130E942E13CE014E960E945E
:102B30003F12CE014E960E94060750CF8D8D8F5FBB
:102B40008D8F5BCF0E9444078823E1F3CE014E9620
:102B50000E944D071D8E91C08D8D282F30E0CE0133
:102B60004E96FC01E20FF31F80810E94A90880E0CD
:102B700090E0A0EAB1E48B879C87AD87BE876B8528
:102B80007C858D859E8520E030E04AE755E40E94F3
:102B90001F02DC01CB018F839887A987BA876F81D9
:102BA000788589859A8520E030E040E85FE30E94DF
:102BB000250488232CF481E090E09E838D833FC020
:102BC0006F81788589859A8520E03FEF4FE757E44C
:102BD0000E94C50318164CF56B857C858D859E85F6
:102BE00020E030E040E251E40E941F02DC01CB0112
:102BF000BC01CD010E944900DC01CB019E838D8385
:102C00000FC080E991E09C838B838B819C8101972D
:102C1000F1F79C838B838D819E8101979E838D83A9
:102C20008D819E81009769F714C06F8178858985B1
:102C30009A850E944900DC01CB019E838D838D81A2
:102C40009E819A83898389819A810197F1F79A837A
:102C500089838D8D282F30E0CE014E96FC01E20F46
:102C6000F31F8081882331F480E064E040E00E941B
:102C70000D0BB4CE8D8D8F5F8D8F8D8D843608F4C6
:102C80006BCFACCEDF93CF93CDB7DEB780E064E0FF
:102C900041E00E940D0BCF91DF91089597FB092E23
:102CA00005260ED057FD04D014D00AD0001C38F4ED
:102CB00050954095309521953F4F4F4F5F4F089568
:102CC000F6F790958095709561957F4F8F4F9F4F48
:102CD0000895A1E21A2EAA1BBB1BFD010DC0AA1F5D
:102CE000BB1FEE1FFF1FA217B307E407F50720F075
:102CF000A21BB30BE40BF50B661F771F881F991FF0
:102D00001A9469F760957095809590959B01AC0138
:102D1000BD01CF0108952F923F924F925F926F9223
:102D20007F928F929F92AF92BF92CF92DF92EF925B
:102D3000FF920F931F93CF93DF93CDB7DEB7CA1BDC
:102D4000DB0B0FB6F894DEBF0FBECDBF09942A8807
:102D5000398848885F846E847D848C849B84AA84AF
:102D6000B984C884DF80EE80FD800C811B81AA813C
:102D7000B981CE0FD11D0FB6F894DEBF0FBECDBF07
:082D8000ED010895F894FFCF66
:102D880000000000000000000A1F1F1F1F0E0400A3
:102D9800041F11111111111F041F111111111F1FEF
:102DA800041F1111111F1F1F041F11111F1F1F1FA7
:102DB800041F111F1F1F1F1F041F1F1F1F1F1F1F5F
:082DC8000000010105051515CD
:00000001FF
