:100000000C942A000C9447000C9447000C94470071
:100010000C9447000C9447000C9447000C94EB029E
:100020000C9447000C9447000C9447000C94470034
:100030000C9447000C94CE130C9447000C94B51309
:100040000C9447000C9447000C9447000C94470014
:100050000C94470011241FBECFE5D8E0DEBFCDBF12
:1000600010E0A0E6B0E0E8EBF5E302C005900D92E9
:10007000A63DB107D9F714E0A6EDB0E001C01D928E
:10008000A936B107E1F70E944F1A0C94DA1A0C94C2
:1000900000008091D8009091D90008958091DE00F1
:1000A0009091DF0008950895CF93DF93FC01C8E39A
:1000B000D3E0888199818E179F0710F4EC01F9CF66
:1000C0002A813B81CE01820F931FE817F90739F48B
:1000D00082819381820F931F9B838A83FE012281F9
:1000E0003381A881B981CF01820F931FA817B90767
:1000F000A1F48091D6009091D700A817B90769F0B4
:1001000012968D919C911397820F931F93838283F4
:100110008D919C919183808302C0B183A083CE177F
:10012000DF0711F0F983E883DF91CF910895CF9233
:10013000DF92EF92FF920F931F93CF93DF93EC0127
:100140000E948408E0913803F0913903309739F424
:10015000CC24DD24EE24FF240FEF1FEF1EC02091DE
:10016000D6003091D700CC24DD24EE24FF240FEFFD
:100170001FEF10C00894C11CD11C82819381E81626
:10018000F90608F47C018017910708F48C010190AE
:10019000F081E02DE217F30769F70E94800EFB82E1
:1001A000EA821D830C83DF82CE820FB6F8940F9211
:1001B0008091D8009091D900998388838091DA004A
:1001C0009091DB009B878A878091DC009091DD0015
:1001D0009D878C878091DE009091DF0099878887CA
:1001E0000F900FBEDF91CF911F910F91FF90EF9075
:1001F000DF90CF900895CF93DF93009749F1EC0102
:1002000024972A813B8137FF23C088819981892BDC
:10021000F9F43F773B832A830E9484088091D800B9
:100220009091D9002A813B81820F931F9093D9002E
:100230008093D800CE010E9454008091DC00909100
:10024000DD0001969093DD008093DC000E94800E1B
:10025000DF91CF910895CF92DF92EF92FF920F93AB
:100260001F93CF93DF938C010E9484088091D60066
:100270009091D700892B51F580EE90E0909339034F
:100280008093380310923B0310923A0324E333E047
:100290003093D7002093D600109237031092360384
:1002A000109235031092340384E592E09093E300BA
:1002B0008093E2003093E1002093E0009093DF0010
:1002C0008093DE009093D9008093D800011511052A
:1002D00039F08FEF0B3F180708F067C00B5F1F4F17
:1002E00017FD63C00115110509F45FC0C090D80067
:1002F000D090D900C016D10608F457C0C091380379
:10030000D0913903E8E3F3E08A819B81801791075C
:1003100040F4888199819E01009719F0EC01F90160
:10032000F3CF8091D6009091D700C817D907E9F193
:10033000E080F18088819981918380838A819B818B
:10034000801B910B8930910550F0FE01E00FF11FE9
:10035000938382831B830A83CF010E9454004A81C6
:100360005B819601241B350B3093D9002093D80074
:100370008091DE009091DF002817390720F4309338
:10038000DF002093DE0087010C5F1F4F50685B8306
:100390004A83198218828091DA009091DB000196DD
:1003A0009093DB008093DA0002C000E010E00E942E
:1003B000800EC801DF91CF911F910F91FF90EF90B8
:1003C000DF90CF9008950F931F93CF93DF939C01FD
:1003D000FB010097B9F08FEF9FEFB9010E94791AE6
:1003E0006E177F0778F4C0E0D0E006C0CE0160E071
:1003F00070E0A8010E94D31ACE01DF91CF911F9126
:100400000F910895E29F8001E39F100DF29F100D60
:100410001124C8010E942B01EC01009739F7ECCFA1
:10042000FC0191E1908322E2229383E38293629321
:100430007293129280E88293129282E0829383E018
:10044000829384E0829385E0829386E0829387E0C2
:10045000829388E0829389E0829380E182939293F1
:1004600082E1829383E1829384E1829385E18293A6
:1004700086E1829387E1829388E1829389E1829386
:1004800080E2829381E28293229383E28293429379
:10049000529386E2829387E2829388E2829389E292
:1004A000829380E3829381E382933197CF01089511
:1004B0001BBC89EF8ABD8BE08EBD89B7806189BF87
:1004C000A0913C03B0913D03CD91CDBFDD91DEBF46
:1004D000FF91EF91DF91CF91BF91AF919F918F915C
:1004E0007F916F915F914F913F912F911F910F914C
:1004F000FF90EF90DF90CF90BF90AF909F908F9044
:100500007F906F905F904F903F902F901F900F9033
:100510000FBE0F90089581E0089508950F920FB6D1
:10052000F8940F921F9211242F923F924F925F9254
:100530006F927F928F929F92AF92BF92CF92DF92F3
:10054000EF92FF920F931F932F933F934F935F93DD
:100550006F937F938F939F93AF93BF93CF93DF93CB
:10056000EF93FF93A0913C03B0913D030DB60D9224
:100570000EB60D920E94A908882311F00E94C109AD
:10058000A0913C03B0913D03CD91CDBFDD91DEBF85
:10059000FF91EF91DF91CF91BF91AF919F918F919B
:1005A0007F916F915F914F913F912F911F910F918B
:1005B000FF90EF90DF90CF90BF90AF909F908F9083
:1005C0007F906F905F904F903F902F901F900F9073
:1005D0000FBE0F9008950E948E0218950F920FB6CD
:1005E000F8940F921F9211242F923F924F925F9294
:1005F0006F927F928F929F92AF92BF92CF92DF9233
:10060000EF92FF920F931F932F933F934F935F931C
:100610006F937F938F939F93AF93BF93CF93DF930A
:10062000EF93FF93A0913C03B0913D030DB60D9263
:100630000EB60D920E94C109A0913C03B0913D03FA
:10064000CD91CDBFDD91DEBFFF91EF91DF91CF91D5
:10065000BF91AF919F918F917F916F915F914F91DA
:100660003F912F911F910F91FF90EF90DF90CF90CE
:10067000BF90AF909F908F907F906F905F904F90C2
:100680003F902F901F900F900FBE0F900895FC0188
:100690009C012D5F3F4F328321838FEF9FEF948327
:1006A0008383368325833087278310820895FC0156
:1006B000118610860895AC01FC01A181B281FB0175
:1006C000B383A28314968D919C911597958384830F
:1006D0001496ED91FC9115977383628315967C9324
:1006E0006E931497FB0151874087FA0180818F5FD9
:1006F00080830895CF93DF939C01EB01488159815A
:100700008FEF4F3F580721F4F901A781B0850DC045
:10071000D90113961296ED91FC91139780819181E6
:100720004817590710F0DF01F5CF1296ED91FC91B3
:100730001397FB83EA83D583C483BD83AC8313966D
:10074000DC93CE93129739872887F90180818F5FD8
:100750008083DF91CF910895CF93DF93DC011896CA
:10076000CD91DC91199712964D915C911397149647
:100770008D919C911597FA019583848314962D9100
:100780003C911597F9015383428389819A818A1795
:100790009B0711F43A83298319961C921E9218978D
:1007A0008881815088838881DF91CF910895FC01F1
:1007B0000FB6F8940F92828D0F900FBE0895FC0132
:1007C0000FB6F8940F92928D0F900FBE838D891BF8
:1007D0000895FC01828D0895FC01828D90E08823AC
:1007E00009F491E0892F0895FC01928D20E0838D1A
:1007F000981709F421E0822F08950E94FB000895C4
:10080000FC01562FA72F248D2223B9F086819781D2
:10081000820F911D978386832481358182179307E8
:1008200020F08081918197838683448D66817781D2
:10083000852F9A2F50E00E94CA1A08950F931F9394
:10084000CF93DF93EC018A8D882341F00E811F81C5
:10085000CE010E9400041F830E8381E0DF91CF91BF
:100860001F910F9108950F931F93CF93DF93EC0186
:10087000042F1A8D4C8D4423C1F10023B1F48A81D9
:100880009B8150E00E94CA1A8C8D2A813B81280FDF
:10089000311D3B832A838C819D812817390728F1DC
:1008A000888199819B838A8320C08E819F8150E0BB
:1008B0000E94CA1A8C8D90E044275527481B590B7B
:1008C0008E819F81840F951F9F838E83288139811C
:1008D0008217930730F48C819D81840F951F9F832D
:1008E0008E83023011F4111111501F5F1A8F80E0B6
:1008F000DF91CF911F910F910895EF92FF920F9387
:100900001F93CF93DF93EC017A011A8D112311F419
:1009100080E01EC00D8D0E94000411501A8F0F3F01
:1009200081F48885882399F0CE0108960E94FB09FE
:10093000882369F0E114F10451F081E0F70180832C
:1009400007C00E949B08081710F40F5F0D8F81E00D
:10095000DF91CF911F910F91FF90EF900895EF924B
:10096000FF921F93CF93DF93EC017B019A8D8B8DC8
:10097000981710F080E01CC01E8D9F5F9A8F1F3F5C
:1009800081F48989882399F0CE0141960E94FB0960
:10099000882369F0E114F10451F081E0F7018083CC
:1009A00007C00E949B08181710F41F5F1E8F81E07C
:1009B000DF91CF911F91FF90EF900895EF92FF92FA
:1009C0001F93CF93DF93EC017A019A8D8B8D98174B
:1009D00020F0223011F080E01FC01E8D8A8DCE01E4
:1009E000422F0E9433041F3F81F48989882399F0A4
:1009F000CE0141960E94FB09882369F0E114F104BD
:100A000051F081E0F701808307C00E949B0818170E
:100A100010F41F5F1E8F81E0DF91CF911F91FF9037
:100A2000EF900895EF92FF921F93CF93DF93EC0125
:100A30000FB6F8940F921E8D91E1E92EF12CEC0E79
:100A4000FD1E0BC08989882351F0C7010E94FB0954
:100A5000882311F00E94980B115011169CF38FEF10
:100A60008E8F0F900FBE0FB6F8940F921D8D88E0F9
:100A7000E82EF12CEC0EFD1E0BC08885882351F06A
:100A8000C7010E94FB09882311F00E94980B1150A6
:100A900011169CF38FEF8D8F0F900FBEDF91CF91CA
:100AA0001F91FF90EF9008958F929F92AF92BF9207
:100AB000CF92DF92EF92FF920F931F93DF93CF932A
:100AC00000D000D00F92CDB7DEB77C015B015D8313
:100AD0004C8341E1C42ED12CC80ED91E20E08E01DA
:100AE0000F5F1F4F34E0832E912C8C0E9D1E01C092
:100AF00021E00FB6F8940F92F701828D8823B9F0A8
:100B000006811781C701B5010E940004F701178310
:100B100006838189882339F0C6010E94FB09882356
:100B200011F00E94EE020F900FBE81E054C08C8144
:100B30009D81892B21F40F900FBE80E04CC02223B1
:100B400019F4C8010E94580B0F900FBE0E94840830
:100B50000FB6F8940F92F701858D8F3F09F4158E2B
:100B6000F701868D8F3F09F4168E0F900FBEC801D6
:100B7000B4010E94630B8823F9F40FB6F8940F9226
:100B8000F701828D0F900FBE882381F46C817D81E7
:100B9000C6010E945711C7010E9412050E94800ED3
:100BA000882309F0A5CF0E94EE02A2CFC7010E94C0
:100BB00012050E94800E9CCFC7010E9412050E9460
:100BC000800E0FB6F8940F92F701828D0F900FBE32
:100BD000882309F08DCF0F900F900F900F900F90FA
:100BE000CF91DF911F910F91FF90EF90DF90CF9009
:100BF000BF90AF909F908F900895AF92BF92CF9289
:100C0000DF92EF92FF920F931F93DF93CF9300D069
:100C100000D00F92CDB7DEB78C017D836C8361E18C
:100C2000E62EF12CE80EF91E20E06E010894C11C9E
:100C3000D11C54E0A52EB12CAC0EBD1E01C021E08C
:100C40000FB6F8940F92F801828D882389F08150B5
:100C5000828F8085882341F0C80108960E94FB0995
:100C6000882311F00E94EE020F900FBE81E054C065
:100C70008C819D81892B21F40F900FBE80E04CC0A8
:100C8000222319F4C6010E94580B0F900FBE0E9438
:100C900084080FB6F8940F92F801858D8F3F09F400
:100CA000158EF801868D8F3F09F4168E0F900FBEBA
:100CB000C601B5010E94630B8823F9F40FB6F894BE
:100CC0000F92F801828D0F900FBE882381F46C8102
:100CD0007D81C7010E945711C8010E9412050E9420
:100CE000800E882309F0ABCF0E94EE02A8CFC80186
:100CF0000E9412050E94800EA2CFC8010E94120518
:100D00000E94800E0FB6F8940F92F801828D0F901A
:100D10000FBE882309F093CF0F900F900F900F9084
:100D20000F90CF91DF911F910F91FF90EF90DF9087
:100D3000CF90BF90AF9008956F927F928F929F92C5
:100D4000AF92BF92CF92DF92FF920F931F93DF93E8
:100D5000CF9300D000D00F92CDB7DEB78C015B01EE
:100D60005D834C83E1E1CE2ED12CC80ED91E20E04C
:100D70004E010894811C911C74E0672E712C6C0E3E
:100D80007D1E01C021E00FB6F8940F92F801F28C9D
:100D9000FF20B1F0C801B5010E940004FA94F801E7
:100DA000F28E8085882341F0C80108960E94FB09D5
:100DB000882311F00E94EE020F900FBE81E054C014
:100DC0008C819D81892B21F40F900FBE80E04CC057
:100DD000222319F4C4010E94580B0F900FBE0E94E9
:100DE00084080FB6F8940F92F801858D8F3F09F4AF
:100DF000158EF801868D8F3F09F4168E0F900FBE69
:100E0000C401B3010E94630B8823F9F40FB6F89470
:100E10000F92F801828D0F900FBE882381F46C81B0
:100E20007D81C6010E945711C8010E9412050E94CF
:100E3000800E882309F0A6CF0E94EE02A3CFC8013E
:100E40000E9412050E94800E9DCFC8010E941205CB
:100E50000E94800E0FB6F8940F92F801828D0F90C9
:100E60000FBE882309F08ECF0F900F900F900F9038
:100E70000F90CF91DF911F910F91FF90DF90CF9056
:100E8000BF90AF909F908F907F906F9008956F92DA
:100E90007F929F92AF92BF92CF92DF92EF92FF929A
:100EA0000F931F93DF93CF9300D000D00F92CDB755
:100EB000DEB78C016B015D834C83922EA8E0EA2E95
:100EC000F12CE80EF91E20E05E010894A11CB11C73
:100ED000F4E06F2E712C6C0E7D1E01C021E00FB668
:100EE000F8940F92F801928D838D981718F0F2E024
:100EF0009F16C9F4C801B601492D0E943304982FEA
:100F0000F8018189882339F0C80141960E94FB09C4
:100F1000882329F002C0992311F00E94EE020F905D
:100F20000FBE81E04CC08C819D81892B19F40F90FC
:100F30000FBE44C0222319F4C5010E94580B0F9024
:100F40000FBE0E9484080FB6F8940F92F801858DA9
:100F50008F3F09F4158EF801868D8F3F09F4168EA8
:100F60000F900FBEC501B3010E94630B882309F5E2
:100F70000FB6F8940F92F801928D0F900FBEF80102
:100F8000838D981781F46C817D81C7010E94571170
:100F9000C8010E9412050E94800E882309F09ECF8E
:100FA0000E94EE029BCFC8010E9412050E94800E93
:100FB00095CFC8010E9412050E94800E80E00F901C
:100FC0000F900F900F900F90CF91DF911F910F9185
:100FD000FF90EF90DF90CF90BF90AF909F907F9069
:100FE0006F900895CF93DF93EC01E62F009709F4FB
:100FF0004FC02B8D222309F44BC03C8D8FEF9FE710
:10100000622F70E00E94791A832F90E068177907A9
:1010100008F43EC00FB6F8940F92329FC00111241D
:1010200048815981840F951F9D838C831A8E5B8321
:101030004A832B8D30E0215030408C8D90E0BC01F4
:10104000269FC001279F900D369F900D1124480FB9
:10105000591F5F834E838FEF8D8F8E8FEE2361F448
:101060008885882389F0CE0108960E94FB09882391
:1010700059F00E94EE0208C0CE0108960E94470374
:10108000CE0141960E9447030F900FBE81E001C040
:1010900080E0DF91CF9108950F931F93CF93DF935B
:1010A000182F062F882341F18FEF9FE7612F70E003
:1010B0000E94791A802F90E068177907E8F0019F65
:1010C000C00111242FE7813E9207B0F44F960E9491
:1010D0002B01FC01EC01009789F0002319F49183A6
:1010E000808303C04F9691838083138F048FCF0139
:1010F00061E00E94F20702C0C0E0D0E0CE01DF91C3
:10110000CF911F910F91089580913E038F5F80933F
:101110003E0308950FB6F8940F9220914103309149
:1011200042030F900FBEC9010895209141033091F1
:101130004203C9010895809148030895009721F45E
:1011400080913C0390913D039C01275E3F4FC90174
:101150000895EF92FF920F931F93CF93DF938091A7
:101160003E03882309F0FBC0009141031091420324
:101170000F5F1F4F109342030093410301151105A8
:1011800061F52091840330918503809186039091CD
:101190008703909385038093840330938703209380
:1011A0008603809145038F5F80934503E09184031C
:1011B000F09185038081882319F48FEF9FEF09C098
:1011C000E0918403F09185030580F681E02D808114
:1011D00091819093440380934303809143039091C2
:1011E00044030817190708F4A2C0FF2439E0E32ECE
:1011F000E0918403F09185038081882319F48FEFB7
:101200009FEF0EC0E0918403F09185030580F68185
:10121000E02DC681D7818A819B810817190728F4A0
:10122000909344038093430383C0AA85BB854C817C
:101230005D818E819F81FA01958384832E813F8118
:10124000F90153834283BE016E5F7F4F11968D91EA
:101250009C9112978617970721F412963C932E9330
:1012600011971B861A868C9181508C93AC89BD890D
:101270001097F9F02E853F8588899989F901958322
:10128000848348895989FA01338322839E01245F2C
:101290003F4F11968D919C9112978217930721F4DD
:1012A00012965C934E9311971D8A1C8A8C918150E3
:1012B0008C939E8980913F03891710F490933F038C
:1012C000892F90E0FC0123E0EE0FFF1F2A95E1F744
:1012D000E80FF91FE25BFC4FA181B281BD83AC83B3
:1012E00014968D919C9115979F838E831496ED9102
:1012F000FC9115977383628315967C936E93149774
:10130000EE89EE9DF0011124E25BFC4FFB87EA873A
:1013100080818F5F8083E0913C03F0913D039E8943
:101320008689891708F064CFFF24F39461CFFF24E6
:10133000E0913C03F0913D03E68989E0E89FF001EC
:101340001124E25BFC4F8081823010F0FF24F39483
:1013500080914003882369F0FF24F3940AC08091B0
:101360004603909147030196909347038093460369
:10137000FF248F2DDF91CF911F910F91FF90EF9060
:10138000089580913E03882321F081E080934003FB
:1013900008951092400320913F0399E001C021502D
:1013A000299FD0011124A25BBC4F8C918823B9F3F3
:1013B0001196ED91FC9112970280F381E02D129627
:1013C000FC93EE931197CD010396E817F90731F4DA
:1013D0008281938112969C938E9311971196ED9131
:1013E000FC9112978681978190933D0380933C03F3
:1013F00020933F030895CF93DF93DC011596ED9181
:10140000FC911697C681D781AC89BD894E855F85D1
:1014100088899989FA019583848328893989F90112
:1014200053834283AE01445F5F4F11968D919C912F
:1014300012978417950721F412963C932E931197D7
:101440001D8A1C8A8C9181508C9380913E03882345
:1014500009F055C0AA85BB854C815D818E819F8135
:10146000FA01958384832E813F81F901538342835E
:10147000AE014E5F5F4F11968D919C91129784172C
:10148000950721F412963C932E9311971B861A868A
:101490008C9181508C939E8980913F03891710F421
:1014A00090933F03892F90E0FC0163E0EE0FFF1F54
:1014B0006A95E1F7E80FF91FE25BFC4FA181B28169
:1014C000BD83AC8314968D919C9115979F838E83D9
:1014D0001496ED91FC9115975383428315965C9376
:1014E0004E931497EE8989E0E89FF0011124E25BA6
:1014F000FC4FFB87EA8780818F5F80831FC0A091AC
:101500008903B0918A03BF87AE8714968D919C9111
:101510001597998B888B1496ED91FC9115975383B1
:10152000428315965C934E93149788E893E09D8BC5
:101530008C8B809188038F5F80938803E0913C03BC
:10154000F0913D039E898689891710F080E003C0E1
:1015500081E080934003DF91CF910895CF93DF9393
:10156000DC01706811967C936E9316962D913C91D8
:1015700017971896CD91DC91199712966D917C91E1
:10158000139714968D919C911597FB0195838483F5
:1015900014964D915C911597FA017383628389814A
:1015A0009A818A179B0711F45A83498319961C92D2
:1015B0001E921897888181508883E901AA85BB858E
:1015C0004C815D818E819F81FA01958384830E8099
:1015D000DF81C02D5B834A83A9014E5F5F4F119667
:1015E0008D919C9112978417950721F41296DC93A4
:1015F000CE931197E9011B861A868C9181508C93AA
:101600009E8980913F03891710F490933F03892F9F
:1016100090E0FC0173E0EE0FFF1F7A95E1F7E80F11
:10162000F91FE25BFC4FA181B281F901B583A4836C
:1016300014968D919C911597978386831496ED91BE
:10164000FC9115975383428315965C934E931497A0
:10165000D9015696EC91569789E0E89FF001112444
:10166000E25BFC4F1B96FC93EE931A9780818F5F91
:101670008083E0913C03F0913D0356969C918689CE
:10168000891718F481E080934003DF91CF9108958A
:10169000FC010FB6F8940F928091450380838091EE
:1016A000410390914203928381830F900FBE08956E
:1016B000FC01809145038083809141039091420316
:1016C000928381830895DC01FB010FB6F8940F9299
:1016D000409141035091420311962D913C911297F4
:1016E000909145038C91981719F042175307D0F445
:1016F000CA01821B930B9C018081918128173907B5
:1017000088F4821B930B91838083809145038C9393
:10171000809141039091420312969C938E9311976E
:1017200080E003C01182108281E00F900FBE089507
:1017300081E080934003089520913C0330913D0364
:10174000C9010895E0913C03F0913D03848595859E
:10175000A0913C03B0913D03E0913C03F0913D0327
:10176000468924E030E0241B31091D963C932E93DA
:101770001C970895CF92DF92EF92FF920F93CF9331
:10178000DF93EC01E114F10489F0E62FF0E0EE0FB5
:10179000FF1FEE0FFF1FE80FF91F83A194A1A5A162
:1017A000B6A1F70180839183A283B383A62FB0E013
:1017B000FE01EA0FFB1F67A182E087A30230D1F090
:1017C000033018F40130C9F505C0033051F104307D
:1017D000A1F523C0FD01EE0FFF1FEE0FFF1FEC0F61
:1017E000FD1F83A194A1A5A1B6A1822B932BA42BAD
:1017F000B52B0EC0FD01EE0FFF1FEE0FFF1FEC0F0C
:10180000FD1F83A194A1A5A1B6A10196A11DB11DA3
:1018100083A394A3A5A3B6A310C0623011F480E003
:101820009DC0AA0FBB1FAA0FBB1FAC0FBD1F939675
:101830002D933D934D935C939697613009F08DC045
:1018400080913E03882309F055C0AA85BB854C8151
:101850005D818E819F81FA01958384832E813F81F2
:10186000F90153834283AE014E5F5F4F11968D9114
:101870009C9112978417950721F412963C932E930E
:1018800011971B861A868C9181508C939E8980912A
:101890003F03891710F490933F03892F90E0FC01D8
:1018A000A3E0EE0FFF1FAA95E1F7E80FF91FE25B37
:1018B000FC4FA181B281BD83AC8314968D919C9124
:1018C00015979F838E831496ED91FC911597538302
:1018D000428315965C934E931497EE8989E0E89FB6
:1018E000F0011124E25BFC4FFB87EA8780818F5F68
:1018F000808321C0A0918903B0918A03BF87AE87FE
:1019000014968D919C911597998B888BCE010C968E
:101910001496ED91FC9115979383828315969C9371
:101920008E93149788E893E09D8B8C8B809188032D
:101930008F5F80938803E0913C03F0913D039E8983
:101940008689891750F4C114D10419F081E0F60199
:10195000808381E08093400301C081E0DF91CF91DB
:101960000F91FF90EF90DF90CF900895CF93DF938A
:10197000EC01E62FBA01F0E0DC01AE0FBF1F979635
:101980002C91979782E097968C93EE0FFF1FEE0FA6
:10199000FF1FEC0FFD1F83A194A1A5A1B6A1019685
:1019A000A11DB11D83A394A3A5A3B6A3213009F063
:1019B0008CC080913E03882309F055C0AA85BB8561
:1019C0004C815D818E819F81FA01958384832E8174
:1019D0003F81F90153834283AE014E5F5F4F119601
:1019E0008D919C9112978417950721F412963C9340
:1019F0002E9311971B861A868C9181508C939E8909
:101A000080913F03891710F490933F03892F90E052
:101A1000FC01A3E0EE0FFF1FAA95E1F7E80FF91F05
:101A2000E25BFC4FA181B281BD83AC8314968D91A2
:101A30009C9115979F838E831496ED91FC91159739
:101A40005383428315965C934E931497EE8989E0F5
:101A5000E89FF0011124E25BFC4FFB87EA8780815D
:101A60008F5F808321C0A0918903B0918A03BF87D3
:101A7000AE8714968D919C911597998B888BCE018A
:101A80000C961496ED91FC9115979383828315968D
:101A90009C938E93149788E893E09D8B8C8B809118
:101AA00088038F5F80938803E0913C03F0913D03AE
:101AB0009E898689891748F46115710519F081E0BE
:101AC000FB01808381E080934003DF91CF910895F3
:101AD000009721F480913C0390913D030FB6F89458
:101AE0000F92FC01E60FF11D87A1823011F080E01A
:101AF00002C017A281E00F900FBE0895EF92FF92EF
:101B00000F931F9379018A01009721F480913C0380
:101B100090913D030FB6F8940F92E62FF0E0EE0F90
:101B2000FF1FEE0FFF1FE80FF91F23A134A145A1EE
:101B300056A183A194A1A5A1B6A1E094F09400952B
:101B400010958E219F21A023B12383A394A3A5A345
:101B5000B6A30F900FBEB901CA011F910F91FF905C
:101B6000EF900895EF92FF920F93CF93DF93EC01E4
:101B70000FB6F8940F92E114F10489F0E62FF0E02B
:101B8000EE0FFF1FEE0FFF1FEC0FFD1F83A194A1AF
:101B9000A5A1B6A1F70180839183A283B383A62F69
:101BA000B0E0FE01EA0FFB1F67A182E087A30230CD
:101BB000D1F0033018F40130C9F505C0033051F1FC
:101BC0000430A1F523C0FD01EE0FFF1FEE0FFF1F34
:101BD000EC0FFD1F83A194A1A5A1B6A1822B932B8D
:101BE000A42BB52B0EC0FD01EE0FFF1FEE0FFF1F44
:101BF000EC0FFD1F83A194A1A5A1B6A10196A11D83
:101C0000B11D83A394A3A5A3B6A310C0623011F4A1
:101C100080E06EC0AA0FBB1FAA0FBB1FAC0FBD1F79
:101C200093962D933D934D935C939697613009F075
:101C30005EC0AA85BB854C815D818E819F81FA0142
:101C4000958384832E813F81F90153834283AE01C2
:101C50004E5F5F4F11968D919C9112978417950757
:101C600021F412963C932E9311971B861A868C9121
:101C700081508C939E8980913F03891710F4909333
:101C80003F03892F90E0FC0133E0EE0FFF1F3A95F0
:101C9000E1F7E80FF91FE25BFC4FA181B281BD8340
:101CA000AC8314968D919C9115979F838E83149687
:101CB000ED91FC9115975383428315965C934E9357
:101CC0001497EE8989E0E89FF0011124E25BFC4F54
:101CD000FB87EA8780818F5F8083E0913C03F091EE
:101CE0003D039E898689891710F40E94EE0281E0E7
:101CF0000F900FBEDF91CF910F91FF90EF9008955D
:101D00001F93CF93DF930FB6F8940F9280913E0309
:101D1000815080933E0380913E03882309F0C7C021
:101D200080914803882309F4C2C0C0E0D0E079E084
:101D300061E084C0E0918D03F0918E03C681D7816C
:101D4000AC89BD892E853F8588899989F90195835C
:101D5000848348895989FA01338322839E01245F51
:101D60003F4F11968D919C9112978217930721F402
:101D700012965C934E9311971D8A1C8A8C91815008
:101D80008C93AA85BB854C815D818E819F81FA01F0
:101D9000958384832E813F81F90153834283AE0171
:101DA0004E5F5F4F11968D919C9112978417950706
:101DB00021F412963C932E9311971B861A868C91D0
:101DC00081508C939E8980913F03891710F49093E2
:101DD0003F03892F90E0FC0123E0EE0FFF1F2A95BF
:101DE000E1F7E80FF91FE25BFC4FA181B281BD83EF
:101DF000AC8314968D919C9115979F838E83149636
:101E0000ED91FC9115975383428315965C934E9305
:101E10001497EE89E79FF0011124E25BFC4FFB87EA
:101E2000EA8780818F5F8083E0913C03F0913D03DE
:101E30009E898689981710F06093400380918803EB
:101E4000882309F077CFCD2BB9F0E0918403F0918E
:101E500085038081882319F48FEF9FEF09C0E091FB
:101E60008403F09185030580F681E02D80819181C6
:101E70009093440380934303C0914603D09147035A
:101E8000209769F011E00E94A908882311F01093AF
:101E900040032197C1F710924703109246038091A7
:101EA0004003882321F00E94EE0281E001C080E01F
:101EB0000F900FBEDF91CF911F91089520913E03A7
:101EC0002F5F20933E030FB6F8940F9220914603A4
:101ED00030914703280F391F30934703209346035F
:101EE0000F900FBE0E94800E08950F931F93CF9303
:101EF000DF93EC01009141031091420380913C0378
:101F000090913D0302960E94AC03C00FD11FE09157
:101F10003C03F0913D03D383C283C017D10768F41B
:101F2000809186039091870360913C0370913D03FB
:101F30006E5F7F4F0E947A0317C080918403909157
:101F4000850360913C0370913D036E5F7F4F0E945B
:101F50007A038091430390914403C817D90720F472
:101F6000D0934403C0934303DF91CF911F910F910E
:101F700008958F929F92AF92BF92CF92DF92EF928D
:101F8000FF920F931F93CF93DF9348015901E7010D
:101F90000FB6F8940F92E0913C03F0913D03E82EC8
:101FA000FF24EE0DFF1D87A1823061F1E0913C031B
:101FB000F0913D03C701880F991F880F991FE80F03
:101FC000F91F83A194A1A5A1B6A140955095609554
:101FD000709584239523A623B72383A394A3A5A355
:101FE000B6A3E0913C03F0913D03EE0DFF1D81E0AF
:101FF00087A3C114D10431F0C60161E00E94750FBE
:102000000E94EE020F900FBE0FB6F8940F92209729
:1020100099F0E0913C03F0913D03C701880F991FAF
:10202000880F991FE80FF91F83A194A1A5A1B6A15C
:1020300088839983AA83BB83E0913C03F0913D039D
:10204000EE0DFF1D87A1823011F080E01CC0E091F1
:102050003C03F0913D03C701880F991F880F991F1A
:10206000E80FF91F83A194A1A5A1B6A18094909433
:10207000A094B09488219921AA21BB2183A394A381
:10208000A5A3B6A381E0E0913C03F0913D03EE0DE2
:10209000FF1D17A20F900FBEDF91CF911F910F91DF
:1020A000FF90EF90DF90CF90BF90AF909F908F9078
:1020B00008951F93CF93DF93162F0FB6F8940F92C6
:1020C000E0913C03F0913D03C82FD0E0CE01880F92
:1020D000991F880F991FE80FF91F83A194A1A5A14B
:1020E000B6A10097A105B10589F4E0913C03F091F8
:1020F0003D03EC0FFD1F81E087A34115510531F031
:10210000CA0161E00E94750F0E94EE020F900FBE9F
:102110000FB6F8940F92E0913C03F0913D03CE018D
:10212000880F991F880F991FE80FF91F23A134A169
:1021300045A156A12115310541055105F9F011239D
:1021400059F0E0913C03F0913D03E80FF91F13A211
:1021500014A215A216A212C0E0913C03F0913D0317
:102160002150304040405040E80FF91F23A334A3D2
:1021700045A356A32F5F3F4F4F4F5F4FE0913C0366
:10218000F0913D03EC0FFD1F17A20F900FBEB90198
:10219000CA01DF91CF911F9108950F931F938C0176
:1021A000CA01E0913C03F0913D0370687587648734
:1021B000F801A181B281E0913C03F0913D03B78722
:1021C000A687E0913C03F0913D0314962D913C913C
:1021D0001597318B208B20913C0330913D03149651
:1021E000ED91FC911597245F3F4F3383228320911B
:1021F0003C0330913D03245F3F4F15963C932E9353
:102200001497E0913C03F0913D03158B048BF8018A
:1022100020812F5F208361E00E94750F1F910F9135
:1022200008959C01009769F080913E038F5F809331
:102230003E03C90160E00E94750F0E94800E882352
:1022400011F40E94EE0208951F93FC0180913E0359
:102250008F5F80933E0380914103909142032081E0
:102260003181620F731F8217930728F46217730777
:1022700028F010E008C06217730720F010E08617FE
:10228000970708F411E071836083112339F09B01F3
:10229000281B390BC90160E00E94750F0E94800E57
:1022A000882311F40E94EE02812F1F9108950F934D
:1022B0001F938B0160913C0370913D03645F7F4FDE
:1022C0000E947A03C80161E00E94750F1F910F916F
:1022D0000895F894109249030E948D0208950F9377
:1022E0001F9321C00FB6F8940F92E0919603F091DE
:1022F000970306811781C80102960E94AC03809162
:10230000480381508093480380914C03815080930F
:102310004C030F900FBEF8018789908D0E94FB003F
:10232000C8010E94FB0080914C038823D9F680915C
:102330004E038230C0F30E94EE02F5CF0F931F933D
:10234000CF93DF930FB6F8940F92009711F0EC0142
:1023500004C0C0913C03D0913D038E010E5F1F4F1E
:10236000C8010E94AC038C899D89892B21F0CE0184
:102370000C960E94AC0380914D038F5F80934D03B8
:1023800080913C0390913D03C817D90759F481E926
:1023900093E0B8010E945B0380914C038F5F8093B0
:1023A0004C031CC080914803815080934803E09106
:1023B0008403F09185038081882319F48FEF9FEFC8
:1023C00009C0E0918403F09185030580F681E02D3A
:1023D0008081918190934403809343030F900FBEBB
:1023E00080913C0390913D03C817D90739F08F893C
:1023F000988D0E94FB00CE010E94FB008091490352
:10240000882349F080913C0390913D03C817D90778
:1024100011F40E94EE02DF91CF911F910F91089568
:102420004F925F926F927F928F929F92AF92BF92E4
:10243000CF92DF92EF92FF920F931F93CF93DF9390
:102440002C015B016A0139014701CA010E942B017D
:102450007C010097A9F088E290E00E942B01EC013A
:10246000009759F088E2FE0111928A95E9F7F88EFB
:10247000EF8AA114B10431F415C0C7010E94FB001A
:102480008FEFD8C0F501DE0190E0808159968C93E2
:1024900059978081882329F09F5F319611969A3051
:1024A000A1F71AA2043008F003E00E8B52E0A52E2B
:1024B000B12CAC0EBD1EC5010E945703CE010C9677
:1024C0000E945703D987C88784E090E0801B910958
:1024D0009D878C87DB8BCA8B0894C108D108C70104
:1024E0008C0D9D1DB201A3010E9410029983888367
:1024F0008114910419F0F401D183C0830FB6F894CC
:102500000F92809148038F5F8093480380913C0332
:1025100090913D03892BA9F5D0933D03C0933C03D3
:10252000809148038130E9F58EE493E00E944703EF
:1025300087E593E00E94470380E693E00E9447030B
:1025400089E693E00E94470342E7E42E43E0F42E3D
:10255000C7010E9447030BE713E0C8010E9447032D
:1025600088E893E00E94470381E993E00E944703D3
:10257000F0928503E092840310938703009386030F
:1025800010C080914903882361F4E0913C03F091ED
:102590003D0396898E89891720F0D0933D03C0931F
:1025A0003C0380914D038F5F80934D039E89809102
:1025B0003F03891710F490933F03892F90E0FC01AB
:1025C00033E0EE0FFF1F3A95E1F7E80FF91FE25BEA
:1025D000FC4FA181B281BD83AC8314968D919C91F7
:1025E00015979F838E831496ED91FC911597B38276
:1025F000A2821596BC92AE921497EE8989E0E89F6C
:10260000F0011124E25BFC4FFB87EA8780818F5F3A
:1026100080830F900FBE80914903882351F0E09191
:102620003C03F0913D0396898E89981710F40E941F
:10263000EE0281E0DF91CF911F910F91FF90EF901B
:10264000DF90CF90BF90AF909F908F907F906F90D2
:102650005F904F900895EF92FF920F938FE691E174
:1026600060E670E045E550E020E030E000E0EAE4BC
:10267000EE2EE3E0FE2E0E941012813081F4F894D9
:102680008FEF9FEF909344038093430381E0809307
:10269000490310924203109241030E945802809114
:1026A00085000F91FF90EF90089590BD89B9549ADD
:1026B000539A80B5866A80BD08958CB98BB1829596
:1026C0008695869583708130C9F75E9A08955F9BE1
:1026D000FECF8CB10895FC010AC08CB98BB18295F4
:1026E0008695869583708130C9F75E9A3196808190
:1026F000882399F70895AC0120E05F9BFECF8CB151
:10270000FA01E20FF11D8083833211F02F5FF5CFC4
:1027100008958CB90895DC01E0EAF3E08C918083A0
:102720008C91882331F01196319684E0E430F807DB
:10273000A9F7E0919A03F0E0E056FC4F80818CB954
:102740000895809104040895A5E0B4E0FC018C9103
:1027500080838C91882331F01196319684E0A936DC
:10276000B807A9F71092040408951F920F920FB6AC
:102770000F921124EF93FF93E0919A03EF5FE093A0
:102780009A03F0E0E056FC4FE081E111ECB9FF91D3
:10279000EF910F900FBE0F901F9018951F920F9200
:1027A0000FB60F9211248F939F93EF93FF93909105
:1027B0009B03E92FF0E08CB1EB5FFB4F808383320A
:1027C00039F4108210929B0381E08093040403C0CB
:1027D0009F5F90939B03FF91EF919F918F910F903B
:1027E0000FBE0F901F9018958FEF8FB9779BFECF7C
:1027F0008FB108958FB9779BFECF8FB10895779BE6
:10280000FECF8FB108958FB908951F93182F81E0DF
:1028100064E040E00E9429151FB9779BFECF81E05C
:1028200064E041E00E9429151F91089581E065E070
:1028300040E00E94BB1481E064E040E00E94BB14D1
:1028400081E067E040E00E94BB1481E066E041E087
:102850000E94BB148DB180648F7E8DB9089581E094
:1028600065E041E00E94BB1481E064E041E00E9429
:10287000BB1481E067E041E00E94BB1481E066E0A8
:1028800040E00E94BB1481E064E041E00E94291511
:102890008DB180658DB9089588E480B986B7846468
:1028A00086BF0895109A92B1880F982B92B986B777
:1028B000846486BF089584EA86BF06B607FEFDCF0E
:1028C00081B190E0887F883009F491E0892F0895E4
:1028D00086B7846A86BF06B607FEFDCF81B190E059
:1028E000887F803109F491E0892F089586B78F7D24
:1028F00086BF86B7846986BF089583B986B78F7D02
:1029000086BF86B7846886BF06B607FEFDCF81B155
:1029100090E0887F883209F491E0892F0895880F2C
:1029200083B986B7846886BF06B607FEFDCF81B13E
:1029300090E0887F883109F491E0892F0895880F0D
:10294000816083B986B7846886BF06B607FEFDCF6F
:1029500081B190E0887F803409F491E0892F089557
:1029600086B7846886BF06B607FEFDCF83B108959B
:1029700081B1887F0895813009F1813030F0823053
:10298000B1F1833009F064C04BC0413059F42AB32F
:1029900081E090E002C0880F991F6A95E2F7282B2A
:1029A0002ABB08952AB381E090E002C0880F991FE6
:1029B0006A95E2F7809582238ABB0895413059F4E5
:1029C00027B381E090E002C0880F991F6A95E2F773
:1029D000282B27BB089527B381E090E002C0880F21
:1029E000991F6A95E2F78095822387BB089541304D
:1029F00059F424B381E090E002C0880F991F6A95D2
:102A0000E2F7282B24BB089524B381E090E002C0B4
:102A1000880F991F6A95E2F78095822384BB0895F9
:102A2000413059F421B381E090E002C0880F991F32
:102A30006A95E2F7282B21BB089521B381E090E04D
:102A400002C0880F991F6A95E2F78095822381BBA7
:102A50000895813009F1813030F08230B1F1833056
:102A600009F064C04BC0442361F42BB381E090E0D3
:102A700002C0880F991F6A95E2F7809582238BBB6D
:102A800008952BB381E090E002C0880F991F6A95EA
:102A9000E2F7282B2BBB0895442361F428B381E08F
:102AA00090E002C0880F991F6A95E2F78095822313
:102AB00088BB089528B381E090E002C0880F991F79
:102AC0006A95E2F7282B28BB0895442361F425B3C7
:102AD00081E090E002C0880F991F6A95E2F7809527
:102AE000822385BB089525B381E090E002C0880F62
:102AF000991F6A95E2F7282B25BB0895442361F4BA
:102B000022B381E090E002C0880F991F6A95E2F736
:102B10008095822382BB089522B381E090E002C0B9
:102B2000880F991F6A95E2F7282B22BB0895089514
:102B3000813091F0813028F08230C9F0833061F526
:102B400021C02BB381E090E002C0880F991F6A95E5
:102B5000E2F728272BBB089528B381E090E002C05C
:102B6000880F991F6A95E2F7282728BB089525B397
:102B700081E090E002C0880F991F6A95E2F728274C
:102B800025BB089522B381E090E002C0880F991F11
:102B90006A95E2F7282722BB0895813051F08130F1
:102BA00030F0823041F0833079F080E0089589B3CD
:102BB00003C086B301C083B390E002C095958795AA
:102BC0006A95E2F78170089580B390E002C0959510
:102BD00087956A95E2F781700895813091F0813090
:102BE00028F08230C9F0833061F521C02BB381E039
:102BF00090E002C0880F991F6A95E2F7282B2BBB43
:102C0000089528B381E090E002C0880F991F6A956B
:102C1000E2F7282B28BB089525B381E090E002C09D
:102C2000880F991F6A95E2F7282B25BB089522B3D8
:102C300081E090E002C0880F991F6A95E2F7282B87
:102C400022BB089580E062E041E00E94291585E002
:102C50008A95F1F780E062E040E00E94291580E467
:102C60009FE10197F1F708951F93182F80E063E02B
:102C700041E00E942915412F4295417081E060E0BA
:102C80000E942915412F42954695417081E061E0EF
:102C90000E942915412F429546954695417081E045
:102CA00062E00E942915412F441F4427441F81E000
:102CB00064E00E9429150E942216412F417081E094
:102CC00060E00E942915412F4695417081E061E046
:102CD0000E94291516951695412F417081E062E0FA
:102CE0000E9429151695117081E064E0412F0E9421
:102CF00029150E9422161F910895AF92BF92CF927C
:102D0000DF92EF92FF920F93DF93CF93CDB7DEB7B1
:102D10002C970FB6F894DEBF0FBECDBF6B017C01C0
:102D2000611571058105910521F480E30E94341637
:102D300043C097FF0BC08DE20E943416F094E094DC
:102D4000D094C094C11CD11CE11CF11CFE01319631
:102D50008AE0DF011D928A95E9F700E05F01F50145
:102D6000E00FF11DFC87EB87C701B6012AE030E0D8
:102D700040E050E00E948D1AAB85BC856C93C70182
:102D8000B6012AE030E040E050E00E948D1AC9010F
:102D9000DA016C017D010F5FC114D104E104F1047B
:102DA000F1F608C0FE01E00FF11D8081805D0E94F8
:102DB000341601500023B1F72C960FB6F894DEBFFD
:102DC0000FBECDBFCF91DF910F91FF90EF90DF90BD
:102DD000CF90BF90AF9008950E9434160895CF937E
:102DE000DF93EC0103C00E9434162196888188236A
:102DF000D1F7DF91CF9108951F93182F80EA9FE0BC
:102E00000197F1F780E063E040E00E942915412F2F
:102E10004295417081E060E00E942915412F429562
:102E20004695417081E061E00E942915412F42954D
:102E300046954695417081E062E00E942915412F38
:102E4000441F4427441F81E064E00E9429150E942A
:102E50002216412F417081E060E00E942915412F28
:102E60004695417081E061E00E94291516951695FE
:102E7000412F417081E062E00E9429151695117082
:102E800081E064E0412F0E9429150E9422161F91C3
:102E9000089581E00E94FC1680E29EE40197F1F71C
:102EA0000895CF92DF92FF920F931F93CF93DF93FA
:102EB00000E010E090E4C92ED12C8C2D0E94FC166D
:102EC000E80183E0CC0FDD1F8A95E1F7CA57DF4F99
:102ED000FF2489910E943416F39488E0F816C9F70C
:102EE0000F5F1F4F88E090E0C80ED91E0830110513
:102EF00021F7DF91CF911F910F91FF90DF90CF903D
:102F00000895813051F0813028F0823049F08330CB
:102F100081F40BC0862F805805C0862F805402C0D4
:102F2000862F8C560E94FC160895862F8C520E9484
:102F3000FC16089580E063E041E00E94BB1480E04D
:102F400062E041E00E94BB1481E060E041E00E9449
:102F5000BB1481E061E041E00E94BB1481E062E0CB
:102F600041E00E94BB1481E064E041E00E94BB1498
:102F700028EC30E040E951E0CA010197F1F7215017
:102F80003040D1F783E00E94FC1680E29EE4019776
:102F9000F1F783E00E94FC1680E991E00197F1F7D8
:102FA00083E00E94FC1682E00E94FC1688E20E94E8
:102FB000FC168CE00E94FC160E9451170E944917D3
:102FC00080E060E00E94811708951F9383E067E02E
:102FD0000E94CD15882311F411E019C083E066E04A
:102FE0000E94CD15882311F412E011C083E065E042
:102FF0000E94CD15882311F413E009C083E063E03B
:103000000E94CD15882311F414E001C010E082E085
:1030100065E041E00E94291582E064E041E00E9401
:10302000291582E063E041E00E94291582E062E018
:1030300041E00E942915812F1F910895FF920F935F
:103040001F93082F82E065E040E00E9429150E944E
:10305000E517F82E82E065E041E00E94291582E044
:1030600064E040E00E9429150E94E517801711F4E2
:1030700012E004C010E0F01609F411E082E064E010
:1030800041E00E94291582E063E040E00E9429159A
:103090000E94E517801709F413E082E063E041E045
:1030A0000E94291582E062E040E00E9429150E94FA
:1030B000E517801709F414E082E065E040E00E9423
:1030C000291582E064E040E00E94291582E063E077
:1030D00040E00E94291582E062E040E00E9429154C
:1030E000812F1F910F91FF90089583E067E00E9468
:1030F000CD15882399F083E066E00E94CD158823E2
:1031000069F083E065E00E94CD15882339F083E003
:1031100063E00E94CD1590E0882309F491E0892FA7
:1031200008951F930E947518813011F08FEF1BC016
:103130000E94E517182F0E941E1824EC39E040E980
:1031400051E0DA011197F1F721503040D1F7E82F23
:10315000F0E0EE0FFF1FEE0FFF1FEE53FF4FE10FEA
:10316000F11D319780811F91089582E065E041E073
:103170000E94BB1482E064E041E00E94BB1482E044
:1031800063E041E00E94BB1482E062E041E00E9403
:10319000BB1483E067E040E00E94BB1483E066E07C
:1031A00040E00E94BB1483E065E040E00E94BB1455
:1031B00083E063E040E00E94BB1482E065E040E011
:1031C0000E94291582E064E040E00E94291582E017
:1031D00063E040E00E94291582E062E040E00E9446
:1031E00029150895089508950F931F93182F092FF7
:1031F00083E060E041E00E94BB1400650E945B1424
:10320000802F0E948F14812F0E947D140E946814C9
:10321000813029F483E060E041E00E942915802F8D
:103220000E949F140E94B014182F0E947614812FC0
:103230001F910F910895FF920F931F93F82E8B010A
:103240000E945B14812F80650E948F14802F0E9442
:103250007D148F2D0E947D140E9476141F910F9172
:10326000FF9008950E944C140895813051F08130F0
:1032700028F0823071F0833081F406C081E067E08D
:1032800005C080E066E002C080E064E00E9498151E
:10329000089580E065E00E9498150895813051F00E
:1032A000813028F0823079F0833091F406C081E0DB
:1032B00067E005C080E066E002C080E064E040E0D6
:1032C0000E942915089580E065E040E00E942915DC
:1032D0000895813051F0813028F0823079F08330C8
:1032E00091F406C081E067E005C080E066E002C0BE
:1032F00080E064E041E00E942915089580E065E0E7
:1033000041E00E9429150895813051F0813028F064
:10331000823079F0833091F406C081E067E005C027
:1033200080E066E002C080E064E041E00E94BB14FF
:10333000089580E065E041E00E94BB14089581306B
:10334000E1F0813038F0823051F1833009F43BC034
:1033500081E0089583E063E00E94CD15882309F0A1
:1033600045C088EE93E020E931E0F9013197F1F7AB
:103370000197D9F783E063E023C083E065E00E9412
:10338000CD15882399F588EE93E020E931E0F90125
:103390003197F1F70197D9F783E065E011C083E039
:1033A00066E00E94CD15882309F588EE93E020E9B8
:1033B00031E0F9013197F1F70197D9F783E066E041
:1033C0000E94CD15089583E067E00E94CD15882303
:1033D00069F488EE93E020E931E0F9013197F1F7E3
:1033E0000197D9F783E067E00E94CD1508958130F9
:1033F00079F0813028F0823099F0833021F51AC0BD
:1034000083E063E040E00E94BB1483E063E00FC010
:1034100083E065E040E00E94BB1483E065E007C004
:1034200083E066E040E00E94BB1483E066E00E9417
:10343000ED15089583E067E040E00E94BB1483E04F
:1034400067E00E94ED15089580E00E94691982E00E
:103450000E944E1985E690E00E94EF1688EE93E0F8
:103460000E9411110E944917EFCF82E00E94691952
:1034700080E00E944E198DE690E00E94EF1688EEE3
:1034800093E00E9411110E944917EFCF80E00E9443
:10349000841982E00E9484190E949A170895EF927D
:1034A000FF920F930E94461A85E39AE166E770E067
:1034B00044E650E020E030E001E0FCE9EF2EF3E0EC
:1034C000FF2E0E94101284E29AE16DE770E044E65C
:1034D00050E020E030E0EEE9EE2EE3E0FE2E0E9428
:1034E00010120E942B1380E090E00F91FF90EF905C
:1034F0000895AA1BBB1B51E107C0AA1FBB1FA6173B
:10350000B70710F0A61BB70B881F991F5A95A9F78C
:1035100080959095BC01CD01089597FB092E052655
:103520000ED057FD04D014D00AD0001C38F45095AA
:103530004095309521953F4F4F4F5F4F0895F6F7D7
:1035400090958095709561957F4F8F4F9F4F08950F
:10355000A1E21A2EAA1BBB1BFD010DC0AA1FBB1F97
:10356000EE1FFF1FA217B307E407F50720F0A21B09
:10357000B30BE40BF50B661F771F881F991F1A9476
:1035800069F760957095809590959B01AC01BD01A0
:10359000CF010895FB01DC0102C001900D92415062
:1035A0005040D8F70895DC0101C06D934150504060
:0835B000E0F70895F894FFCF45
:1035B80049444C45004C454420524544004C454440
:1035C80020424C5545004C45445F4F4E004C454405
:1035D8005F4F464600030A1F1F1F1F0E0400041FEB
:1035E80011111111111F041F111111111F1F041F97
:1035F8001111111F1F1F041F11111F1F1F1F041F4F
:10360800111F1F1F1F1F041F1F1F1F1F1F1F000029
:103618000101050515153132334134353642373845
:0636280039434630454421
:00000001FF
