:100000000C942A000C9447000C9447000C94470071
:100010000C9447000C9447000C9447000C94AC0CD3
:100020000C9447000C9447000C9447000C94470034
:100030000C9447000C943D2A0C9447000C94072A1A
:100040000C9447000C9447000C9447000C94470014
:100050000C94470011241FBECFE5D8E0DEBFCDBF12
:1000600011E0A0E6B0E0E0EDF9E702C005900D92E6
:10007000A230B107D9F718E0A2E0B1E001C01D92AB
:10008000A531B107E1F70E94293A0C94E63C0C94A3
:100090000000EF92FF920F931F937B018C0120E0F1
:1000A00030E040E05FE40E94F50388238CF0C80153
:1000B000B70120E030E040E05FE40E94C1010E940F
:1000C00055049B01AC01205030404040504806C0D0
:1000D000C801B7010E9455049B01AC01B901CA01D6
:1000E0001F910F91FF90EF900895A0E0B0E0EBE733
:1000F000F0E00C949F3CDC012B01FA019C919230C2
:1001000008F439C1EB018881823008F433C194309E
:1001100069F4843009F02FC111969C91119789815F
:10012000981709F428C1A7EAB0E025C1843009F482
:1001300021C18230A9F4923009F01DC19A01AD01AC
:1001400088E0EA010990AE01E90109929E0181501F
:10015000C1F7E201898111969C918923818308C1AD
:10016000923009F407C112962D903C901397EB0141
:100170008A819B811496AD90BD90CD90DC901797AD
:10018000EC80FD800E811F819101281B390BB90184
:1001900037FF04C066277727621B730B6032710537
:1001A0000CF061C0121613066CF537014801062EDB
:1001B00004C096948794779467940A94D2F721E0C8
:1001C00030E040E050E004C0220F331F441F551FB1
:1001D0006A95D2F721503040404050402E213F21B7
:1001E00040235123211531054105510521F021E01E
:1001F00030E040E050E079018A01E628F72808293C
:1002000019293CC0232BD1F1260E371E350146019A
:10021000062E04C096948794779467940A94D2F734
:1002200021E030E040E050E004C0220F331F441FC3
:10023000551F6A95D2F721503040404050402A2146
:100240003B214C215D21211531054105510521F04E
:1002500021E030E040E050E059016A01A628B728CB
:10026000C828D9280BC0821593052CF01C01AA249C
:10027000BB24650103C0EE24FF24870111969C91E5
:10028000D20111968C91981709F445C0992339F041
:10029000A80197012A193B094C095D0906C0A6016E
:1002A00095012E193F09400B510B57FD08C01182D3
:1002B0003382228224833583468357831DC081E0A5
:1002C00081833382228288279927DC01821B930B4A
:1002D000A40BB50B84839583A683B7830DC0220F2F
:1002E000331F441F551F24833583468357838281E0
:1002F000938101979383828324813581468157813D
:10030000DA01C9010197A109B1098F5F9F4FAF4F72
:10031000BF4328F30BC0918333822282EA0CFB1C7B
:100320000C1D1D1DE482F5820683178383E0808304
:10033000248135814681578157FF1AC0C901AA27F8
:1003400097FDA095BA2F81709070A070B0705695EF
:10035000479537952795822B932BA42BB52B848318
:100360009583A683B7838281938101969383828349
:10037000DF0101C0D201CD01CDB7DEB7E2E10C94BF
:10038000BB3CA0E2B0E0E7ECF1E00C94AB3C69834D
:100390007A838B839C832D833E834F835887E9E048
:1003A000EE2EF12CEC0EFD1ECE010196B7010E943F
:1003B0007E058E010F5E1F4FCE010596B8010E948B
:1003C0007E058A8991E089278A8BC701B801AE0131
:1003D000475E5F4F0E9475000E94A904A096E6E068
:1003E0000C94C73CA0E2B0E0E8EFF1E00C94AB3C29
:1003F00069837A838B839C832D833E834F835887C5
:10040000F9E0EF2EF12CEC0EFD1ECE010196B701A6
:100410000E947E058E010F5E1F4FCE010596B8012A
:100420000E947E05C701B801AE01475E5F4F0E9482
:1004300075000E94A904A096E6E00C94C73CA0E2D7
:10044000B0E0E5E2F2E00C949F3C69837A838B8311
:100450009C832D833E834F835887CE010196BE0136
:10046000675F7F4F0E947E05CE010596BE016F5EDD
:100470007F4F0E947E059985923088F0898982306D
:10048000C8F0943019F4823051F404C0843029F457
:10049000923081F487EA90E0C6C0923049F420E0BF
:1004A0009A858A89981321E02A87CE010996BBC0D4
:1004B000823049F420E09A858A89981321E02A8BBA
:1004C000CE014196B0C02D843E844F8458886D88FB
:1004D0007E888F88988CEE24FF248701AA24BB2471
:1004E000650140E050E060E070E0E0E0F0E0C10174
:1004F00081709070892BE9F0E60CF71C081D191D1E
:100500009A01AB012A0D3B1D4C1D5D1D80E090E062
:10051000A0E0B0E0E614F7040805190520F481E036
:1005200090E0A0E0B0E0BA01A901480F591F6A1F8E
:100530007B1FAA0CBB1CCC1CDD1C97FE08C081E0F5
:1005400090E0A0E0B0E0A82AB92ACA2ADB2A3196B6
:10055000E032F10549F0660C771C881C991C569412
:10056000479437942794C3CFFA85EA892B893C892D
:100570008B859C85280F391F2E5F3F4F17C0CA01FE
:1005800081709070892B61F016950795F794E79428
:1005900080E090E0A0E0B0E8E82AF92A0A2B1B2BC3
:1005A00076956795579547952F5F3F4F77FDE7CF36
:1005B0000CC0440F551F661F771F17FD4160EE0CDE
:1005C000FF1C001F111F21503040403090E05907A0
:1005D00090E0690790E4790760F32B8F3C8FDB0193
:1005E000CA018F779070A070B07080349105A1051A
:1005F000B10561F447FD0AC0E114F10401051105DC
:1006000029F0405C5F4F6F4F7F4F40781A8EFE1786
:1006100011F081E08A8F4D8F5E8F6F8F78A383E01A
:10062000898FCE0149960E94A904A096E2E10C941C
:10063000BB3CA8E1B0E0EFE1F3E00C94A73C698398
:100640007A838B839C832D833E834F835887B9E0C5
:10065000EB2EF12CEC0EFD1ECE010196B7010E948F
:100660007E058E010F5E1F4FCE010596B8010E94D8
:100670007E052985223008F47EC03989323010F495
:10068000B8017CC08A859A8989278A87243011F02D
:10069000223031F4231709F06EC067EA70E06EC0B3
:1006A000343039F41D861E861F86188A1C861B86E8
:1006B00004C0323021F484E08987B7015FC02B8504
:1006C0003C858B899C89281B390B3C872B87ED84C3
:1006D000FE840F851889AD88BE88CF88D88CEA142F
:1006E000FB040C051D0540F4EE0CFF1C001F111F40
:1006F000215030403C872B8720E030E040E050E044
:1007000080E090E0A0E0B0E460E070E0EA14FB0478
:100710000C051D0540F0282B392B4A2B5B2BEA18C2
:10072000FB080C091D09B695A79597958795EE0CC2
:10073000FF1C001F111F6F5F7F4F6F31710531F775
:10074000DA01C9018F779070A070B0708034910584
:10075000A105B10561F427FD0AC0E114F10401050A
:10076000110529F0205C3F4F4F4F5F4F20782D87B8
:100770003E874F87588BBE01675F7F4FCB010E943A
:10078000A9046896EAE00C94C33CA8E1B0E0EBEC65
:10079000F3E00C94AB3C69837A838B839C832D8339
:1007A0003E834F83588789E0E82EF12CEC0EFD1E26
:1007B000CE010196B7010E947E058E010F5E1F4F8C
:1007C000CE010596B8010E947E058985823040F0F1
:1007D0008989823028F0C701B8010E94F60501C05E
:1007E0008FEF6896E6E00C94C73CA8E1B0E0EBEF31
:1007F000F3E00C94AB3C69837A838B839C832D83D9
:100800003E834F83588789E0E82EF12CEC0EFD1EC5
:10081000CE010196B7010E947E058E010F5E1F4F2B
:10082000CE010596B8010E947E058985823040F090
:100830008989823028F0C701B8010E94F60501C0FD
:100840008FEF6896E6E00C94C73CA8E1B0E0EBE2DD
:10085000F4E00C94AB3C69837A838B839C832D8377
:100860003E834F83588789E0E82EF12CEC0EFD1E65
:10087000CE010196B7010E947E058E010F5E1F4FCB
:10088000CE010596B8010E947E058985823040F030
:100890008989823028F0C701B8010E94F60501C09D
:1008A00081E06896E6E00C94C73CACE0B0E0EBE594
:1008B000F4E00C94AF3C69837A838B839C83CE01F4
:1008C0000196BE016B5F7F4F0E947E058D81823055
:1008D00061F1823050F1843021F48E81882351F10E
:1008E0002EC02F81388537FD20C06E812F31310514
:1008F0001CF06623F9F023C08EE190E0821B930B7D
:1009000029853A854B855C8504C056954795379572
:1009100027958A95D2F76623B1F05095409530958A
:1009200021953F4F4F4F5F4F0EC020E030E040E039
:1009300050E009C02FEF3FEF4FEF5FE704C020E02A
:1009400030E040E050E8B901CA012C96E2E00C9496
:10095000CB3CDF92EF92FF920F931F93FC01E48058
:10096000F58006811781D1808081823048F480E053
:1009700090E0A0E1B0E0E82AF92A0A2B1B2BA5C0E1
:10098000843009F49FC0823021F4EE24FF248701D3
:1009900005C0E114F1040105110519F4E0E0F0E0EF
:1009A00096C0628173819FEF623879070CF05BC05B
:1009B00022E83FEF261B370B2A3131052CF020E0CF
:1009C00030E040E050E02AC0B801A701022E04C088
:1009D00076956795579547950A94D2F781E090E010
:1009E000A0E0B0E004C0880F991FAA1FBB1F2A9582
:1009F000D2F70197A109B1098E219F21A023B1232C
:100A00000097A105B10521F081E090E0A0E0B0E001
:100A10009A01AB01282B392B4A2B5B2BDA01C90138
:100A20008F779070A070B07080349105A105B105EA
:100A300039F427FF09C0205C3F4F4F4F5F4F04C080
:100A4000215C3F4F4F4F5F4FE0E0F0E02030A0E0EF
:100A50003A07A0E04A07A0E45A0710F0E1E0F0E00E
:100A600079018A0127C06038710564F5FB01E158FE
:100A7000FF4FD801C7018F779070A070B07080349D
:100A80009105A105B10539F4E7FE0DC080E490E0C1
:100A9000A0E0B0E004C08FE390E0A0E0B0E0E80E9A
:100AA000F91E0A1F1B1F17FF05C016950795F7941F
:100AB000E794319687E016950795F794E7948A9521
:100AC000D1F705C0EE24FF248701EFEFF0E06E2F91
:100AD000679566276795902F9F77D794DD24D794E5
:100AE0008E2F8695492F462B582F5D29B701CA01B5
:100AF0001F910F91FF90EF90DF900895FC01DB01B3
:100B0000408151812281622F6F7770E0221F22275E
:100B1000221F9381892F880F822B282F30E0991F65
:100B20009927991F11969C93119721153105A9F5C5
:100B3000411551056105710511F482E037C082E865
:100B40009FEF13969C938E9312979A01AB0167E0E7
:100B5000220F331F441F551F6A95D1F783E08C93F2
:100B60000DC0220F331F441F551F12968D919C916B
:100B70001397019713969C938E931297203080E0E1
:100B8000380780E0480780E4580758F314962D93FF
:100B90003D934D935C93179708952F3F310579F45A
:100BA000411551056105710519F484E08C93089590
:100BB00064FF03C081E08C9312C01C9210C02F57B9
:100BC000304013963C932E93129783E08C9387E0EA
:100BD000440F551F661F771F8A95D1F770641496CE
:100BE0004D935D936D937C93179708951F93DC014C
:100BF000FB019C91923008F447C08081823008F458
:100C000043C0943051F411961C91843099F5818140
:100C1000682F70E0611B71093FC0843021F0923071
:100C200031F48230B9F18181882389F12DC0119688
:100C30001C9111978230F1F081811817D9F4129626
:100C40002D913C911397828193818217930794F0A1
:100C500028173907BCF014968D919D910D90BC9189
:100C6000A02D2481358146815781281739074A07ED
:100C70005B0718F4112341F00AC082179307A407F9
:100C8000B50740F4112319F061E070E005C06FEF83
:100C90007FEF02C060E070E0CB011F910895DF9309
:100CA000CF93CDB7DEB72C970FB6F894DEBF0FBE4B
:100CB000CDBF9C878B871C821B820E94A5188091C8
:100CC000020190910301009711F40E9431088B8575
:100CD0009C850097E1F080910001909101010196BF
:100CE0009A83898389819A819C01209530958B858F
:100CF0009C852817390748F08B859C8529813A8186
:100D0000820F931F9C878B8702C01C861B868B8556
:100D10009C8599230CF4BBC08B859C85009709F4B6
:100D2000B6C020910401309105018B859C85281760
:100D3000390708F4ACC088EE96E098878F838091DD
:100D4000E8069091E9069A8789870AC089859A857D
:100D500098878F83E985FA85808191819A87898731
:100D6000E985FA85228133818B859C85281739078F
:100D700030F4E985FA8580819181009739F72091D7
:100D800002013091030189859A858217930709F43E
:100D90007EC0EF81F88520813181809100019091A2
:100DA0000101820F931F9C838B83E985FA858081E3
:100DB0009181EF81F88591838083E985FA8522818D
:100DC00033818B859C85281B390B80910001909184
:100DD0000101880F991F8217930700F529853A852D
:100DE0008B859C85820F931F9E838D83E985FA8571
:100DF000228133818B859C85A901481B590BCA012F
:100E0000ED81FE8193838283E985FA858B859C85BC
:100E1000938382838D819E810E94A4082091040186
:100E200030910501E985FA8582819381A901481BEA
:100E3000590BCA019093050180930401209104018C
:100E4000309105018091060190910701281739071B
:100E500040F48091040190910501909307018093E3
:100E60000601E985FA85828193819068E985FA8592
:100E700093838283E985FA8511821082809108012B
:100E800090910901019690930901809308010E94B5
:100E9000B1188B819C812C960FB6F894DEBF0FBEE3
:100EA000CDBFCF91DF910895DF93CF9300D000D0D5
:100EB00000D0CDB7DEB79E838D838D819E819C83CC
:100EC0008B838D819E81009709F446C0809100013B
:100ED0009091010122273327281B390B8B819C819C
:100EE000820F931F9C838B838B819C819A83898340
:100EF000E981FA8182819381992374F5E981FA81EC
:100F000080819181009741F5E981FA818281938105
:100F10009F77E981FA81938382830E94A518E981F2
:100F2000FA81228133818091040190910501820F21
:100F3000931F909305018093040189819A810E94F7
:100F4000A40880910A0190910B01019690930B01E6
:100F500080930A010E94B11826960FB6F894DEBF5E
:100F60000FBECDBFCF91DF910895DF93CF93CDB763
:100F7000DEB78091040190910501CF91DF91089532
:100F8000DF93CF93CDB7DEB7809106019091070133
:100F9000CF91DF910895DF93CF93CDB7DEB7CF9197
:100FA000DF910895DF93CF93CDB7DEB728970FB6C3
:100FB000F894DEBF0FBECDBF9C838B837E836D8391
:100FC0001A8219828B819C81009799F08FEF9FEF95
:100FD0002B813C81B9010E944E3CCB019C018D814B
:100FE0009E812817390728F441E050E058874F8345
:100FF00002C018861F828F819885009739F52B8152
:101000003C818D819E81AC01249FC001259F900D64
:10101000349F900D11240E944F069A838983898101
:101020009A81009799F02B813C818D819E81A90145
:10103000489F9001499F300D589F300D11248981A0
:101040009A8160E070E0A9010E94DF3C89819A8169
:1010500028960FB6F894DEBF0FBECDBFCF91DF91BB
:101060000895DF93CF93CDB7DEB728970FB6F894E6
:10107000DEBF0FBECDBF8CED95E09A8389838CE0F7
:1010800091E09C838B838B819C819E838D838D815A
:101090009E819093E9068093E8061092EB061092E9
:1010A000EA062D813E8189819A81820F931F9C835C
:1010B0008B8320910001309101018B819C81821BE7
:1010C000930B9C838B838B819C81909303018093F2
:1010D0000201E0910201F091030113821282E0917A
:1010E0000201F0910301118210828D819E81988707
:1010F0008F832F8138858B819C81821B930BEF819D
:10110000F885938382838091020190910301EF819E
:10111000F88591838083EF81F88582819381909314
:10112000070180930601EF81F88582819381909376
:1011300005018093040128960FB6F894DEBF0FBE18
:10114000CDBFCF91DF910895DF93CF9300D000D032
:1011500000D0CDB7DEB79E838D8388EE96E09C836A
:101160008B8306C0EB81FC81808191819C838B8382
:10117000EB81FC81208131818D819E812817390787
:1011800088F38B819C819A838983EB81FC81228106
:10119000338189819A81280F391F8D819E8128177B
:1011A000390791F4EB81FC8122813381ED81FE814D
:1011B00082819381820F931FEB81FC8193838283D1
:1011C0008B819C819E838D838D819E819A8389836F
:1011D000ED81FE812281338189819A81280F391F17
:1011E000EB81FC81808191812817390789F5EB819A
:1011F000FC812081318180910201909103012817A7
:101200003907E9F0ED81FE8122813381EB81FC8198
:101210000190F081E02D82819381820F931FED81F7
:10122000FE8193838283EB81FC810190F081E02D2C
:1012300080819181ED81FE819183808311C08091B5
:10124000020190910301ED81FE819183808308C0AA
:10125000EB81FC8180819181ED81FE81918380838E
:101260002B813C818D819E812817390731F0EB81DC
:10127000FC818D819E819183808326960FB6F894A0
:10128000DEBF0FBECDBFCF91DF910895DF93CF9327
:10129000CDB7DEB72A970FB6F894DEBF0FBECDBF2D
:1012A0009A8789871E821D821C821B828FEF9FEF87
:1012B0009A8389830E94A5188091E8069091E90697
:1012C00098878F838F819885009799F129C08D81A8
:1012D0009E8101969E838D83EF81F88522813381E3
:1012E0008B819C818217930730F4EF81F88582818E
:1012F00093819C838B83EF81F8852281338189815F
:101300009A812817390730F4EF81F885828193811B
:101310009A838983EF81F8858081918198878F8373
:1013200020910201309103018F81988582179307E4
:1013300071F60E94B118E985FA858B819C819383AF
:101340008283E985FA8589819A8195838483E985F9
:10135000FA858D819E81978386830FB6F8940F92CC
:101360008091040190910501E985FA85918380833C
:101370008091080190910901E985FA859387828718
:1013800080910A0190910B01E985FA859587848700
:101390008091060190910701E985FA859187808700
:1013A0000F900FBE2A960FB6F894DEBF0FBECDBFCA
:1013B000CF91DF910895DF93CF93CDB7DEB7289714
:1013C0000FB6F894DEBF0FBECDBF9C838B837E83A8
:1013D0006D8358874F83EB81FC8181E180838B8112
:1013E0009C8101979C838B83EB81FC8182E28083CB
:1013F0008B819C8101979C838B83EB81FC8183E3B0
:1014000080838B819C8101979C838B838D819E81BE
:101410009A8389838981EB81FC8180838B819C8184
:1014200001979C838B8389819A81892F99279A833D
:1014300089838981EB81FC8180838B819C810197E9
:101440009C838B83EB81FC8110828B819C81019733
:101450009C838B83EB81FC8180E880838B819C81E2
:1014600001979C838B83EB81FC8110828B819C8113
:1014700001979C838B83EB81FC8182E080838B814D
:101480009C8101979C838B83EB81FC8183E080832B
:101490008B819C8101979C838B83EB81FC8184E011
:1014A00080838B819C8101979C838B83EB81FC8162
:1014B00085E080838B819C8101979C838B83EB816A
:1014C000FC8186E080838B819C8101979C838B8348
:1014D000EB81FC8187E080838B819C8101979C83D9
:1014E0008B83EB81FC8188E080838B819C810197D9
:1014F0009C838B83EB81FC8189E080838B819C8141
:1015000001979C838B83EB81FC8180E180838B81BD
:101510009C8101979C838B83EB81FC8181E180839B
:101520008B819C8101979C838B83EB81FC8182E181
:1015300080838B819C8101979C838B83EB81FC81D1
:1015400083E180838B819C8101979C838B83EB81DA
:10155000FC8184E180838B819C8101979C838B83B8
:10156000EB81FC8185E180838B819C8101979C8349
:101570008B83EB81FC8186E180838B819C81019749
:101580009C838B83EB81FC8187E180838B819C81B1
:1015900001979C838B83EB81FC8188E180838B8125
:1015A0009C8101979C838B83EB81FC8189E1808303
:1015B0008B819C8101979C838B83EB81FC8180E2F2
:1015C00080838B819C8101979C838B83EB81FC8141
:1015D00081E280838B819C8101979C838B83EB814B
:1015E000FC8182E280838B819C8101979C838B8329
:1015F000EB81FC8183E280838B819C8101979C83BA
:101600008B838F8198859A8389838981EB81FC8183
:1016100080838B819C8101979C838B8389819A81B4
:10162000892F99279A8389838981EB81FC81808323
:101630008B819C8101979C838B83EB81FC8186E26B
:1016400080838B819C8101979C838B83EB81FC81C0
:1016500087E280838B819C8101979C838B83EB81C4
:10166000FC8188E280838B819C8101979C838B83A2
:10167000EB81FC8189E280838B819C8101979C8333
:101680008B83EB81FC8180E380838B819C8101973C
:101690009C838B83EB81FC8181E380838B819C81A4
:1016A00001979C838B838B819C8128960FB6F8943D
:1016B000DEBF0FBECDBFCF91DF910895DF93CF93F3
:1016C000CDB7DEB70E94500CA091EC06B091ED06AC
:1016D000CD91CDBFDD91DEBFFF91EF91DF91CF9135
:1016E000BF91AF919F918F917F916F915F914F913A
:1016F0003F912F911F910F91FF90EF90DF90CF902E
:10170000BF90AF909F908F907F906F905F904F9021
:101710003F902F901F900F900FBE0F90089581E083
:10172000CF91DF910895DF93CF93CDB7DEB7CF91FF
:10173000DF9108950F920FB6F8940F921F92112423
:101740002F923F924F925F926F927F928F929F92D1
:10175000AF92BF92CF92DF92EF92FF920F931F93BF
:101760002F933F934F935F936F937F938F939F93A9
:10177000AF93BF93CF93DF93EF93FF93A091EC06CA
:10178000B091ED060DB60D920EB60D920E941A1C88
:10179000A091EC06B091ED06CD91CDBFDD91DEBFFD
:1017A000FF91EF91DF91CF91BF91AF919F918F9179
:1017B0007F916F915F914F913F912F911F910F9169
:1017C000FF90EF90DF90CF90BF90AF909F908F9061
:1017D0007F906F905F904F903F902F901F900F9051
:1017E0000FBE0F9008950F920FB6F8940F921F92AC
:1017F00011242F923F924F925F926F927F928F921D
:101800009F92AF92BF92CF92DF92EF92FF920F938F
:101810001F932F933F934F935F936F937F938F9378
:101820009F93AF93BF93CF93DF93EF93FF93A091D9
:10183000EC06B091ED060DB60D920EB60D920E941B
:10184000831A882311F00E941A1CA091EC06B09113
:10185000ED06CD91CDBFDD91DEBFFF91EF91DF9120
:10186000CF91BF91AF919F918F917F916F915F9138
:101870004F913F912F911F910F91FF90EF90DF902B
:10188000CF90BF90AF909F908F907F906F905F9020
:101890004F903F902F901F900F900FBE0F90089584
:1018A000DF93CF9300D000D000D0CDB7DEB780E477
:1018B0009FE1A0E0B0E08B839C83AD83BE838B81EE
:1018C0009C81AD81BE81689415F8B695A7959795D2
:1018D00087951694D1F78B839C83AD83BE838B81D0
:1018E0009C81AD81BE810197A109B1098B839C8345
:1018F000AD83BE838B8189838B819C81AD81BE81C9
:10190000892F9A2FAB2FBB278B839C83AD83BE83FC
:101910008B818A83EBE4F0E08A818083EAE4F0E063
:10192000898180838BE08983EEE4F0E08981808384
:10193000E9E5F0E080818983898180618983E9E537
:10194000F0E08981808326960FB6F894DEBF0FBE43
:10195000CDBFCF91DF9108950E94F30B1895DF93CF
:10196000CF9300D0CDB7DEB79A83898389819A81DE
:101970000396E981FA8192838183E981FA818FEF6D
:101980009FEF9483838389819A810396E981FA8109
:101990009683858389819A810396E981FA8190876C
:1019A0008783E981FA8110820F900F90CF91DF91A8
:1019B0000895DF93CF9300D0CDB7DEB79A838983A4
:1019C000E981FA81118610860F900F90CF91DF91F7
:1019D0000895DF93CF9300D000D000D0CDB7DEB70D
:1019E0009C838B837E836D83EB81FC8181819281DB
:1019F0009A838983ED81FE8189819A819383828391
:101A0000E981FA8184819581ED81FE8195838483CA
:101A1000E981FA810480F581E02D8D819E81938397
:101A20008283E981FA818D819E8195838483ED8112
:101A3000FE818B819C8191878087EB81FC818081F5
:101A40008F5FEB81FC81808326960FB6F894DEBF12
:101A50000FBECDBFCF91DF910895DF93CF93CDB768
:101A6000DEB728970FB6F894DEBF0FBECDBF9E83BA
:101A70008D8378876F83EF81F885808191819A8348
:101A8000898389819A812FEF8F3F920739F4ED8105
:101A9000FE81878190859C838B8318C08D819E8178
:101AA00003969C838B8306C0EB81FC8182819381AA
:101AB0009C838B83EB81FC810280F381E02D20816C
:101AC000318189819A818217930770F7EB81FC81BC
:101AD00082819381EF81F88593838283EF81F885FA
:101AE0000280F381E02D8F81988595838483EF8137
:101AF000F8858B819C8195838483EB81FC818F8128
:101B0000988593838283EF81F8858D819E8191876B
:101B10008087ED81FE8180818F5FED81FE818083F2
:101B200028960FB6F894DEBF0FBECDBFCF91DF91E0
:101B30000895DF93CF9300D000D0CDB7DEB79C835C
:101B40008B83EB81FC81808591859A838983EB81EE
:101B5000FC81A281B381EB81FC8184819581159602
:101B60009C938E931497EB81FC81A481B581EB81CA
:101B7000FC818281938113969C938E931297E981C5
:101B8000FA81218132818B819C812817390741F4A8
:101B9000EB81FC8184819581E981FA819283818343
:101BA000EB81FC8111861086E981FA818081815068
:101BB000E981FA818083E981FA8180810F900F9019
:101BC0000F900F90CF91DF910895DF93CF9300D0C6
:101BD00000D000D0CDB7DEB79D838C836E8381E0CB
:101BE0008B838C819D819A83898389819A810097D7
:101BF00009F48BC0E981FA81838D882309F485C0BB
:101C0000E981FA81838D282F30E08FEF9FE7B901BA
:101C10000E944E3CCB019C01E981FA81848D882F82
:101C200090E02817390708F470C00FB6F8940F92A7
:101C3000E981FA8140815181E981FA81838D282FE0
:101C400030E0E981FA81848D882F90E0BC01269FE5
:101C5000C001279F900D369F900D1124840F951F72
:101C6000E981FA8195838483E981FA81128EE98181
:101C7000FA8180819181E981FA8193838283E9816C
:101C8000FA8140815181E981FA81838D882F90E02A
:101C90009C0121503040E981FA81848D882F90E0A9
:101CA000BC01269FC001279F900D369F900D1124E7
:101CB000840F951FE981FA8197838683E981FA81F0
:101CC0008FEF858FE981FA818FEF868F8E81882350
:101CD00079F4E981FA8180858823A1F089819A814C
:101CE00008960E940E1D882369F00E949A0B0AC074
:101CF00089819A8108960E94AF0C89819A814196C8
:101D00000E94AF0C0F900FBE01C01B828B812696E4
:101D10000FB6F894DEBF0FBECDBFCF91DF9108950F
:101D20000F931F93DF93CF93CDB7DEB729970FB6ED
:101D3000F894DEBF0FBECDBF8F83688749871E82B0
:101D40001D828F81882309F452C08F81282F30E0B3
:101D50008FEF9FE7B9010E944E3CCB019C01888523
:101D6000882F90E02817390708F441C08F81282F69
:101D700030E08885882F90E0AC01249FC001259F2A
:101D8000900D349F900D11245FE7813E950778F503
:101D90008F81282F30E08885882F90E0AC01249F28
:101DA000C001259F900D349F900D11249C838B833F
:101DB0008B819C814F960E944F069E838D838D81DF
:101DC0009E810097A1F08D819E819A83898389816C
:101DD0009A814F969A83898329813A81ED81FE8188
:101DE0008F816885A90129858F010E94040F8D814B
:101DF0009E8129960FB6F894DEBF0FBECDBFCF915E
:101E0000DF911F910F9108950F931F93DF93CF934D
:101E1000CDB7DEB727970FB6F894DEBF0FBECDBFA4
:101E200089836A835C834B832D831F830E838A811E
:101E3000882339F48E819F81EE81FF819183808395
:101E400006C08B819C81EE81FF8191838083EE812E
:101E5000FF818981838FEE81FF818A81848F8E81CA
:101E60009F8161E00E94E50D27960FB6F894DEBFD2
:101E70000FBECDBFCF91DF911F910F910895DF93DA
:101E8000CF93CDB7DEB72F970FB6F894DEBF0FBE56
:101E9000CDBF998788877B876A875D874C872E8728
:101EA0001C82888599859A8389830FB6F8940F924E
:101EB000E981FA81928DE981FA81838D981718F072
:101EC0008E85823011F589819A812A853B85B901F9
:101ED0004E850E94AA138B83E981FA818189882328
:101EE00051F089819A8141960E940E1D882341F00C
:101EF0000E949A0B05C08B81882311F00E949A0BD7
:101F00000F900FBE81E08F875CC08C859D85009708
:101F100021F40F900FBE1F8654C08C81882331F4AA
:101F2000CE0105960E947E1F81E08C830F900FBE2C
:101F30000E94A5180FB6F8940F92E981FA81858D59
:101F40008F3F19F4E981FA81158EE981FA81868D36
:101F50008F3F19F4E981FA81168E0F900FBECE01E2
:101F600005969E01245F3F4FB9010E94971F882369
:101F700009F589819A810E9426158823A1F089811B
:101F80009A8108962C853D85B9010E94871C89811C
:101F90009A810E9497140E94B118882309F085CF76
:101FA0000E949A0B82CF89819A810E9497140E9485
:101FB000B1187BCF89819A810E9497140E94B11831
:101FC0001F868F852F960FB6F894DEBF0FBECDBF4C
:101FD000CF91DF910895DF93CF93CDB7DEB72E97E2
:101FE0000FB6F894DEBF0FBECDBF998788877B8779
:101FF0006A875D874C872E87888599859D838C832A
:102000001E82EC81FD81928DEC81FD81838D98177C
:1020100018F08E858230B9F5EC81FD81868D8B8339
:10202000EC81FD81828D8A838C819D812A853B850F
:10203000B9014E850E94AA138B818F3FA9F4EC81D0
:10204000FD8181898823E1F08C819D8141960E94E8
:102050000E1D8823A9F08C859D85009789F0EC855D
:10206000FD8581E080830CC00E942D1A89839B81AD
:102070008981981728F48B818F5FEC81FD81868F91
:1020800081E08F8301C01F828F812E960FB6F89456
:10209000DEBF0FBECDBFCF91DF910895DF93CF9309
:1020A000CDB7DEB72B970FB6F894DEBF0FBECDBF0E
:1020B000998788877B876A87888599859D838C83A4
:1020C0001E82EC81FD81828D8B83EC81FD81938D5D
:1020D0008B81891780F5EC81FD81868D8A838B81C8
:1020E0008F5FEC81FD81828F8A818F3FA9F4EC8123
:1020F000FD8181898823E1F08C819D8141960E9438
:102100000E1D8823A9F08A859B85009789F0EA85B2
:10211000FB8581E080830CC00E942D1A89839A81FF
:102120008981981728F48A818F5FEC81FD81868FE1
:1021300081E08F8301C01F828F812B960FB6F894A8
:10214000DEBF0FBECDBFCF91DF910895DF93CF9358
:10215000CDB7DEB72E970FB6F894DEBF0FBECDBF5A
:10216000998788877B876A875D874C871C828885EB
:1021700099859B838A830FB6F8940F92EA81FB813D
:10218000828D898389818823F9F08A819B812A85C0
:102190003B85B9010E94501489818150EA81FB81FD
:1021A000828FEA81FB818085882349F08A819B8127
:1021B00008960E940E1D882311F00E949A0B0F9022
:1021C0000FBE81E08E8763C08C859D85009721F4CA
:1021D0000F900FBE1E865BC08C81882331F4CE0128
:1021E00005960E947E1F81E08C830F900FBE0E9497
:1021F000A5180FB6F8940F92EA81FB81858D8F3F69
:1022000019F4EA81FB81158EEA81FB81868D8F3F6F
:1022100019F4EA81FB81168E0F900FBECE01059650
:102220009E01245F3F4FB9010E94971F882309F543
:102230008A819B810E94EA148823A1F08A819B8174
:1022400041962C853D85B9010E94871C8A819B811E
:102250000E9497140E94B118882309F08CCF0E9425
:102260009A0B89CF8A819B810E9497140E94B11892
:1022700082CF8A819B810E9497140E94B1188A8123
:102280009B810E94EA14882309F475CF1E868E85EF
:102290002E960FB6F894DEBF0FBECDBFCF91DF9163
:1022A0000895DF93CF93CDB7DEB72C970FB6F89490
:1022B000DEBF0FBECDBF998788877B876A871C8268
:1022C000888599859B838A830FB6F8940F92EA815B
:1022D000FB81828D898389818823C1F08981815026
:1022E000EA81FB81828FEA81FB818085882349F026
:1022F0008A819B8108960E940E1D882311F00E94FE
:102300009A0B0F900FBE81E08C8763C08A859B85F6
:10231000009721F40F900FBE1C865BC08C81882330
:1023200031F4CE0105960E947E1F81E08C830F90D0
:102330000FBE0E94A5180FB6F8940F92EA81FB8198
:10234000858D8F3F19F4EA81FB81158EEA81FB812F
:10235000868D8F3F19F4EA81FB81168E0F900FBE98
:10236000CE0105969E01265F3F4FB9010E94971F3F
:10237000882309F58A819B810E94EA148823A1F0B1
:102380008A819B8141962A853B85B9010E94871CE1
:102390008A819B810E9497140E94B118882309F0BA
:1023A00093CF0E949A0B90CF8A819B810E949714B1
:1023B0000E94B11889CF8A819B810E9497140E9444
:1023C000B1188A819B810E94EA14882309F47CCF8A
:1023D0001C868C852C960FB6F894DEBF0FBECDBF41
:1023E000CF91DF910895DF93CF93CDB7DEB760979C
:1023F0000FB6F894DEBF0FBECDBF9B878A877D875F
:102400006C875F874E871E828A859B859B838A8324
:102410000FB6F8940F92EA81FB81828D89838981BE
:10242000882331F1EA81FB81868197819D838C83AA
:102430008A819B812C853D85B9010E945014EA81D7
:10244000FB818C819D8197838683EA81FB818189D1
:10245000882349F08A819B8141960E940E1D882322
:1024600011F00E949A0B0F900FBE81E0888B63C021
:102470008E859F85009721F40F900FBE188A5BC050
:102480008E81882331F4CE0107960E947E1F81E061
:102490008E830F900FBE0E94A5180FB6F8940F926E
:1024A000EA81FB81858D8F3F19F4EA81FB81158ECE
:1024B000EA81FB81868D8F3F19F4EA81FB81168EBC
:1024C0000F900FBECE0107969E01225F3F4FB901CC
:1024D0000E94971F882309F58A819B810E94EA1434
:1024E0008823A1F08A819B8141962E853F85B90181
:1024F0000E94871C8A819B810E9497140E94B118B8
:10250000882309F085CF0E949A0B82CF8A819B8114
:102510000E9497140E94B1187BCF8A819B810E94F0
:1025200097140E94B1188A819B810E94EA14882323
:1025300009F46ECF188A888960960FB6F894DEBFCA
:102540000FBECDBFCF91DF910895DF93CF93CDB76D
:10255000DEB72D970FB6F894DEBF0FBECDBF9987BB
:1025600088877B876A875D874C87888599859D8367
:102570008C831E82EC81FD81828D8B838B818823ED
:10258000B9F1EC81FD81858D8A838C819D812A85BD
:102590003B85B9010E9450148B818150EC81FD81F3
:1025A000828F8A818F3FA9F4EC81FD818085882309
:1025B000E1F08C819D8108960E940E1D8823A9F070
:1025C0008C859D85009789F0EC85FD8581E0808371
:1025D0000CC00E942D1A89839A818981981728F44A
:1025E0008A818F5FEC81FD81858F81E08F8301C0BF
:1025F0001F828F812D960FB6F894DEBF0FBECDBF20
:10260000CF91DF910895DF93CF93CDB7DEB72A97AF
:102610000FB6F894DEBF0FBECDBF98878F837A8741
:1026200069878F8198859A8389831D82E981FA81E0
:10263000828D8823B1F0E981FA81868197819C831C
:102640008B8389819A8129853A85B9010E9450142A
:10265000E981FA818B819C819783868381E08E83D7
:1026600001C01E828E812A960FB6F894DEBF0FBE7F
:10267000CDBFCF91DF910895DF93CF9300D00F921C
:10268000CDB7DEB79B838A830FB6F8940F92EA81A9
:10269000FB81828D89830F900FBE89810F900F90EF
:1026A0000F90CF91DF910895DF93CF9300D000D0AA
:1026B0000F92CDB7DEB79D838C838C819D819A83E9
:1026C00089830FB6F8940F92E981FA81938DE9819D
:1026D000FA81828D292F281B822F8B830F900FBEAA
:1026E0008B810F900F900F900F900F90CF91DF91F3
:1026F0000895DF93CF9300D000D00F92CDB7DEB70F
:102700009D838C838C819D819A838983E981FA8161
:10271000828D8B838B810F900F900F900F900F9075
:10272000CF91DF910895DF93CF9300D000D0CDB744
:10273000DEB79C838B838B819C819A83898389817B
:102740009A810E9454070F900F900F900F90CF9195
:10275000DF910895DF93CF93CDB7DEB727970FB6FC
:10276000F894DEBF0FBECDBF9C838B837E836D83C9
:102770004F831A82EB81FC81828D8983EB81FC81FE
:10278000848D882309F47DC08F81882399F5EB819E
:10279000FC8162817381EB81FC81848D482F50E044
:1027A0002D813E81CB01B9010E94D63CEB81FC8199
:1027B00022813381EB81FC81848D882F90E0820F10
:1027C000931FEB81FC8193838283EB81FC812281C7
:1027D0003381EB81FC81848195812817390708F4C6
:1027E00050C0EB81FC8180819181EB81FC819383DE
:1027F000828347C0EB81FC8166817781EB81FC811C
:10280000848D482F50E02D813E81CB01B9010E947B
:10281000D63CEB81FC8126813781EB81FC81848D64
:10282000882F90E0909581959F4F820F931FEB81A9
:10283000FC8197838683EB81FC8126813781EB8144
:10284000FC81808191812817390790F4EB81FC810C
:1028500024813581EB81FC81848D882F90E09095D7
:1028600081959F4F820F931FEB81FC819783868315
:102870008F81823031F48981882319F089818150D8
:10288000898389818F5FEB81FC81828F8A81279682
:102890000FB6F894DEBF0FBECDBFCF91DF91089584
:1028A000DF93CF9300D000D0CDB7DEB79A83898372
:1028B0007C836B83E981FA81848D882389F1E981A6
:1028C000FA8126813781E981FA81848D882F90E011
:1028D000820F931FE981FA8197838683E981FA81C8
:1028E00026813781E981FA8184819581281739070A
:1028F00040F0E981FA8180819181E981FA819783B1
:102900008683E981FA8146815781E981FA81848D44
:10291000282F30E08B819C81BA01A9010E94D63C0E
:102920000F900F900F900F90CF91DF910895DF934C
:10293000CF9300D000D0CDB7DEB79C838B830FB68A
:10294000F8940F92EB81FC81868D8A8311C0EB8114
:10295000FC818189882379F08B819C8141960E943A
:102960000E1D882311F00E94FE1F8A8181508A83E8
:102970008A81181664F3EB81FC818FEF868F0F90AC
:102980000FBE0FB6F8940F92EB81FC81858D898381
:1029900011C0EB81FC818085882379F08B819C813B
:1029A00008960E940E1D882311F00E94FE1F898147
:1029B000815089838981181664F3EB81FC818FEF44
:1029C000858F0F900FBE0F900F900F900F90CF91AB
:1029D000DF910895DF93CF9300D00F92CDB7DEB78C
:1029E0009B838A830FB6F8940F92EA81FB81828DD4
:1029F000882319F481E0898301C019820F900FBEEA
:102A000089810F900F900F90CF91DF910895DF9300
:102A1000CF9300D000D00F92CDB7DEB79D838C83CB
:102A20008C819D819A838983E981FA81828D8823B3
:102A300019F481E08B8301C01B828B810F900F9072
:102A40000F900F900F90CF91DF910895DF93CF9368
:102A500000D00F92CDB7DEB79B838A830FB6F89470
:102A60000F92EA81FB81928DEA81FB81838D981719
:102A700019F481E0898301C019820F900FBE89810A
:102A80000F900F900F90CF91DF910895DF93CF9328
:102A900000D000D00F92CDB7DEB79D838C838C81A0
:102AA0009D819A838983E981FA81928DE981FA81F6
:102AB000838D981719F481E08B8301C01B828B8171
:102AC0000F900F900F900F900F90CF91DF9108957E
:102AD0008F929F92AF92BF92CF92DF92EF92FF922E
:102AE0000F931F93DF93CF93CDB7DEB760970FB6E9
:102AF000F894DEBF0FBECDBF9F838E837987688732
:102B00005B874A873D872C870E87F88AEF868A8500
:102B10009B850E944F069A83898389819A810097B9
:102B2000F1F086E290E00E944F069D838C838C81B9
:102B30009D81009779F08C819D8160E070E046E294
:102B400050E00E94DF3CEC81FD8189819A81908F69
:102B5000878B07C089819A810E94540702C01D8219
:102B60001C828C819D810097E9F08A859B859C0160
:102B700040E050E08E819F8168857985EC85FD85F8
:102B8000AF85B889AC80BD808F01EE846D0188244B
:102B900099240E94E8158C819D810E94971681E0FE
:102BA0008B8302C08FEF8B838B8160960FB6F89476
:102BB000DEBF0FBECDBFCF91DF911F910F91FF9070
:102BC000EF90DF90CF90BF90AF909F908F9008953F
:102BD0008F929F92AF92BF92CF92DF92EF920F931C
:102BE0001F93DF93CF93CDB7DEB764970FB6F894FA
:102BF000DEBF0FBECDBF9D838C837F836E8328870E
:102C000039874A875B871D870C87EE86D88ACF86EF
:102C1000BA8AA98A9C8A8B8AE989FA892789308DA0
:102C2000888599850197820F931F9B838A838E8164
:102C30009F81009749F1198221C08981482F50E076
:102C40008981282F30E08E819F81FC01E20FF31FE4
:102C5000208189899A89840F951FFC0179962083A8
:102C60008981282F30E08E819F81FC01E20FF31FC4
:102C70008081882331F089818F5F898389818830C1
:102C8000E0F2E989FA8910A28E85843010F083E0A1
:102C90008E87E989FA898E85868B89899A89029639
:102CA0000E94D90C89899A890C960E94D90CE989CD
:102CB000FA8989899A89918780878E85282F30E0C3
:102CC00084E090E0821B930BE989FA8995878487D9
:102CD000E989FA8989899A89938B828B8A819B8178
:102CE0002C813D814C855D85B9010E94DB09E98914
:102CF000FA89918380838F859889009731F0EF85D9
:102D0000F88989899A899183808364960FB6F894AB
:102D1000DEBF0FBECDBFCF91DF911F910F91EF901E
:102D2000DF90CF90BF90AF909F908F900895DF93EA
:102D3000CF9300D000D0CDB7DEB79C838B830FB686
:102D4000F8940F928091EF068F5F8093EF06809149
:102D5000EC069091ED06009769F48B819C8190932D
:102D6000ED068093EC068091EF068130B9F40E9465
:102D7000182014C08091F306882381F4E091EC06BA
:102D8000F091ED069689EB81FC818689891730F0F8
:102D90008B819C819093ED068093EC068091F806E0
:102DA0008F5F8093F806EB81FC8196898091F20613
:102DB000891728F4EB81FC8186898093F206EB81E8
:102DC000FC818689282F30E0C901880F991F880F60
:102DD000991F880F991F820F931FFC01E250F94F32
:102DE000818192819A838983EB81FC8189819A8197
:102DF00095838483E981FA8184819581EB81FC81CB
:102E000097838683E981FA810480F581E02D8B81A7
:102E10009C810296938382838B819C810296E981B7
:102E2000FA8195838483EB81FC818689282F30E0A9
:102E3000C901880F991F880F991F880F991F820F4A
:102E4000931F8250994FEB81FC8193878287EB819E
:102E5000FC818689282F30E0C901880F991F880FCF
:102E6000991F880F991F820F931FFC01E250F94FA1
:102E700080818F5F80830F900FBE8091F30688233F
:102E800061F0E091EC06F091ED069689EB81FC8112
:102E90008689981710F40E949A0B0F900F900F904C
:102EA0000F90CF91DF910895DF93CF9300D000D0A2
:102EB00000D0CDB7DEB79C838B830FB6F8940F920A
:102EC0008B819C81009739F48091EC069091ED06FE
:102ED0009E838D8304C08B819C819E838D838D8195
:102EE0009E819A83898389819A8102960E94990D95
:102EF000E981FA8184899589009729F089819A81ED
:102F00000C960E94990D8091F8068F5F8093F806C9
:102F10002091EC063091ED0689819A818217930702
:102F200081F489819A819C012E5F3F4F81E497E073
:102F3000B9010E94E90C8091EE068F5F8093EE0646
:102F400007C08091EF0681508093EF060E949A207F
:102F50000F900FBE2091EC063091ED0689819A8189
:102F60008217930721F089819A810E9484208091A1
:102F7000F306882359F02091EC063091ED06898103
:102F80009A818217930711F40E949A0B26960FB626
:102F9000F894DEBF0FBECDBFCF91DF910895DF93D0
:102FA000CF93CDB7DEB72A970FB6F894DEBF0FBE2A
:102FB000CDBF98878F837A8769871B820E94A51867
:102FC0008091F0069091F1069A838983EF81F885CC
:102FD0002081318189859A85820F931F9E838D83FD
:102FE000EF81F8852081318189819A818217930749
:102FF00098F4EF81F885208131818D819E8182173F
:103000009307E0F42D813E8189819A81821793078D
:10301000A8F481E08B8312C0EF81F8852081318193
:103020008D819E818217930738F02D813E818981A1
:103030009A818217930710F481E08B83EF81F885E2
:103040008D819E81918380838B81882349F08D813E
:103050009E8129813A81821B930B60E00E947A282D
:103060000E94B1188C838C81882311F40E949A0BE2
:103070008B812A960FB6F894DEBF0FBECDBFCF91DD
:10308000DF910895DF93CF9300D00F92CDB7DEB7D5
:103090009B838A8319828A819B81009751F00E94C9
:1030A000A5188A819B8160E00E947A280E94B1184D
:1030B00089838981882311F40E949A0B0F900F90C5
:1030C0000F90CF91DF910895EF92FF920F93DF93CE
:1030D000CF9300D0CDB7DEB788E090E220E630E0B5
:1030E000EBEFF6E0B90145E550E020E030E000E02C
:1030F0007F010E94681589838981813081F4F89469
:103100008FEF9FEF9093FA068093F90681E080930A
:10311000F3061092F1061092F0060E945E0B809169
:10312000AF000F900F90CF91DF910F91FF90EF9034
:103130000895DF93CF93CDB7DEB7F8941092F306DE
:103140000E94930BCF91DF910895DF93CF93CDB77A
:10315000DEB78091FD068F5F8093FD06CF91DF91F2
:103160000895DF93CF93CDB7DEB72B970FB6F894C2
:10317000DEBF0FBECDBF1B861A8619860FB6F89428
:103180000F928091FD0681508093FD068091FD068F
:10319000882309F02AC18091EF06882309F425C10C
:1031A000F3C0E0913D07F0913E07868197819B87B0
:1031B0008A87EA85FB858489958998878F83EA8544
:1031C000FB85A685B785EA85FB858089918915965B
:1031D0009C938E931497EA85FB85A089B189EA8533
:1031E000FB858685978513969C938E931297EF8126
:1031F000F885218132818A859B850C9628173907AD
:1032000041F4EA85FB8580899189EF81F885928375
:103210008183EA85FB85158A148AEF81F885808190
:103220008150EF81F8858083EA85FB8582859385CF
:103230009E838D83EA85FB85A481B581EA85FB8524
:103240008681978115969C938E931497EA85FB85CA
:10325000A681B781EA85FB858481958113969C932D
:103260008E931297ED81FE81218132818A859B8523
:1032700002962817390741F4EA85FB8586819781F4
:10328000ED81FE8192838183EA85FB851386128618
:10329000ED81FE8180818150ED81FE818083EA8510
:1032A000FB8596898091F206891728F4EA85FB85CB
:1032B00086898093F206EA85FB858689282F30E08F
:1032C000C901880F991F880F991F880F991F820FB6
:1032D000931FFC01E250F94F818192819C838B8383
:1032E000EA85FB858B819C8195838483EB81FC81BE
:1032F00084819581EA85FB8597838683EB81FC81B8
:103300000480F581E02D8A859B85029693838283D4
:103310008A859B850296EB81FC8195838483EA856F
:10332000FB858689282F30E0C901880F991F880FF7
:10333000991F880F991F820F931F8250994FEA851A
:10334000FB8593878287EA85FB858689282F30E075
:10335000C901880F991F880F991F880F991F820F25
:10336000931FFC01E250F94F80818F5F8083EA85D3
:10337000FB859689E091EC06F091ED068689981719
:1033800018F081E08093F60680913807882309F0D1
:1033900008CF8A859B85009711F00E949A20809122
:1033A000F4069091F5069A83898389819A81009722
:1033B000A1F00E94831A882319F081E08093F60619
:1033C00089819A8101979A83898389819A8100975B
:1033D00081F71092F5061092F4068091F606882384
:1033E00021F081E089870E949A0B0F900FBE89859A
:1033F0002B960FB6F894DEBF0FBECDBFCF91DF91F5
:103400000895DF93CF9300D0CDB7DEB70FB6F89411
:103410000F928091F0069091F1069A8389830F9024
:103420000FBE89819A810F900F90CF91DF910895FF
:10343000DF93CF9300D00F92CDB7DEB71982809182
:10344000F0069091F1069B838A838A819B810F907D
:103450000F900F90CF91DF910895DF93CF93CDB769
:10346000DEB78091EF06CF91DF910895DF93CF9380
:1034700000D000D000D0CDB7DEB79C838B838B818A
:103480009C81009739F48091EC069091ED069E8323
:103490008D8304C08B819C819E838D838D819E81D1
:1034A0009A83898389819A81499626960FB6F894E2
:1034B000DEBF0FBECDBFCF91DF910895DF93CF93D5
:1034C00000D00F92CDB7DEB79B838A830E94A518E8
:1034D0000FB6F8940F922091F4063091F5068A8188
:1034E0009B81820F931F9093F5068093F4060F90B3
:1034F0000FBE0E94B118898389810F900F900F90A1
:10350000CF91DF910895DF93CF93CDB7DEB72F979B
:103510000FB6F894DEBF0FBECDBF1B868091FD06AF
:10352000882309F074C18091F0069091F10601960C
:103530009A87898789859A859093F1068093F0060A
:1035400089859A850097D9F4809134079091350741
:1035500098878F838091360790913707909335072E
:10356000809334078F81988590933707809336072F
:103570008091F7068F5F8093F7060E949A20209132
:10358000F9063091FA0689859A858217930708F41F
:103590001FC1E0913407F09135078081882339F409
:1035A0008FEF9FEF9093FA068093F90611C1E09197
:1035B0003407F09135070580F681E02D86819781EB
:1035C0009F878E87EE85FF85828193819D878C877B
:1035D00029853A858C859D852817390738F48C858F
:1035E0009D859093FA068093F906F2C0EE85FF85DB
:1035F000828593859E838D83EE85FF85A481B58129
:10360000EE85FF858681978115969C938E931497FE
:10361000EE85FF85A681B781EE85FF858481958142
:1036200013969C938E931297ED81FE8121813281B6
:103630008E859F8502962817390741F4EE85FF8510
:1036400086819781ED81FE8192838183EE85FF855E
:1036500013861286ED81FE8180818150ED81FE818D
:103660008083EE85FF85848995890097D9F1EE8561
:10367000FF85848995899C838B83EE85FF85A6854C
:10368000B785EE85FF858089918915969C938E93E9
:103690001497EE85FF85A089B189EE85FF85868523
:1036A000978513969C938E931297EB81FC812181D1
:1036B00032818E859F850C962817390741F4EE8557
:1036C000FF8580899189EB81FC8192838183EE85DE
:1036D000FF85158A148AEB81FC8180818150EB8102
:1036E000FC818083EE85FF8596898091F20689179B
:1036F00028F4EE85FF8586898093F206EE85FF85A6
:103700008689282F30E0C901880F991F880F991FDB
:10371000880F991F820F931FFC01E250F94F81819E
:1037200092819A838983EE85FF8589819A81958329
:103730008483E981FA8184819581EE85FF85978371
:103740008683E981FA810480F581E02D8E859F854D
:103750000296938382838E859F850296E981FA8102
:1037600095838483EE85FF858689282F30E0C90103
:10377000880F991F880F991F880F991F820F931F19
:103780008250994FEE85FF8593878287EE85FF856E
:103790008689282F30E0C901880F991F880F991F4B
:1037A000880F991F820F931FFC01E250F94F80810F
:1037B0008F5F8083EE85FF859689E091EC06F0911E
:1037C000ED068689891708F0E4CE81E08B87E1CE8B
:1037D000E091EC06F091ED068689282F30E0C901D2
:1037E000880F991F880F991F880F991F820F931FA9
:1037F000FC01E250F94F8081823010F081E08B872C
:103800008091F606882361F081E08B8709C0809162
:10381000F4069091F50601969093F5068093F406D0
:103820008B852F960FB6F894DEBF0FBECDBFCF911C
:10383000DF910895DF93CF9300D00F92CDB7DEB71D
:103840008091FD06882321F081E08093F60659C01F
:103850001092F6068091F2068B8303C08B81815013
:103860008B838B81282F30E0C901880F991F880F27
:10387000991F880F991F820F931FFC01E250F94F87
:103880008081882359F38B81282F30E0C901880F6C
:10389000991F880F991F880F991F820F931F8250BD
:1038A000994F9A838983E981FA810180F281E02D21
:1038B00082819381E981FA8192838183E981FA810E
:1038C0002181328189819A8103962817390759F419
:1038D000E981FA810180F281E02D82819381E98181
:1038E000FA8192838183E981FA810180F281E02D5E
:1038F000868197819093ED068093EC068B8180936F
:10390000F2060F900F900F90CF91DF910895DF9303
:10391000CF9300D000D0CDB7DEB79A8389837C8364
:103920006B838091EC069091ED069C01245F3F4FE4
:1039300089819A81B9010E942D0D8B819C8161E062
:103940000E947A280F900F900F900F90CF91DF91E7
:103950000895DF93CF93CDB7DEB728970FB6F894CD
:10396000DEBF0FBECDBF9C838B837E836D83588764
:103970004F83E091EC06F091ED068D819E81906879
:1039800095878487EB81FC81818192819A838983E9
:10399000E091EC06F091ED0689819A819787868700
:1039A000A091EC06B091ED06E981FA8184819581C0
:1039B00051969C938E935097E981FA810480F5810A
:1039C000E02D8091EC069091ED060C969383828316
:1039D0008091EC069091ED060C96E981FA81958331
:1039E0008483E091EC06F091ED068B819C81958BB0
:1039F000848BEB81FC8180818F5FEB81FC818083F4
:103A00008F81988561E00E947A2828960FB6F894F5
:103A1000DEBF0FBECDBFCF91DF910895DF93CF936F
:103A2000CDB7DEB72D970FB6F894DEBF0FBECDBF72
:103A30009D878C87EC85FD850580F681E02D86814C
:103A400097819B878A87EA85FB85848995899887F2
:103A50008F83EA85FB85A685B785EA85FB85808906
:103A6000918915969C938E931497EA85FB85A0897E
:103A7000B189EA85FB858685978513969C938E93FD
:103A80001297EF81F885218132818A859B850C967A
:103A90002817390741F4EA85FB8580899189EF81F0
:103AA000F88592838183EA85FB85158A148AEF81E4
:103AB000F88580818150EF81F88580838091FD06B3
:103AC000882309F0A4C0EA85FB85828593859E83BF
:103AD0008D83EA85FB85A481B581EA85FB85868196
:103AE000978115969C938E931497EA85FB85A68102
:103AF000B781EA85FB858481958113969C938E938B
:103B00001297ED81FE81218132818A859B85029603
:103B10002817390741F4EA85FB8586819781ED8175
:103B2000FE8192838183EA85FB8513861286ED816F
:103B3000FE8180818150ED81FE818083EA85FB8555
:103B400096898091F206891728F4EA85FB85868993
:103B50008093F206EA85FB858689282F30E0C9012B
:103B6000880F991F880F991F880F991F820F931F25
:103B7000FC01E250F94F818192819C838B83EA851D
:103B8000FB858B819C8195838483EB81FC8184817F
:103B90009581EA85FB8597838683EB81FC81048090
:103BA000F581E02D8A859B850296938382838A85A1
:103BB0009B850296EB81FC8195838483EA85FB8556
:103BC0008689282F30E0C901880F991F880F991F17
:103BD000880F991F820F931F8250994FEA85FB85AA
:103BE00093878287EA85FB858689282F30E0C90183
:103BF000880F991F880F991F880F991F820F931F95
:103C0000FC01E250F94F80818F5F808330C080914A
:103C1000390790913A079A838983EA85FB858981E0
:103C20009A8197878687E981FA8184819581EA85DF
:103C3000FB85918B808BE981FA810480F581E02DF1
:103C40008A859B850C96938382838A859B850C96B7
:103C5000E981FA8195838483EA85FB8588E397E08F
:103C6000958B848B809138078F5F80933807EA8526
:103C7000FB859689E091EC06F091ED06868989171F
:103C800030F481E0898781E08093F60601C01986CF
:103C900089852D960FB6F894DEBF0FBECDBFCF91AC
:103CA000DF910895DF93CF93CDB7DEB72C970FB692
:103CB000F894DEBF0FBECDBF9A8789877C876B875C
:103CC0008B859C859068E985FA8591838083E98559
:103CD000FA858681978198878F83E985FA85808523
:103CE00091859E838D83E985FA85A281B381E985DB
:103CF000FA858481958115969C938E931497E98516
:103D0000FA85A481B581E985FA858281938113962C
:103D10009C938E931297ED81FE812181328189855A
:103D20009A852817390741F4E985FA8584819581B8
:103D3000ED81FE8192838183E985FA851186108663
:103D4000ED81FE8180818150ED81FE818083EF8154
:103D5000F885828593859C838B83EF81F885A48188
:103D6000B581EF81F8858681978115969C938E9316
:103D70001497EF81F885A681B781EF81F88584815A
:103D8000958113969C938E931297EB81FC812181F0
:103D900032818F81988502962817390741F4EF8187
:103DA000F88586819781EB81FC8192838183EF8105
:103DB000F88513861286EB81FC8180818150EB812E
:103DC000FC818083EF81F88596898091F2068917BE
:103DD00028F4EF81F88586898093F206EF81F885D3
:103DE0008689282F30E0C901880F991F880F991FF5
:103DF000880F991F820F931FFC01E250F94F8181B8
:103E000092819A838983EF81F88589819A8195834C
:103E10008483E981FA8184819581EF81F885978394
:103E20008683E981FA810480F581E02D8F81988570
:103E30000296938382838F8198850296E981FA8125
:103E400095838483EF81F8858689282F30E0C90126
:103E5000880F991F880F991F880F991F820F931F32
:103E60008250994FEF81F88593878287EF81F8859B
:103E70008689282F30E0C901880F991F880F991F64
:103E8000880F991F820F931FFC01E250F94F808128
:103E90008F5F8083EF81F8859689E091EC06F09141
:103EA000ED068689891718F481E08093F6062C9632
:103EB0000FB6F894DEBF0FBECDBFCF91DF9108954E
:103EC000DF93CF9300D0CDB7DEB79A8389830FB647
:103ED000F8940F928091F706E981FA8180838091AE
:103EE000F0069091F106E981FA81928381830F9027
:103EF0000FBE0F900F90CF91DF910895DF93CF9376
:103F000000D0CDB7DEB79A8389838091F706E98127
:103F1000FA8180838091F0069091F106E981FA811F
:103F2000928381830F900F90CF91DF910895DF935B
:103F3000CF93CDB7DEB729970FB6F894DEBF0FBE8B
:103F4000CDBF9F838E83798768870FB6F8940F92D1
:103F50008091F0069091F1069C838B83EE81FF8126
:103F6000218132818B819C81821B930B9A8389836F
:103F7000EE81FF8190818091F706981781F0EE81A4
:103F8000FF81218132818B819C818217930738F0D8
:103F900081E08D83E885F9851182108223C0E88550
:103FA000F9852081318189819A8182179307A0F454
:103FB000E885F9852081318189819A81A901481B91
:103FC000590BCA01E885F985918380838E819F8191
:103FD0000E947E1F1D8206C0E885F985118210822D
:103FE00081E08D830F900FBE8D8129960FB6F894D6
:103FF000DEBF0FBECDBFCF91DF910895DF93CF938A
:10400000CDB7DEB781E08093F606CF91DF910895BA
:10401000DF93CF9300D0CDB7DEB79A8389830E9418
:1040200055208091FE068230D0F30E949A0BF7CF84
:10403000DF93CF930F92CDB7DEB7198213C089817A
:10404000282F30E0C901880F991F880F991F880F0A
:10405000991F820F931F8250994F0E94AF0C898144
:104060008F5F89838981843050F382E297E00E94D8
:10407000AF0C8BE297E00E94AF0C88E397E00E94C0
:10408000AF0C81E497E00E94AF0C82E297E090933E
:104090003507809334078BE297E09093370780933E
:1040A00036070F90CF91DF910895DF93CF9300D023
:1040B000CDB7DEB720C00FB6F8940F92E091460757
:1040C000F0914707868197819A83898389819A81B4
:1040D00002960E94990D8091EF0681508093EF0621
:1040E0008091EE0681508093EE060F900FBE89817D
:1040F0009A810E9484208091EE068823E1F60F9039
:104100000F90CF91DF910895DF93CF9300D0CDB77B
:10411000DEB79A838983E981FA818789908D0E942D
:10412000540789819A810E9454070F900F90CF9174
:10413000DF910895DF93CF93CDB7DEB7E0913407D9
:10414000F09135078081882339F48FEF9FEF9093AA
:10415000FA068093F9060DC0E0913407F091350717
:104160000580F681E02D808191819093FA068093FD
:10417000F906CF91DF910895DF93CF9300D0CDB7AB
:10418000DEB78091EC069091ED069A838983898150
:104190009A810F900F90CF91DF910895DF93CF9385
:1041A00000D0CDB7DEB7E091EC06F091ED06848546
:1041B00095859A838983A091EC06B091ED06E091F4
:1041C000EC06F091ED068689282F30E084E090E03F
:1041D000821B930B1D969C938E931C9789819A81C9
:1041E0000F900F90CF91DF910895DF93CF93CDB7CC
:1041F000DEB728970FB6F894DEBF0FBECDBF8D8314
:104200006E8358874F830FB6F8940F922091EC0677
:104210003091ED068D81882F90E0880F991F880FCF
:10422000991F820F931FFC01B19680819181A28119
:10423000B3810097A105B105C1F42091EC0630913E
:10424000ED068D81882F90E0820F931FFC01B596BB
:1042500081E080838F819885009739F08F819885E0
:1042600061E00E947A280E949A0B0F900FBE0FB651
:10427000F8940F922091EC063091ED068D81882FF5
:1042800090E0880F991F880F991F820F931FFC01E0
:10429000B19680819181A281B38189839A83AB8316
:1042A000BC8389819A81AB81BC810097A105B1054E
:1042B000A9F18E818823A1F02091EC063091ED06C2
:1042C0008D81882F90E0880F991F880F991F820F8A
:1042D000931FFC01B19610821182128213821EC0BC
:1042E000E091EC06F091ED068D81682F70E08981F8
:1042F0009A81AB81BC819C01AD012150304040408E
:104300005040CB01880F991F880F991F8E0F9F1F58
:10431000FC01B19620833183428353832091EC06C4
:104320003091ED068D81882F90E0820F931FFC0164
:10433000B59610820F900FBE89819A81AB81BC81A6
:10434000BC01CD0128960FB6F894DEBF0FBECDBFDD
:10435000CF91DF910895CF92DF92EF92FF920F936A
:104360001F93DF93CF93CDB7DEB72E970FB6F89498
:10437000DEBF0FBECDBF8A834B835C836D837E839C
:104380000F83188729873A87FC86EB86DE86CD86E1
:104390000FB6F8940F922091EC063091ED068A81C9
:1043A000882F90E0820F931FFC01B59680818230A8
:1043B00009F447C06091EC067091ED068A81082FE0
:1043C00010E08A81882F90E0880F991F880F991F2D
:1043D000860F971FFC01B196208131814281538164
:1043E0008B819C81AD81BE8180959095A095B09583
:1043F000282339234A235B23C801880F991F880F7C
:10440000991F860F971FFC01B19620833183428349
:1044100053832091EC063091ED068A81882F90E03D
:10442000820F931FFC01B59681E080838D859E8568
:10443000009739F08D859E8561E00E947A280E9460
:104440009A0B0F900FBE0FB6F8940F928B859C8538
:104450000097C9F02091EC063091ED068A81882FF3
:1044600090E0880F991F880F991F820F931FFC01FE
:10447000B19680819181A281B381EB85FC85808397
:104480009183A283B3832091EC063091ED068A815B
:10449000882F90E0820F931FFC01B59680818230B7
:1044A00011F0198231C06091EC067091ED068A819D
:1044B000082F10E08A81882F90E0880F991F880FBD
:1044C000991F860F971FFC01B1962081318142818F
:1044D00053818F819885A985BA8580959095A095FF
:1044E000B095282339234A235B23C801880F991FDD
:1044F000880F991F860F971FFC01B1962083318387
:104500004283538381E089832091EC063091ED064C
:104510008A81882F90E0820F931FFC01B59610824C
:104520000F900FBE89812E960FB6F894DEBF0FBE96
:10453000CDBFCF91DF911F910F91FF90EF90DF9052
:10454000CF900895EF92FF920F931F93DF93CF9335
:10455000CDB7DEB764970FB6F894DEBF0FBECDBF00
:104560009A8789876B872C873D874E875F87088B63
:10457000FA8AE98A81E08E8389859A8598878F8374
:104580000FB6F8940F9289899A890097B9F08B85B4
:10459000882F90E02F813885880F991F880F991FE9
:1045A000820F931FFC01B19680819181A281B3811A
:1045B000E989FA8980839183A283B3838B85282F2D
:1045C00030E08F819885820F931FFC01B596808122
:1045D0008D838B85282F30E08F819885820F931FE4
:1045E000FC01B59682E080838889282F30E03C8BDF
:1045F0002B8B8B899C898230910509F446C02B89CD
:104600003C892330310534F48B899C8981309105B4
:1046100071F093C02B893C892330310509F45DC0CA
:104620008B899C898430910509F46DC086C08B8587
:10463000082F10E08B85882F90E02F813885880F18
:10464000991F880F991F820F931FFC01B19620813B
:104650003181428153818C859D85AE85BF85BA01AC
:10466000A901482B592B6A2B7B2B2F813885C80138
:10467000880F991F880F991F820F931FFC01B19615
:10468000408351836283738358C08B85082F10E069
:104690002F813885C801880F991F880F991F820FB5
:1046A000931FFC01B19680819181A281B381AC01FD
:1046B000BD014F5F5F4F6F4F7F4F2F813885C8011E
:1046C000880F991F880F991F820F931FFC01B196C5
:1046D000408351836283738330C08B85882F90E041
:1046E0002F813885880F991F880F991F820F931F7C
:1046F000FC01B1968C859D85AE85BF8580839183B5
:10470000A283B3831AC08D818230B1F08B85882F4C
:1047100090E02F813885880F991F880F991F820F8D
:10472000931FFC01B1968C859D85AE85BF858083E6
:104730009183A283B38301C01E828D81813009F0F1
:10474000AFC0EF81F885828593859C838B83EF8151
:10475000F885A481B581EF81F885868197811596CA
:104760009C938E931497EF81F885A681B781EF8192
:10477000F8858481958113969C938E931297EB8193
:10478000FC81218132818F81988502962817390713
:1047900041F4EF81F88586819781EB81FC819283DA
:1047A0008183EF81F88513861286EB81FC818081FD
:1047B0008150EB81FC818083EF81F885968980911F
:1047C000F206891728F4EF81F88586898093F2062E
:1047D000EF81F8858689282F30E0C901880F991F5D
:1047E000880F991F880F991F820F931FFC01E250B9
:1047F000F94F818192819A838983EF81F88589813C
:104800009A8195838483E981FA8184819581EF81FE
:10481000F88597838683E981FA810480F581E02D0C
:104820008F8198850296938382838F8198850296E3
:10483000E981FA8195838483EF81F8858689282F21
:1048400030E0C901880F991F880F991F880F991FA1
:10485000820F931F8250994FEF81F885938782874B
:10486000EF81F8858689282F30E0C901880F991FCC
:10487000880F991F880F991F820F931FFC01E25028
:10488000F94F80818F5F8083EF81F8859689E09171
:10489000EC06F091ED068689891710F40E949A0BB8
:1048A0000F900FBE8E8164960FB6F894DEBF0FBED8
:1048B000CDBFCF91DF911F910F91FF90EF900895A1
:1048C000CF92DF92EF92FF920F931F93DF93CF93DC
:1048D000CDB7DEB769970FB6F894DEBF0FBECDBF78
:1048E0009D878C876E872F87388B498B5A8B0B8BD4
:1048F000FD8AEC8ADF8ACE8A81E088878C859D8557
:104900009B878A871F828C899D890097B9F08E8545
:10491000882F90E02A853B85880F991F880F991F63
:10492000820F931FFC01B19680819181A281B38196
:10493000EC89FD8980839183A283B3838E85282FA0
:1049400030E08A859B85820F931FFC01B59680819C
:1049500089878E85282F30E08A859B85820F931F5B
:10496000FC01B59682E080838B89282F30E0398F57
:10497000288F888D998D8230910509F446C0288D45
:10498000398D2330310534F4888D998D813091052E
:1049900071F093C0288D398D2330310509F45DC045
:1049A000888D998D8430910509F46DC086C08E85FF
:1049B000082F10E08E85882F90E02A853B85880F90
:1049C000991F880F991F820F931FFC01B1962081B8
:1049D0003181428153818F859889A989BA89BA0129
:1049E000A901482B592B6A2B7B2B2A853B85C801B3
:1049F000880F991F880F991F820F931FFC01B19692
:104A0000408351836283738358C08E85082F10E0E2
:104A10002A853B85C801880F991F880F991F820F2F
:104A2000931FFC01B19680819181A281B381AC0179
:104A3000BD014F5F5F4F6F4F7F4F2A853B85C80198
:104A4000880F991F880F991F820F931FFC01B19641
:104A5000408351836283738330C08E85882F90E0BA
:104A60002A853B85880F991F880F991F820F931FF6
:104A7000FC01B1968F859889A989BA898083918331
:104A8000A283B3831AC089858230B1F08E85882FC6
:104A900090E02A853B85880F991F880F991F820F08
:104AA000931FFC01B1968F859889A989BA89808363
:104AB0009183A283B38301C018868985813009F070
:104AC000EEC08091FD06882309F0A4C0EA85FB852D
:104AD000828593859E838D83EA85FB85A481B5813C
:104AE000EA85FB858681978115969C938E93149712
:104AF000EA85FB85A681B781EA85FB85848195815E
:104B000013969C938E931297ED81FE8121813281C1
:104B10008A859B8502962817390741F4EA85FB852B
:104B200086819781ED81FE8192838183EA85FB8571
:104B300013861286ED81FE8180818150ED81FE8198
:104B40008083EA85FB8596898091F206891728F48F
:104B5000EA85FB8586898093F206EA85FB8586894E
:104B6000282F30E0C901880F991F880F991F880FDF
:104B7000991F820F931FFC01E250F94F81819281AE
:104B80009C838B83EA85FB858B819C8195838483C1
:104B9000EB81FC8184819581EA85FB8597838683FF
:104BA000EB81FC810480F581E02D8A859B8502964E
:104BB000938382838A859B850296EB81FC81958312
:104BC0008483EA85FB858689282F30E0C901880F18
:104BD000991F880F991F880F991F820F931F82506A
:104BE000994FEA85FB8593878287EA85FB858689CD
:104BF000282F30E0C901880F991F880F991F880F4F
:104C0000991F820F931FFC01E250F94F80818F5F43
:104C1000808330C08091390790913A079A838983C5
:104C2000EA85FB8589819A8197878687E981FA8160
:104C300084819581EA85FB85918B808BE981FA815E
:104C40000480F581E02D8A859B850C969383828371
:104C50008A859B850C96E981FA8195838483EA8510
:104C6000FB8588E397E0958B848B809138078F5F75
:104C700080933807EA85FB859689E091EC06F091F0
:104C8000ED068689891758F48E899F89009721F04F
:104C9000EE89FF8981E0808381E08093F606888534
:104CA00069960FB6F894DEBF0FBECDBFCF91DF91EE
:104CB0001F910F91FF90EF90DF90CF9008950F9389
:104CC0001F93DF93CF93CDB7DEB72F970FB6F8942E
:104CD000DEBF0FBECDBF9C878B876D875F874E87FA
:104CE0008B859C859A8789871F828D85282F30E048
:104CF00089859A85820F931FFC01B59680818887EC
:104D00008D85282F30E089859A85820F931FFC01BD
:104D1000B59682E080838D85082F10E029853A853D
:104D2000C801880F991F880F991F820F931FFC01DC
:104D3000B19680819181A281B381AC01BD014F5FA9
:104D40005F4F6F4F7F4F29853A85C801880F991FA4
:104D5000880F991F820F931FFC01B19640835183E6
:104D6000628373838885813009F0EEC08091FD06EF
:104D7000882309F0A4C0E985FA85828593859E83FE
:104D80008D83E985FA85A481B581E985FA858681D7
:104D9000978115969C938E931497E985FA85A68141
:104DA000B781E985FA858481958113969C938E93CA
:104DB0001297ED81FE812181328189859A85029643
:104DC0002817390741F4E985FA8586819781ED81B5
:104DD000FE8192838183E985FA8513861286ED81AF
:104DE000FE8180818150ED81FE818083E985FA8595
:104DF00096898091F206891728F4E985FA858689D3
:104E00008093F206E985FA858689282F30E0C9016A
:104E1000880F991F880F991F880F991F820F931F62
:104E2000FC01E250F94F818192819C838B83E9855B
:104E3000FA858B819C8195838483EB81FC818481BD
:104E40009581E985FA8597838683EB81FC810480CF
:104E5000F581E02D89859A850296938382838985E1
:104E60009A850296EB81FC8195838483E985FA8596
:104E70008689282F30E0C901880F991F880F991F54
:104E8000880F991F820F931F8250994FE985FA85E9
:104E900093878287E985FA858689282F30E0C901C2
:104EA000880F991F880F991F880F991F820F931FD2
:104EB000FC01E250F94F80818F5F808330C0809188
:104EC000390790913A079A838983E985FA85898120
:104ED0009A8197878687E981FA8184819581E9851E
:104EE000FA85918B808BE981FA810480F581E02D30
:104EF00089859A850C969383828389859A850C96F9
:104F0000E981FA8195838483E985FA8588E397E0CE
:104F1000958B848B809138078F5F80933807E98564
:104F2000FA859689E091EC06F091ED06868989175D
:104F300058F48E859F85009721F0EE85FF8581E0EE
:104F4000808381E08093F6062F960FB6F894DEBF3B
:104F50000FBECDBFCF91DF911F910F910895DF93C9
:104F6000CF93CDB7DEB728970FB6F894DEBF0FBE4C
:104F7000CDBF9D838C836E838C819D81009739F496
:104F80008091EC069091ED0698878F8304C08C8108
:104F90009D8198878F838F8198859B838A830FB6A5
:104FA000F8940F928E81282F30E08A819B81820FA6
:104FB000931FFC01B5968081823069F48E81282F81
:104FC00030E08A819B81820F931FFC01B59610828D
:104FD00081E0898301C019820F900FBE89812896D4
:104FE0000FB6F894DEBF0FBECDBFCF91DF9108950D
:104FF0000F931F93DF93CF93CDB7DEB72F970FB6E5
:10500000F894DEBF0FBECDBF98878F8369872A874C
:105010003B874C875D878F819885009739F4809115
:10502000EC069091ED069F878E8704C08F8198854E
:105030009F878E878E859F859E838D830FB6F8947C
:105040000F928985882F90E02D813E81880F991FCE
:10505000880F991F820F931FFC01B1968081918167
:10506000A281B38189839A83AB83BC838985082F0E
:1050700010E08985882F90E02D813E81880F991F4F
:10508000880F991F820F931FFC01B19620813181F7
:10509000428153818A859B85AC85BD85809590959D
:1050A000A095B095BA01A901482359236A237B230F
:1050B0002D813E81C801880F991F880F991F820F8B
:1050C000931FFC01B19640835183628373830F90D9
:1050D0000FBE89819A81AB81BC81BC01CD012F9625
:1050E0000FB6F894DEBF0FBECDBFCF91DF911F91F9
:1050F0000F910895DF93CF93CDB7DEB727970FB603
:10510000F894DEBF0FBECDBF9E838D836F838091E9
:10511000F0069091F1069A8389838091EC06909134
:10512000ED0602960E94990D29813A818D819E811A
:10513000820F931F9C838B83E091EC06F091ED0628
:105140008B819C81938382832B813C8189819A818D
:105150002817390770F4809136079091370720910E
:10516000EC063091ED062E5F3F4FB9010E942D0DE8
:105170001EC040913407509135078091EC06909104
:10518000ED069C012E5F3F4FCA01B9010E942D0D13
:105190002091F9063091FA068B819C818217930742
:1051A00030F48B819C819093FA068093F9062796C0
:1051B0000FB6F894DEBF0FBECDBFCF91DF9108953B
:1051C000DF93CF9300D0CDB7DEB79A838983E0E435
:1051D000F0E089819A81892F99278083E9E2F0E0C4
:1051E00089818083AAE2B0E0EAE2F0E08081806118
:1051F0008C93AAE2B0E0EAE2F0E0808188608C93D0
:10520000A0E4B0E0E0E4F0E08081866A8C930F9047
:105210000F90CF91DF910895DF93CF930F92CDB789
:10522000DEB78983ECE2F0E089818083EBE2F0E095
:10523000808182958695869583708130B9F7ABE23F
:10524000B0E0EBE2F0E0808180648C930F90CF912E
:10525000DF910895DF93CF93CDB7DEB7EBE2F0E0B7
:1052600080818823DCF7ECE2F0E08081CF91DF9150
:105270000895DF93CF9300D0CDB7DEB79A838983AB
:105280000AC0E981FA8180810E940C2989819A8172
:1052900001969A838983E981FA818081882389F73D
:1052A0000F900F90CF91DF9108950F931F93DF938D
:1052B000CF9300D00F92CDB7DEB79B838A8319823C
:1052C0008981282F30E08A819B818C01020F131F76
:1052D0000E942A29F80180838981282F30E08A8161
:1052E0009B81FC01E20FF31F8081833221F08981D1
:1052F0008F5F8983E5CF0F900F900F90CF91DF9153
:105300001F910F910895DF93CF930F92CDB7DEB722
:105310008983ECE2F0E0898180830F90CF91DF9167
:105320000895DF93CF9300D00F92CDB7DEB79B8364
:105330008A8319821EC08981482F50E08981282FD5
:1053400030E08A819B81FC01E20FF31F8081FA012A
:10535000E45BF84F80838981282F30E08A819B812C
:10536000FC01E20FF31F8081882331F089818F5F78
:10537000898389818436F8F2ACE2B0E080914A07F3
:10538000882F90E0FC01E45BF84F80818C930F90B4
:105390000F900F90CF91DF910895DF93CF93CDB70A
:1053A000DEB78091B007CF91DF910895DF93CF935F
:1053B00000D00F92CDB7DEB79B838A8319821CC0C1
:1053C0008981282F30E08A819B81DC01A20FB31FE5
:1053D0008981882F90E0FC01EF54F84F80818C93F5
:1053E0008981882F90E0FC01EF54F84F8081882359
:1053F00031F089818F5F89838981843608F3109227
:10540000B0070F900F900F90CF91DF9108951F92EA
:105410000F920FB60F9211248F939F93AF93BF9368
:10542000EF93FF93DF93CF93CDB7DEB780914A0719
:105430008F5F80934A0780914A07882F90E0FC0194
:10544000E45BF84F8081882359F0ACE2B0E08091B2
:105450004A07882F90E0FC01E45BF84F80818C9331
:10546000CF91DF91FF91EF91BF91AF919F918F917C
:105470000F900FBE0F901F9018951F920F920FB6AE
:105480000F9211242F938F939F93EF93FF93DF93AA
:10549000CF93CDB7DEB780914B07882F90E0ECE239
:1054A000F0E02081FC01EF54F84F208380914B07FE
:1054B000882F90E0FC01EF54F84F8081833271F423
:1054C00080914B07882F90E0FC01EF54F84F108239
:1054D00010924B0781E08093B00705C080914B0785
:1054E0008F5F80934B07CF91DF91FF91EF919F9159
:1054F0008F912F910F900FBE0F901F901895DF93F3
:10550000CF93CDB7DEB781E065E041E00E94482B44
:1055100081E064E041E00E94482B81E067E041E0E7
:105520000E94482B81E066E040E00E94482B81E029
:1055300064E041E00E942B2CADE2B0E0EDE2F0E04F
:10554000808180648C93ADE2B0E0EDE2F0E0808198
:1055500080618C93ADE2B0E0EDE2F0E080818C936D
:10556000CF91DF910895DF93CF93CDB7DEB781E080
:1055700065E040E00E94482B81E064E040E00E944A
:10558000482B81E067E040E00E94482B81E066E024
:1055900041E00E94482BADE2B0E0EDE2F0E0808116
:1055A00080648C93ADE2B0E0EDE2F0E080818F7E2C
:1055B0008C93CF91DF910895DF93CF9300D0CDB737
:1055C000DEB78A8381E064E040E00E942B2CEFE2AA
:1055D000F0E08A818083EEE2F0E080818823DCF7CE
:1055E000EFE2F0E08081898381E064E041E00E94A5
:1055F0002B2C0F900F90CF91DF910895DF93CF93D5
:105600000F92CDB7DEB78FEF8983EFE2F0E08981AB
:105610008083EEE2F0E080818823DCF7EFE2F0E0C7
:1056200080810F90CF91DF910895DF93CF930F92F8
:10563000CDB7DEB78983EFE2F0E089818083EEE2C7
:10564000F0E080818823DCF7EFE2F0E080810F90CA
:10565000CF91DF910895DF93CF93CDB7DEB7EEE220
:10566000F0E080818823DCF7EFE2F0E08081CF91E9
:10567000DF910895DF93CF930F92CDB7DEB7898383
:10568000EFE2F0E0898180830F90CF91DF91089560
:10569000DF93CF9300D000D00F92CDB7DEB78983D0
:1056A0006A834B838981282F30E03D832C838C8152
:1056B0009D818130910509F443C02C813D812230C8
:1056C00031052CF48C819D81009771F0BCC02C8138
:1056D0003D812230310509F45FC08C819D8183308A
:1056E000910509F485C0AFC08B818130A1F4AAE394
:1056F000B0E0EAE3F0E08081482F8A81282F30E093
:1057000081E090E0022E02C0880F991F0A94E2F710
:10571000842B8C9398C0AAE3B0E0EAE3F0E08081A8
:10572000482F8A81282F30E081E090E0022E02C0CD
:10573000880F991F0A94E2F7809584238C9383C085
:105740008B818130A1F4A7E3B0E0E7E3F0E0808152
:10575000482F8A81282F30E081E090E0022E02C09D
:10576000880F991F0A94E2F7842B8C936CC0A7E3EF
:10577000B0E0E7E3F0E08081482F8A81282F30E015
:1057800081E090E0022E02C0880F991F0A94E2F790
:10579000809584238C9357C08B818130A1F4A4E33E
:1057A000B0E0E4E3F0E08081482F8A81282F30E0E8
:1057B00081E090E0022E02C0880F991F0A94E2F760
:1057C000842B8C9340C0A4E3B0E0E4E3F0E080815C
:1057D000482F8A81282F30E081E090E0022E02C01D
:1057E000880F991F0A94E2F7809584238C932BC02D
:1057F0008B818130A1F4A1E3B0E0E1E3F0E08081AE
:10580000482F8A81282F30E081E090E0022E02C0EC
:10581000880F991F0A94E2F7842B8C9314C0A1E39C
:10582000B0E0E1E3F0E08081482F8A81282F30E06A
:1058300081E090E0022E02C0880F991F0A94E2F7DF
:10584000809584238C930F900F900F900F900F9062
:10585000CF91DF910895DF93CF9300D000D00F92C6
:10586000CDB7DEB789836A834B838981282F30E0E7
:105870003D832C838C819D818130910509F443C047
:105880002C813D81223031052CF48C819D81009743
:1058900071F0BCC02C813D812230310509F45FC01C
:1058A0008C819D818330910509F485C0AFC08B81C7
:1058B0008823A9F4ABE3B0E0EBE3F0E08081482F6C
:1058C0008A81282F30E081E090E0022E02C0880F0C
:1058D000991F0A94E2F7809584238C9397C0ABE3D9
:1058E000B0E0EBE3F0E08081482F8A81282F30E0A0
:1058F00081E090E0022E02C0880F991F0A94E2F71F
:10590000842B8C9383C08B818823A9F4A8E3B0E017
:10591000E8E3F0E08081482F8A81282F30E081E0A1
:1059200090E0022E02C0880F991F0A94E2F780953A
:1059300084238C936BC0A8E3B0E0E8E3F0E08081BF
:10594000482F8A81282F30E081E090E0022E02C0AB
:10595000880F991F0A94E2F7842B8C9357C08B8190
:105960008823A9F4A5E3B0E0E5E3F0E08081482FC7
:105970008A81282F30E081E090E0022E02C0880F5B
:10598000991F0A94E2F7809584238C933FC0A5E386
:10599000B0E0E5E3F0E08081482F8A81282F30E0F5
:1059A00081E090E0022E02C0880F991F0A94E2F76E
:1059B000842B8C932BC08B818823A9F4A2E3B0E0C5
:1059C000E2E3F0E08081482F8A81282F30E081E0F7
:1059D00090E0022E02C0880F991F0A94E2F780958A
:1059E00084238C9313C0A2E3B0E0E2E3F0E0808173
:1059F000482F8A81282F30E081E090E0022E02C0FB
:105A0000880F991F0A94E2F7842B8C930F900F90C4
:105A10000F900F900F90CF91DF910895DF93CF9368
:105A200000D00F92CDB7DEB789836A834B830F9086
:105A30000F900F90CF91DF910895DF93CF9300D017
:105A400000D0CDB7DEB789836A838981282F30E003
:105A50003C832B838B819C818130910549F12B8183
:105A60003C81223031052CF48B819C81009761F0C0
:105A70005AC02B813C812230310571F18B819C8190
:105A800083309105E9F14FC0ABE3B0E0EBE3F0E028
:105A90008081482F8A81282F30E081E090E0022E1B
:105AA00002C0880F991F0A94E2F784278C933BC0A9
:105AB000A8E3B0E0E8E3F0E08081482F8A81282F56
:105AC00030E081E090E0022E02C0880F991F0A9416
:105AD000E2F784278C9327C0A5E3B0E0E5E3F0E08C
